{"web3/contracts/MarketPlace.sol":{"MarketPlace":{"abi":[{"inputs":[{"internalType":"uint256","name":"_projectCost","type":"uint256"}],"stateMutability":"nonpayable","type":"constructor"},{"anonymous":false,"inputs":[{"indexed":true,"internalType":"uint256","name":"projectId","type":"uint256"},{"indexed":false,"internalType":"string","name":"CID","type":"string"},{"indexed":false,"internalType":"contract AccessToken","name":"tokenAddress","type":"address"}],"name":"ProjectCreated","type":"event"},{"inputs":[{"internalType":"uint256","name":"_projectId","type":"uint256"}],"name":"buyProjectToken","outputs":[],"stateMutability":"payable","type":"function"},{"inputs":[{"internalType":"string","name":"name","type":"string"},{"internalType":"string","name":"symbol","type":"string"},{"internalType":"string","name":"CID","type":"string"},{"internalType":"uint256","name":"maxSupply","type":"uint256"},{"internalType":"uint256","name":"tokenPrice","type":"uint256"},{"internalType":"address[]","name":"creators","type":"address[]"},{"internalType":"uint256[]","name":"shares","type":"uint256[]"}],"name":"createProject","outputs":[],"stateMutability":"payable","type":"function"},{"inputs":[],"name":"getProjects","outputs":[],"stateMutability":"view","type":"function"},{"inputs":[{"internalType":"uint256","name":"","type":"uint256"}],"name":"projectIdToDetails","outputs":[{"internalType":"uint256","name":"projectId","type":"uint256"},{"internalType":"string","name":"CID","type":"string"},{"internalType":"contract AccessToken","name":"tokenAddress","type":"address"}],"stateMutability":"view","type":"function"}],"evm":{"bytecode":{"linkReferences":{},"object":"608060405234801561001057600080fd5b506040516200325f3803806200325f833981810160405281019061003491906100bd565b33600260006101000a81548173ffffffffffffffffffffffffffffffffffffffff021916908373ffffffffffffffffffffffffffffffffffffffff16021790555080600181905550506100ea565b600080fd5b6000819050919050565b61009a81610087565b81146100a557600080fd5b50565b6000815190506100b781610091565b92915050565b6000602082840312156100d3576100d2610082565b5b60006100e1848285016100a8565b91505092915050565b61316580620000fa6000396000f3fe608060405260043610620000445760003560e01c80638d4564f114620000495780638fe23a5d1462000069578063dcc6012814620000af578063f789f6a614620000c9575b600080fd5b620000676004803603810190620000619190620005f4565b620000e9565b005b3480156200007657600080fd5b506200009560048036038101906200008f9190620005f4565b620001d4565b604051620000a69392919062000766565b60405180910390f35b348015620000bc57600080fd5b50620000c7620002ae565b005b620000e76004803603810190620000e1919062000af1565b620002b0565b005b620000f56000620004c3565b811062000139576040517f08c379a0000000000000000000000000000000000000000000000000000000008152600401620001309062000c8f565b60405180910390fd5b6003600082815260200190815260200160002060020160009054906101000a900473ffffffffffffffffffffffffffffffffffffffff1673ffffffffffffffffffffffffffffffffffffffff16631249c58b6040518163ffffffff1660e01b8152600401600060405180830381600087803b158015620001b857600080fd5b505af1158015620001cd573d6000803e3d6000fd5b5050505050565b6003602052806000526040600020600091509050806000015490806001018054620001ff9062000ce0565b80601f01602080910402602001604051908101604052809291908181526020018280546200022d9062000ce0565b80156200027e5780601f1062000252576101008083540402835291602001916200027e565b820191906000526020600020905b8154815290600101906020018083116200026057829003601f168201915b5050505050908060020160009054906101000a900473ffffffffffffffffffffffffffffffffffffffff16905083565b565b600154341015620002f8576040517f08c379a0000000000000000000000000000000000000000000000000000000008152600401620002ef9062000d66565b60405180910390fd5b600260009054906101000a900473ffffffffffffffffffffffffffffffffffffffff1673ffffffffffffffffffffffffffffffffffffffff166108fc349081150290604051600060405180830381858888f1935050505015801562000361573d6000803e3d6000fd5b5060008787868686866040516200037890620004e7565b620003899695949392919062000f24565b604051809103906000f080158015620003a6573d6000803e3d6000fd5b5090506000620003b76000620004c3565b9050620003c56000620004d1565b60405180606001604052808281526020018881526020018373ffffffffffffffffffffffffffffffffffffffff168152506003600083815260200190815260200160002060008201518160000155602082015181600101908051906020019062000431929190620004f5565b5060408201518160020160006101000a81548173ffffffffffffffffffffffffffffffffffffffff021916908373ffffffffffffffffffffffffffffffffffffffff160217905550905050807fc0c54fed07481d0998e1446b2c13759606bf4f26b78306307413ac4c4309aa828884604051620004b092919062000fad565b60405180910390a2505050505050505050565b600081600001549050919050565b6001816000016000828254019250508190555050565b61214e8062000fe283390190565b828054620005039062000ce0565b90600052602060002090601f01602090048101928262000527576000855562000573565b82601f106200054257805160ff191683800117855562000573565b8280016001018555821562000573579182015b828111156200057257825182559160200191906001019062000555565b5b50905062000582919062000586565b5090565b5b80821115620005a157600081600090555060010162000587565b5090565b6000604051905090565b600080fd5b600080fd5b6000819050919050565b620005ce81620005b9565b8114620005da57600080fd5b50565b600081359050620005ee81620005c3565b92915050565b6000602082840312156200060d576200060c620005af565b5b60006200061d84828501620005dd565b91505092915050565b6200063181620005b9565b82525050565b600081519050919050565b600082825260208201905092915050565b60005b838110156200067357808201518184015260208101905062000656565b8381111562000683576000848401525b50505050565b6000601f19601f8301169050919050565b6000620006a78262000637565b620006b3818562000642565b9350620006c581856020860162000653565b620006d08162000689565b840191505092915050565b600073ffffffffffffffffffffffffffffffffffffffff82169050919050565b6000819050919050565b600062000726620007206200071a84620006db565b620006fb565b620006db565b9050919050565b60006200073a8262000705565b9050919050565b60006200074e826200072d565b9050919050565b620007608162000741565b82525050565b60006060820190506200077d600083018662000626565b81810360208301526200079181856200069a565b9050620007a2604083018462000755565b949350505050565b600080fd5b600080fd5b7f4e487b7100000000000000000000000000000000000000000000000000000000600052604160045260246000fd5b620007ee8262000689565b810181811067ffffffffffffffff8211171562000810576200080f620007b4565b5b80604052505050565b600062000825620005a5565b9050620008338282620007e3565b919050565b600067ffffffffffffffff821115620008565762000855620007b4565b5b620008618262000689565b9050602081019050919050565b82818337600083830152505050565b6000620008946200088e8462000838565b62000819565b905082815260208101848484011115620008b357620008b2620007af565b5b620008c08482856200086e565b509392505050565b600082601f830112620008e057620008df620007aa565b5b8135620008f28482602086016200087d565b91505092915050565b600067ffffffffffffffff821115620009195762000918620007b4565b5b602082029050602081019050919050565b600080fd5b60006200093c82620006db565b9050919050565b6200094e816200092f565b81146200095a57600080fd5b50565b6000813590506200096e8162000943565b92915050565b60006200098b6200098584620008fb565b62000819565b90508083825260208201905060208402830185811115620009b157620009b06200092a565b5b835b81811015620009de5780620009c988826200095d565b845260208401935050602081019050620009b3565b5050509392505050565b600082601f83011262000a0057620009ff620007aa565b5b813562000a1284826020860162000974565b91505092915050565b600067ffffffffffffffff82111562000a395762000a38620007b4565b5b602082029050602081019050919050565b600062000a6162000a5b8462000a1b565b62000819565b9050808382526020820190506020840283018581111562000a875762000a866200092a565b5b835b8181101562000ab4578062000a9f8882620005dd565b84526020840193505060208101905062000a89565b5050509392505050565b600082601f83011262000ad65762000ad5620007aa565b5b813562000ae884826020860162000a4a565b91505092915050565b600080600080600080600060e0888a03121562000b135762000b12620005af565b5b600088013567ffffffffffffffff81111562000b345762000b33620005b4565b5b62000b428a828b01620008c8565b975050602088013567ffffffffffffffff81111562000b665762000b65620005b4565b5b62000b748a828b01620008c8565b965050604088013567ffffffffffffffff81111562000b985762000b97620005b4565b5b62000ba68a828b01620008c8565b955050606062000bb98a828b01620005dd565b945050608062000bcc8a828b01620005dd565b93505060a088013567ffffffffffffffff81111562000bf05762000bef620005b4565b5b62000bfe8a828b01620009e8565b92505060c088013567ffffffffffffffff81111562000c225762000c21620005b4565b5b62000c308a828b0162000abe565b91505092959891949750929550565b7f496e76616c69642050726f6a6563742049640000000000000000000000000000600082015250565b600062000c7760128362000642565b915062000c848262000c3f565b602082019050919050565b6000602082019050818103600083015262000caa8162000c68565b9050919050565b7f4e487b7100000000000000000000000000000000000000000000000000000000600052602260045260246000fd5b6000600282049050600182168062000cf957607f821691505b6020821081141562000d105762000d0f62000cb1565b5b50919050565b7f496e73756666696369656e7420416d6f756e7400000000000000000000000000600082015250565b600062000d4e60138362000642565b915062000d5b8262000d16565b602082019050919050565b6000602082019050818103600083015262000d818162000d3f565b9050919050565b600081519050919050565b600082825260208201905092915050565b6000819050602082019050919050565b62000dbf816200092f565b82525050565b600062000dd3838362000db4565b60208301905092915050565b6000602082019050919050565b600062000df98262000d88565b62000e05818562000d93565b935062000e128362000da4565b8060005b8381101562000e4957815162000e2d888262000dc5565b975062000e3a8362000ddf565b92505060018101905062000e16565b5085935050505092915050565b600081519050919050565b600082825260208201905092915050565b6000819050602082019050919050565b62000e8d81620005b9565b82525050565b600062000ea1838362000e82565b60208301905092915050565b6000602082019050919050565b600062000ec78262000e56565b62000ed3818562000e61565b935062000ee08362000e72565b8060005b8381101562000f1757815162000efb888262000e93565b975062000f088362000ead565b92505060018101905062000ee4565b5085935050505092915050565b600060c082019050818103600083015262000f4081896200069a565b9050818103602083015262000f5681886200069a565b905062000f67604083018762000626565b62000f76606083018662000626565b818103608083015262000f8a818562000dec565b905081810360a083015262000fa0818462000eba565b9050979650505050505050565b6000604082019050818103600083015262000fc981856200069a565b905062000fda602083018462000755565b939250505056fe60806040526001600a60006101000a81548160ff0219169083151502179055503480156200002c57600080fd5b506040516200214e3803806200214e8339818101604052810190620000529190620006a2565b858581600390805190602001906200006c92919062000123565b5080600490805190602001906200008592919062000123565b50505060098054905060088054905014620000d7576040517f08c379a0000000000000000000000000000000000000000000000000000000008152600401620000ce9062000841565b60405180910390fd5b83600581905550826007819055508160089080519060200190620000fd929190620001b4565b5080600990805190602001906200011692919062000243565b50505050505050620008c8565b828054620001319062000892565b90600052602060002090601f016020900481019282620001555760008555620001a1565b82601f106200017057805160ff1916838001178555620001a1565b82800160010185558215620001a1579182015b82811115620001a057825182559160200191906001019062000183565b5b509050620001b0919062000295565b5090565b82805482825590600052602060002090810192821562000230579160200282015b828111156200022f5782518260006101000a81548173ffffffffffffffffffffffffffffffffffffffff021916908373ffffffffffffffffffffffffffffffffffffffff16021790555091602001919060010190620001d5565b5b5090506200023f919062000295565b5090565b82805482825590600052602060002090810192821562000282579160200282015b828111156200028157825182559160200191906001019062000264565b5b50905062000291919062000295565b5090565b5b80821115620002b057600081600090555060010162000296565b5090565b6000604051905090565b600080fd5b600080fd5b600080fd5b600080fd5b6000601f19601f8301169050919050565b7f4e487b7100000000000000000000000000000000000000000000000000000000600052604160045260246000fd5b6200031d82620002d2565b810181811067ffffffffffffffff821117156200033f576200033e620002e3565b5b80604052505050565b600062000354620002b4565b905062000362828262000312565b919050565b600067ffffffffffffffff821115620003855762000384620002e3565b5b6200039082620002d2565b9050602081019050919050565b60005b83811015620003bd578082015181840152602081019050620003a0565b83811115620003cd576000848401525b50505050565b6000620003ea620003e48462000367565b62000348565b905082815260208101848484011115620004095762000408620002cd565b5b620004168482856200039d565b509392505050565b600082601f830112620004365762000435620002c8565b5b815162000448848260208601620003d3565b91505092915050565b6000819050919050565b620004668162000451565b81146200047257600080fd5b50565b60008151905062000486816200045b565b92915050565b600067ffffffffffffffff821115620004aa57620004a9620002e3565b5b602082029050602081019050919050565b600080fd5b600073ffffffffffffffffffffffffffffffffffffffff82169050919050565b6000620004ed82620004c0565b9050919050565b620004ff81620004e0565b81146200050b57600080fd5b50565b6000815190506200051f81620004f4565b92915050565b60006200053c62000536846200048c565b62000348565b90508083825260208201905060208402830185811115620005625762000561620004bb565b5b835b818110156200058f57806200057a88826200050e565b84526020840193505060208101905062000564565b5050509392505050565b600082601f830112620005b157620005b0620002c8565b5b8151620005c384826020860162000525565b91505092915050565b600067ffffffffffffffff821115620005ea57620005e9620002e3565b5b602082029050602081019050919050565b6000620006126200060c84620005cc565b62000348565b90508083825260208201905060208402830185811115620006385762000637620004bb565b5b835b8181101562000665578062000650888262000475565b8452602084019350506020810190506200063a565b5050509392505050565b600082601f830112620006875762000686620002c8565b5b815162000699848260208601620005fb565b91505092915050565b60008060008060008060c08789031215620006c257620006c1620002be565b5b600087015167ffffffffffffffff811115620006e357620006e2620002c3565b5b620006f189828a016200041e565b965050602087015167ffffffffffffffff811115620007155762000714620002c3565b5b6200072389828a016200041e565b95505060406200073689828a0162000475565b94505060606200074989828a0162000475565b935050608087015167ffffffffffffffff8111156200076d576200076c620002c3565b5b6200077b89828a0162000599565b92505060a087015167ffffffffffffffff8111156200079f576200079e620002c3565b5b620007ad89828a016200066f565b9150509295509295509295565b600082825260208201905092915050565b7f4c656e677468206f662063726561746f727320616e6420726f79616c7469657360008201527f206172726179206d75737420626520657175616c000000000000000000000000602082015250565b600062000829603483620007ba565b91506200083682620007cb565b604082019050919050565b600060208201905081810360008301526200085c816200081a565b9050919050565b7f4e487b7100000000000000000000000000000000000000000000000000000000600052602260045260246000fd5b60006002820490506001821680620008ab57607f821691505b60208210811415620008c257620008c162000863565b5b50919050565b61187680620008d86000396000f3fe6080604052600436106100fe5760003560e01c806370a0823111610095578063d082e38111610064578063d082e3811461033e578063d2d8cb6714610369578063dd62ed3e14610394578063e6cd7ab6146103d1578063e7aa3afc1461040e576100fe565b806370a082311461025c57806395d89b4114610299578063a457c2d7146102c4578063a9059cbb14610301576100fe565b806323b872dd116100d157806323b872dd146101a0578063313ce567146101dd57806339509351146102085780635b98062814610245576100fe565b806306fdde0314610103578063095ea7b31461012e5780631249c58b1461016b57806318160ddd14610175575b600080fd5b34801561010f57600080fd5b50610118610439565b6040516101259190610f72565b60405180910390f35b34801561013a57600080fd5b506101556004803603810190610150919061102d565b6104cb565b6040516101629190611088565b60405180910390f35b6101736104ee565b005b34801561018157600080fd5b5061018a610609565b60405161019791906110b2565b60405180910390f35b3480156101ac57600080fd5b506101c760048036038101906101c291906110cd565b610613565b6040516101d49190611088565b60405180910390f35b3480156101e957600080fd5b506101f2610642565b6040516101ff919061113c565b60405180910390f35b34801561021457600080fd5b5061022f600480360381019061022a919061102d565b61064b565b60405161023c9190611088565b60405180910390f35b34801561025157600080fd5b5061025a610682565b005b34801561026857600080fd5b50610283600480360381019061027e9190611157565b6107d1565b60405161029091906110b2565b60405180910390f35b3480156102a557600080fd5b506102ae610819565b6040516102bb9190610f72565b60405180910390f35b3480156102d057600080fd5b506102eb60048036038101906102e6919061102d565b6108ab565b6040516102f89190611088565b60405180910390f35b34801561030d57600080fd5b506103286004803603810190610323919061102d565b610922565b6040516103359190611088565b60405180910390f35b34801561034a57600080fd5b50610353610945565b60405161036091906110b2565b60405180910390f35b34801561037557600080fd5b5061037e61094b565b60405161038b91906110b2565b60405180910390f35b3480156103a057600080fd5b506103bb60048036038101906103b69190611184565b610951565b6040516103c891906110b2565b60405180910390f35b3480156103dd57600080fd5b506103f860048036038101906103f39190611157565b6109d8565b60405161040591906110b2565b60405180910390f35b34801561041a57600080fd5b506104236109f0565b6040516104309190611088565b60405180910390f35b606060038054610448906111f3565b80601f0160208091040260200160405190810160405280929190818152602001828054610474906111f3565b80156104c15780601f10610496576101008083540402835291602001916104c1565b820191906000526020600020905b8154815290600101906020018083116104a457829003601f168201915b5050505050905090565b6000806104d6610a07565b90506104e3818585610a0f565b600191505092915050565b600754341015610533576040517f08c379a000000000000000000000000000000000000000000000000000000000815260040161052a90611271565b60405180910390fd5b60055460065410610579576040517f08c379a0000000000000000000000000000000000000000000000000000000008152600401610570906112dd565b60405180910390fd5b6000610584336107d1565b146105c4576040517f08c379a00000000000000000000000000000000000000000000000000000000081526004016105bb9061136f565b60405180910390fd5b6105cf336001610bda565b6105d834610d31565b600660008154809291906105eb906113be565b91905055506005546006541415610607576106066000610e21565b5b565b6000600254905090565b60008061061e610a07565b905061062b858285610e3e565b610636858585610eca565b60019150509392505050565b60006012905090565b600080610656610a07565b90506106778185856106688589610951565b6106729190611407565b610a0f565b600191505092915050565b6000600b60003373ffffffffffffffffffffffffffffffffffffffff1673ffffffffffffffffffffffffffffffffffffffff1681526020019081526020016000205411610704576040517f08c379a00000000000000000000000000000000000000000000000000000000081526004016106fb906114a9565b60405180910390fd5b3373ffffffffffffffffffffffffffffffffffffffff166108fc600b60003373ffffffffffffffffffffffffffffffffffffffff1673ffffffffffffffffffffffffffffffffffffffff168152602001908152602001600020549081150290604051600060405180830381858888f19350505050158015610789573d6000803e3d6000fd5b506000600b60003373ffffffffffffffffffffffffffffffffffffffff1673ffffffffffffffffffffffffffffffffffffffff16815260200190815260200160002081905550565b60008060008373ffffffffffffffffffffffffffffffffffffffff1673ffffffffffffffffffffffffffffffffffffffff168152602001908152602001600020549050919050565b606060048054610828906111f3565b80601f0160208091040260200160405190810160405280929190818152602001828054610854906111f3565b80156108a15780601f10610876576101008083540402835291602001916108a1565b820191906000526020600020905b81548152906001019060200180831161088457829003601f168201915b5050505050905090565b6000806108b6610a07565b905060006108c48286610951565b905083811015610909576040517f08c379a00000000000000000000000000000000000000000000000000000000081526004016109009061153b565b60405180910390fd5b6109168286868403610a0f565b60019250505092915050565b60008061092d610a07565b905061093a818585610eca565b600191505092915050565b60065481565b60075481565b6000600160008473ffffffffffffffffffffffffffffffffffffffff1673ffffffffffffffffffffffffffffffffffffffff16815260200190815260200160002060008373ffffffffffffffffffffffffffffffffffffffff1673ffffffffffffffffffffffffffffffffffffffff16815260200190815260200160002054905092915050565b600b6020528060005260406000206000915090505481565b6000600a60009054906101000a900460ff16905090565b600033905090565b600073ffffffffffffffffffffffffffffffffffffffff168373ffffffffffffffffffffffffffffffffffffffff161415610a7f576040517f08c379a0000000000000000000000000000000000000000000000000000000008152600401610a76906115cd565b60405180910390fd5b600073ffffffffffffffffffffffffffffffffffffffff168273ffffffffffffffffffffffffffffffffffffffff161415610aef576040517f08c379a0000000000000000000000000000000000000000000000000000000008152600401610ae69061165f565b60405180910390fd5b80600160008573ffffffffffffffffffffffffffffffffffffffff1673ffffffffffffffffffffffffffffffffffffffff16815260200190815260200160002060008473ffffffffffffffffffffffffffffffffffffffff1673ffffffffffffffffffffffffffffffffffffffff168152602001908152602001600020819055508173ffffffffffffffffffffffffffffffffffffffff168373ffffffffffffffffffffffffffffffffffffffff167f8c5be1e5ebec7d5bd14f71427d1e84f3dd0314c0f7b2291e5b200ac8c7c3b92583604051610bcd91906110b2565b60405180910390a3505050565b600073ffffffffffffffffffffffffffffffffffffffff168273ffffffffffffffffffffffffffffffffffffffff161415610c4a576040517f08c379a0000000000000000000000000000000000000000000000000000000008152600401610c41906116cb565b60405180910390fd5b610c5660008383610ecf565b8060026000828254610c689190611407565b92505081905550806000808473ffffffffffffffffffffffffffffffffffffffff1673ffffffffffffffffffffffffffffffffffffffff168152602001908152602001600020600082825401925050819055508173ffffffffffffffffffffffffffffffffffffffff16600073ffffffffffffffffffffffffffffffffffffffff167fddf252ad1be2c89b69c2b068fc378daa952ba7f163c4a11628f55a4df523b3ef83604051610d1991906110b2565b60405180910390a3610d2d60008383610ed4565b5050565b60005b600880549050811015610e1d5760648260098381548110610d5857610d576116eb565b5b9060005260206000200154610d6d919061171a565b610d7791906117a3565b600b600060088481548110610d8f57610d8e6116eb565b5b9060005260206000200160009054906101000a900473ffffffffffffffffffffffffffffffffffffffff1673ffffffffffffffffffffffffffffffffffffffff1673ffffffffffffffffffffffffffffffffffffffff1681526020019081526020016000206000828254610e039190611407565b925050819055508080610e15906113be565b915050610d34565b5050565b80600a60006101000a81548160ff02191690831515021790555050565b6000610e4a8484610951565b90507fffffffffffffffffffffffffffffffffffffffffffffffffffffffffffffffff8114610ec45781811015610eb6576040517f08c379a0000000000000000000000000000000000000000000000000000000008152600401610ead90611820565b60405180910390fd5b610ec38484848403610a0f565b5b50505050565b600080fd5b505050565b505050565b600081519050919050565b600082825260208201905092915050565b60005b83811015610f13578082015181840152602081019050610ef8565b83811115610f22576000848401525b50505050565b6000601f19601f8301169050919050565b6000610f4482610ed9565b610f4e8185610ee4565b9350610f5e818560208601610ef5565b610f6781610f28565b840191505092915050565b60006020820190508181036000830152610f8c8184610f39565b905092915050565b600080fd5b600073ffffffffffffffffffffffffffffffffffffffff82169050919050565b6000610fc482610f99565b9050919050565b610fd481610fb9565b8114610fdf57600080fd5b50565b600081359050610ff181610fcb565b92915050565b6000819050919050565b61100a81610ff7565b811461101557600080fd5b50565b60008135905061102781611001565b92915050565b6000806040838503121561104457611043610f94565b5b600061105285828601610fe2565b925050602061106385828601611018565b9150509250929050565b60008115159050919050565b6110828161106d565b82525050565b600060208201905061109d6000830184611079565b92915050565b6110ac81610ff7565b82525050565b60006020820190506110c760008301846110a3565b92915050565b6000806000606084860312156110e6576110e5610f94565b5b60006110f486828701610fe2565b935050602061110586828701610fe2565b925050604061111686828701611018565b9150509250925092565b600060ff82169050919050565b61113681611120565b82525050565b6000602082019050611151600083018461112d565b92915050565b60006020828403121561116d5761116c610f94565b5b600061117b84828501610fe2565b91505092915050565b6000806040838503121561119b5761119a610f94565b5b60006111a985828601610fe2565b92505060206111ba85828601610fe2565b9150509250929050565b7f4e487b7100000000000000000000000000000000000000000000000000000000600052602260045260246000fd5b6000600282049050600182168061120b57607f821691505b6020821081141561121f5761121e6111c4565b5b50919050565b7f496e73756666696369656e7420416d6f756e7400000000000000000000000000600082015250565b600061125b601383610ee4565b915061126682611225565b602082019050919050565b6000602082019050818103600083015261128a8161124e565b9050919050565b7f546f6b656e732061726520736f6c64206f757400000000000000000000000000600082015250565b60006112c7601383610ee4565b91506112d282611291565b602082019050919050565b600060208201905081810360008301526112f6816112ba565b9050919050565b7f596f75206861766520616c726561647920626f75676874207468697320746f6b60008201527f656e000000000000000000000000000000000000000000000000000000000000602082015250565b6000611359602283610ee4565b9150611364826112fd565b604082019050919050565b600060208201905081810360008301526113888161134c565b9050919050565b7f4e487b7100000000000000000000000000000000000000000000000000000000600052601160045260246000fd5b60006113c982610ff7565b91507fffffffffffffffffffffffffffffffffffffffffffffffffffffffffffffffff8214156113fc576113fb61138f565b5b600182019050919050565b600061141282610ff7565b915061141d83610ff7565b9250827fffffffffffffffffffffffffffffffffffffffffffffffffffffffffffffffff038211156114525761145161138f565b5b828201905092915050565b7f596f75722062616c616e6365206973207a65726f000000000000000000000000600082015250565b6000611493601483610ee4565b915061149e8261145d565b602082019050919050565b600060208201905081810360008301526114c281611486565b9050919050565b7f45524332303a2064656372656173656420616c6c6f77616e63652062656c6f7760008201527f207a65726f000000000000000000000000000000000000000000000000000000602082015250565b6000611525602583610ee4565b9150611530826114c9565b604082019050919050565b6000602082019050818103600083015261155481611518565b9050919050565b7f45524332303a20617070726f76652066726f6d20746865207a65726f2061646460008201527f7265737300000000000000000000000000000000000000000000000000000000602082015250565b60006115b7602483610ee4565b91506115c28261155b565b604082019050919050565b600060208201905081810360008301526115e6816115aa565b9050919050565b7f45524332303a20617070726f766520746f20746865207a65726f20616464726560008201527f7373000000000000000000000000000000000000000000000000000000000000602082015250565b6000611649602283610ee4565b9150611654826115ed565b604082019050919050565b600060208201905081810360008301526116788161163c565b9050919050565b7f45524332303a206d696e7420746f20746865207a65726f206164647265737300600082015250565b60006116b5601f83610ee4565b91506116c08261167f565b602082019050919050565b600060208201905081810360008301526116e4816116a8565b9050919050565b7f4e487b7100000000000000000000000000000000000000000000000000000000600052603260045260246000fd5b600061172582610ff7565b915061173083610ff7565b9250817fffffffffffffffffffffffffffffffffffffffffffffffffffffffffffffffff04831182151516156117695761176861138f565b5b828202905092915050565b7f4e487b7100000000000000000000000000000000000000000000000000000000600052601260045260246000fd5b60006117ae82610ff7565b91506117b983610ff7565b9250826117c9576117c8611774565b5b828204905092915050565b7f45524332303a20696e73756666696369656e7420616c6c6f77616e6365000000600082015250565b600061180a601d83610ee4565b9150611815826117d4565b602082019050919050565b60006020820190508181036000830152611839816117fd565b905091905056fea26469706673582212201aef4c505066502527965af519c02e35ad031e74699b762eefaf333ea1225d3364736f6c63430008090033a26469706673582212205e236fd2ebf19b3a2933442d44812c2d6e2832f61073f1f00d968dab9051e9e964736f6c63430008090033","opcodes":"PUSH1 0x80 PUSH1 0x40 MSTORE CALLVALUE DUP1 ISZERO PUSH2 0x10 JUMPI PUSH1 0x0 DUP1 REVERT JUMPDEST POP PUSH1 0x40 MLOAD PUSH3 0x325F CODESIZE SUB DUP1 PUSH3 0x325F DUP4 CODECOPY DUP2 DUP2 ADD PUSH1 0x40 MSTORE DUP2 ADD SWAP1 PUSH2 0x34 SWAP2 SWAP1 PUSH2 0xBD JUMP JUMPDEST CALLER PUSH1 0x2 PUSH1 0x0 PUSH2 0x100 EXP DUP2 SLOAD DUP2 PUSH20 0xFFFFFFFFFFFFFFFFFFFFFFFFFFFFFFFFFFFFFFFF MUL NOT AND SWAP1 DUP4 PUSH20 0xFFFFFFFFFFFFFFFFFFFFFFFFFFFFFFFFFFFFFFFF AND MUL OR SWAP1 SSTORE POP DUP1 PUSH1 0x1 DUP2 SWAP1 SSTORE POP POP PUSH2 0xEA JUMP JUMPDEST PUSH1 0x0 DUP1 REVERT JUMPDEST PUSH1 0x0 DUP2 SWAP1 POP SWAP2 SWAP1 POP JUMP JUMPDEST PUSH2 0x9A DUP2 PUSH2 0x87 JUMP JUMPDEST DUP2 EQ PUSH2 0xA5 JUMPI PUSH1 0x0 DUP1 REVERT JUMPDEST POP JUMP JUMPDEST PUSH1 0x0 DUP2 MLOAD SWAP1 POP PUSH2 0xB7 DUP2 PUSH2 0x91 JUMP JUMPDEST SWAP3 SWAP2 POP POP JUMP JUMPDEST PUSH1 0x0 PUSH1 0x20 DUP3 DUP5 SUB SLT ISZERO PUSH2 0xD3 JUMPI PUSH2 0xD2 PUSH2 0x82 JUMP JUMPDEST JUMPDEST PUSH1 0x0 PUSH2 0xE1 DUP5 DUP3 DUP6 ADD PUSH2 0xA8 JUMP JUMPDEST SWAP2 POP POP SWAP3 SWAP2 POP POP JUMP JUMPDEST PUSH2 0x3165 DUP1 PUSH3 0xFA PUSH1 0x0 CODECOPY PUSH1 0x0 RETURN INVALID PUSH1 0x80 PUSH1 0x40 MSTORE PUSH1 0x4 CALLDATASIZE LT PUSH3 0x44 JUMPI PUSH1 0x0 CALLDATALOAD PUSH1 0xE0 SHR DUP1 PUSH4 0x8D4564F1 EQ PUSH3 0x49 JUMPI DUP1 PUSH4 0x8FE23A5D EQ PUSH3 0x69 JUMPI DUP1 PUSH4 0xDCC60128 EQ PUSH3 0xAF JUMPI DUP1 PUSH4 0xF789F6A6 EQ PUSH3 0xC9 JUMPI JUMPDEST PUSH1 0x0 DUP1 REVERT JUMPDEST PUSH3 0x67 PUSH1 0x4 DUP1 CALLDATASIZE SUB DUP2 ADD SWAP1 PUSH3 0x61 SWAP2 SWAP1 PUSH3 0x5F4 JUMP JUMPDEST PUSH3 0xE9 JUMP JUMPDEST STOP JUMPDEST CALLVALUE DUP1 ISZERO PUSH3 0x76 JUMPI PUSH1 0x0 DUP1 REVERT JUMPDEST POP PUSH3 0x95 PUSH1 0x4 DUP1 CALLDATASIZE SUB DUP2 ADD SWAP1 PUSH3 0x8F SWAP2 SWAP1 PUSH3 0x5F4 JUMP JUMPDEST PUSH3 0x1D4 JUMP JUMPDEST PUSH1 0x40 MLOAD PUSH3 0xA6 SWAP4 SWAP3 SWAP2 SWAP1 PUSH3 0x766 JUMP JUMPDEST PUSH1 0x40 MLOAD DUP1 SWAP2 SUB SWAP1 RETURN JUMPDEST CALLVALUE DUP1 ISZERO PUSH3 0xBC JUMPI PUSH1 0x0 DUP1 REVERT JUMPDEST POP PUSH3 0xC7 PUSH3 0x2AE JUMP JUMPDEST STOP JUMPDEST PUSH3 0xE7 PUSH1 0x4 DUP1 CALLDATASIZE SUB DUP2 ADD SWAP1 PUSH3 0xE1 SWAP2 SWAP1 PUSH3 0xAF1 JUMP JUMPDEST PUSH3 0x2B0 JUMP JUMPDEST STOP JUMPDEST PUSH3 0xF5 PUSH1 0x0 PUSH3 0x4C3 JUMP JUMPDEST DUP2 LT PUSH3 0x139 JUMPI PUSH1 0x40 MLOAD PUSH32 0x8C379A000000000000000000000000000000000000000000000000000000000 DUP2 MSTORE PUSH1 0x4 ADD PUSH3 0x130 SWAP1 PUSH3 0xC8F JUMP JUMPDEST PUSH1 0x40 MLOAD DUP1 SWAP2 SUB SWAP1 REVERT JUMPDEST PUSH1 0x3 PUSH1 0x0 DUP3 DUP2 MSTORE PUSH1 0x20 ADD SWAP1 DUP2 MSTORE PUSH1 0x20 ADD PUSH1 0x0 KECCAK256 PUSH1 0x2 ADD PUSH1 0x0 SWAP1 SLOAD SWAP1 PUSH2 0x100 EXP SWAP1 DIV PUSH20 0xFFFFFFFFFFFFFFFFFFFFFFFFFFFFFFFFFFFFFFFF AND PUSH20 0xFFFFFFFFFFFFFFFFFFFFFFFFFFFFFFFFFFFFFFFF AND PUSH4 0x1249C58B PUSH1 0x40 MLOAD DUP2 PUSH4 0xFFFFFFFF AND PUSH1 0xE0 SHL DUP2 MSTORE PUSH1 0x4 ADD PUSH1 0x0 PUSH1 0x40 MLOAD DUP1 DUP4 SUB DUP2 PUSH1 0x0 DUP8 DUP1 EXTCODESIZE ISZERO DUP1 ISZERO PUSH3 0x1B8 JUMPI PUSH1 0x0 DUP1 REVERT JUMPDEST POP GAS CALL ISZERO DUP1 ISZERO PUSH3 0x1CD JUMPI RETURNDATASIZE PUSH1 0x0 DUP1 RETURNDATACOPY RETURNDATASIZE PUSH1 0x0 REVERT JUMPDEST POP POP POP POP POP JUMP JUMPDEST PUSH1 0x3 PUSH1 0x20 MSTORE DUP1 PUSH1 0x0 MSTORE PUSH1 0x40 PUSH1 0x0 KECCAK256 PUSH1 0x0 SWAP2 POP SWAP1 POP DUP1 PUSH1 0x0 ADD SLOAD SWAP1 DUP1 PUSH1 0x1 ADD DUP1 SLOAD PUSH3 0x1FF SWAP1 PUSH3 0xCE0 JUMP JUMPDEST DUP1 PUSH1 0x1F ADD PUSH1 0x20 DUP1 SWAP2 DIV MUL PUSH1 0x20 ADD PUSH1 0x40 MLOAD SWAP1 DUP2 ADD PUSH1 0x40 MSTORE DUP1 SWAP3 SWAP2 SWAP1 DUP2 DUP2 MSTORE PUSH1 0x20 ADD DUP3 DUP1 SLOAD PUSH3 0x22D SWAP1 PUSH3 0xCE0 JUMP JUMPDEST DUP1 ISZERO PUSH3 0x27E JUMPI DUP1 PUSH1 0x1F LT PUSH3 0x252 JUMPI PUSH2 0x100 DUP1 DUP4 SLOAD DIV MUL DUP4 MSTORE SWAP2 PUSH1 0x20 ADD SWAP2 PUSH3 0x27E JUMP JUMPDEST DUP3 ADD SWAP2 SWAP1 PUSH1 0x0 MSTORE PUSH1 0x20 PUSH1 0x0 KECCAK256 SWAP1 JUMPDEST DUP2 SLOAD DUP2 MSTORE SWAP1 PUSH1 0x1 ADD SWAP1 PUSH1 0x20 ADD DUP1 DUP4 GT PUSH3 0x260 JUMPI DUP3 SWAP1 SUB PUSH1 0x1F AND DUP3 ADD SWAP2 JUMPDEST POP POP POP POP POP SWAP1 DUP1 PUSH1 0x2 ADD PUSH1 0x0 SWAP1 SLOAD SWAP1 PUSH2 0x100 EXP SWAP1 DIV PUSH20 0xFFFFFFFFFFFFFFFFFFFFFFFFFFFFFFFFFFFFFFFF AND SWAP1 POP DUP4 JUMP JUMPDEST JUMP JUMPDEST PUSH1 0x1 SLOAD CALLVALUE LT ISZERO PUSH3 0x2F8 JUMPI PUSH1 0x40 MLOAD PUSH32 0x8C379A000000000000000000000000000000000000000000000000000000000 DUP2 MSTORE PUSH1 0x4 ADD PUSH3 0x2EF SWAP1 PUSH3 0xD66 JUMP JUMPDEST PUSH1 0x40 MLOAD DUP1 SWAP2 SUB SWAP1 REVERT JUMPDEST PUSH1 0x2 PUSH1 0x0 SWAP1 SLOAD SWAP1 PUSH2 0x100 EXP SWAP1 DIV PUSH20 0xFFFFFFFFFFFFFFFFFFFFFFFFFFFFFFFFFFFFFFFF AND PUSH20 0xFFFFFFFFFFFFFFFFFFFFFFFFFFFFFFFFFFFFFFFF AND PUSH2 0x8FC CALLVALUE SWAP1 DUP2 ISZERO MUL SWAP1 PUSH1 0x40 MLOAD PUSH1 0x0 PUSH1 0x40 MLOAD DUP1 DUP4 SUB DUP2 DUP6 DUP9 DUP9 CALL SWAP4 POP POP POP POP ISZERO DUP1 ISZERO PUSH3 0x361 JUMPI RETURNDATASIZE PUSH1 0x0 DUP1 RETURNDATACOPY RETURNDATASIZE PUSH1 0x0 REVERT JUMPDEST POP PUSH1 0x0 DUP8 DUP8 DUP7 DUP7 DUP7 DUP7 PUSH1 0x40 MLOAD PUSH3 0x378 SWAP1 PUSH3 0x4E7 JUMP JUMPDEST PUSH3 0x389 SWAP7 SWAP6 SWAP5 SWAP4 SWAP3 SWAP2 SWAP1 PUSH3 0xF24 JUMP JUMPDEST PUSH1 0x40 MLOAD DUP1 SWAP2 SUB SWAP1 PUSH1 0x0 CREATE DUP1 ISZERO DUP1 ISZERO PUSH3 0x3A6 JUMPI RETURNDATASIZE PUSH1 0x0 DUP1 RETURNDATACOPY RETURNDATASIZE PUSH1 0x0 REVERT JUMPDEST POP SWAP1 POP PUSH1 0x0 PUSH3 0x3B7 PUSH1 0x0 PUSH3 0x4C3 JUMP JUMPDEST SWAP1 POP PUSH3 0x3C5 PUSH1 0x0 PUSH3 0x4D1 JUMP JUMPDEST PUSH1 0x40 MLOAD DUP1 PUSH1 0x60 ADD PUSH1 0x40 MSTORE DUP1 DUP3 DUP2 MSTORE PUSH1 0x20 ADD DUP9 DUP2 MSTORE PUSH1 0x20 ADD DUP4 PUSH20 0xFFFFFFFFFFFFFFFFFFFFFFFFFFFFFFFFFFFFFFFF AND DUP2 MSTORE POP PUSH1 0x3 PUSH1 0x0 DUP4 DUP2 MSTORE PUSH1 0x20 ADD SWAP1 DUP2 MSTORE PUSH1 0x20 ADD PUSH1 0x0 KECCAK256 PUSH1 0x0 DUP3 ADD MLOAD DUP2 PUSH1 0x0 ADD SSTORE PUSH1 0x20 DUP3 ADD MLOAD DUP2 PUSH1 0x1 ADD SWAP1 DUP1 MLOAD SWAP1 PUSH1 0x20 ADD SWAP1 PUSH3 0x431 SWAP3 SWAP2 SWAP1 PUSH3 0x4F5 JUMP JUMPDEST POP PUSH1 0x40 DUP3 ADD MLOAD DUP2 PUSH1 0x2 ADD PUSH1 0x0 PUSH2 0x100 EXP DUP2 SLOAD DUP2 PUSH20 0xFFFFFFFFFFFFFFFFFFFFFFFFFFFFFFFFFFFFFFFF MUL NOT AND SWAP1 DUP4 PUSH20 0xFFFFFFFFFFFFFFFFFFFFFFFFFFFFFFFFFFFFFFFF AND MUL OR SWAP1 SSTORE POP SWAP1 POP POP DUP1 PUSH32 0xC0C54FED07481D0998E1446B2C13759606BF4F26B78306307413AC4C4309AA82 DUP9 DUP5 PUSH1 0x40 MLOAD PUSH3 0x4B0 SWAP3 SWAP2 SWAP1 PUSH3 0xFAD JUMP JUMPDEST PUSH1 0x40 MLOAD DUP1 SWAP2 SUB SWAP1 LOG2 POP POP POP POP POP POP POP POP POP JUMP JUMPDEST PUSH1 0x0 DUP2 PUSH1 0x0 ADD SLOAD SWAP1 POP SWAP2 SWAP1 POP JUMP JUMPDEST PUSH1 0x1 DUP2 PUSH1 0x0 ADD PUSH1 0x0 DUP3 DUP3 SLOAD ADD SWAP3 POP POP DUP2 SWAP1 SSTORE POP POP JUMP JUMPDEST PUSH2 0x214E DUP1 PUSH3 0xFE2 DUP4 CODECOPY ADD SWAP1 JUMP JUMPDEST DUP3 DUP1 SLOAD PUSH3 0x503 SWAP1 PUSH3 0xCE0 JUMP JUMPDEST SWAP1 PUSH1 0x0 MSTORE PUSH1 0x20 PUSH1 0x0 KECCAK256 SWAP1 PUSH1 0x1F ADD PUSH1 0x20 SWAP1 DIV DUP2 ADD SWAP3 DUP3 PUSH3 0x527 JUMPI PUSH1 0x0 DUP6 SSTORE PUSH3 0x573 JUMP JUMPDEST DUP3 PUSH1 0x1F LT PUSH3 0x542 JUMPI DUP1 MLOAD PUSH1 0xFF NOT AND DUP4 DUP1 ADD OR DUP6 SSTORE PUSH3 0x573 JUMP JUMPDEST DUP3 DUP1 ADD PUSH1 0x1 ADD DUP6 SSTORE DUP3 ISZERO PUSH3 0x573 JUMPI SWAP2 DUP3 ADD JUMPDEST DUP3 DUP2 GT ISZERO PUSH3 0x572 JUMPI DUP3 MLOAD DUP3 SSTORE SWAP2 PUSH1 0x20 ADD SWAP2 SWAP1 PUSH1 0x1 ADD SWAP1 PUSH3 0x555 JUMP JUMPDEST JUMPDEST POP SWAP1 POP PUSH3 0x582 SWAP2 SWAP1 PUSH3 0x586 JUMP JUMPDEST POP SWAP1 JUMP JUMPDEST JUMPDEST DUP1 DUP3 GT ISZERO PUSH3 0x5A1 JUMPI PUSH1 0x0 DUP2 PUSH1 0x0 SWAP1 SSTORE POP PUSH1 0x1 ADD PUSH3 0x587 JUMP JUMPDEST POP SWAP1 JUMP JUMPDEST PUSH1 0x0 PUSH1 0x40 MLOAD SWAP1 POP SWAP1 JUMP JUMPDEST PUSH1 0x0 DUP1 REVERT JUMPDEST PUSH1 0x0 DUP1 REVERT JUMPDEST PUSH1 0x0 DUP2 SWAP1 POP SWAP2 SWAP1 POP JUMP JUMPDEST PUSH3 0x5CE DUP2 PUSH3 0x5B9 JUMP JUMPDEST DUP2 EQ PUSH3 0x5DA JUMPI PUSH1 0x0 DUP1 REVERT JUMPDEST POP JUMP JUMPDEST PUSH1 0x0 DUP2 CALLDATALOAD SWAP1 POP PUSH3 0x5EE DUP2 PUSH3 0x5C3 JUMP JUMPDEST SWAP3 SWAP2 POP POP JUMP JUMPDEST PUSH1 0x0 PUSH1 0x20 DUP3 DUP5 SUB SLT ISZERO PUSH3 0x60D JUMPI PUSH3 0x60C PUSH3 0x5AF JUMP JUMPDEST JUMPDEST PUSH1 0x0 PUSH3 0x61D DUP5 DUP3 DUP6 ADD PUSH3 0x5DD JUMP JUMPDEST SWAP2 POP POP SWAP3 SWAP2 POP POP JUMP JUMPDEST PUSH3 0x631 DUP2 PUSH3 0x5B9 JUMP JUMPDEST DUP3 MSTORE POP POP JUMP JUMPDEST PUSH1 0x0 DUP2 MLOAD SWAP1 POP SWAP2 SWAP1 POP JUMP JUMPDEST PUSH1 0x0 DUP3 DUP3 MSTORE PUSH1 0x20 DUP3 ADD SWAP1 POP SWAP3 SWAP2 POP POP JUMP JUMPDEST PUSH1 0x0 JUMPDEST DUP4 DUP2 LT ISZERO PUSH3 0x673 JUMPI DUP1 DUP3 ADD MLOAD DUP2 DUP5 ADD MSTORE PUSH1 0x20 DUP2 ADD SWAP1 POP PUSH3 0x656 JUMP JUMPDEST DUP4 DUP2 GT ISZERO PUSH3 0x683 JUMPI PUSH1 0x0 DUP5 DUP5 ADD MSTORE JUMPDEST POP POP POP POP JUMP JUMPDEST PUSH1 0x0 PUSH1 0x1F NOT PUSH1 0x1F DUP4 ADD AND SWAP1 POP SWAP2 SWAP1 POP JUMP JUMPDEST PUSH1 0x0 PUSH3 0x6A7 DUP3 PUSH3 0x637 JUMP JUMPDEST PUSH3 0x6B3 DUP2 DUP6 PUSH3 0x642 JUMP JUMPDEST SWAP4 POP PUSH3 0x6C5 DUP2 DUP6 PUSH1 0x20 DUP7 ADD PUSH3 0x653 JUMP JUMPDEST PUSH3 0x6D0 DUP2 PUSH3 0x689 JUMP JUMPDEST DUP5 ADD SWAP2 POP POP SWAP3 SWAP2 POP POP JUMP JUMPDEST PUSH1 0x0 PUSH20 0xFFFFFFFFFFFFFFFFFFFFFFFFFFFFFFFFFFFFFFFF DUP3 AND SWAP1 POP SWAP2 SWAP1 POP JUMP JUMPDEST PUSH1 0x0 DUP2 SWAP1 POP SWAP2 SWAP1 POP JUMP JUMPDEST PUSH1 0x0 PUSH3 0x726 PUSH3 0x720 PUSH3 0x71A DUP5 PUSH3 0x6DB JUMP JUMPDEST PUSH3 0x6FB JUMP JUMPDEST PUSH3 0x6DB JUMP JUMPDEST SWAP1 POP SWAP2 SWAP1 POP JUMP JUMPDEST PUSH1 0x0 PUSH3 0x73A DUP3 PUSH3 0x705 JUMP JUMPDEST SWAP1 POP SWAP2 SWAP1 POP JUMP JUMPDEST PUSH1 0x0 PUSH3 0x74E DUP3 PUSH3 0x72D JUMP JUMPDEST SWAP1 POP SWAP2 SWAP1 POP JUMP JUMPDEST PUSH3 0x760 DUP2 PUSH3 0x741 JUMP JUMPDEST DUP3 MSTORE POP POP JUMP JUMPDEST PUSH1 0x0 PUSH1 0x60 DUP3 ADD SWAP1 POP PUSH3 0x77D PUSH1 0x0 DUP4 ADD DUP7 PUSH3 0x626 JUMP JUMPDEST DUP2 DUP2 SUB PUSH1 0x20 DUP4 ADD MSTORE PUSH3 0x791 DUP2 DUP6 PUSH3 0x69A JUMP JUMPDEST SWAP1 POP PUSH3 0x7A2 PUSH1 0x40 DUP4 ADD DUP5 PUSH3 0x755 JUMP JUMPDEST SWAP5 SWAP4 POP POP POP POP JUMP JUMPDEST PUSH1 0x0 DUP1 REVERT JUMPDEST PUSH1 0x0 DUP1 REVERT JUMPDEST PUSH32 0x4E487B7100000000000000000000000000000000000000000000000000000000 PUSH1 0x0 MSTORE PUSH1 0x41 PUSH1 0x4 MSTORE PUSH1 0x24 PUSH1 0x0 REVERT JUMPDEST PUSH3 0x7EE DUP3 PUSH3 0x689 JUMP JUMPDEST DUP2 ADD DUP2 DUP2 LT PUSH8 0xFFFFFFFFFFFFFFFF DUP3 GT OR ISZERO PUSH3 0x810 JUMPI PUSH3 0x80F PUSH3 0x7B4 JUMP JUMPDEST JUMPDEST DUP1 PUSH1 0x40 MSTORE POP POP POP JUMP JUMPDEST PUSH1 0x0 PUSH3 0x825 PUSH3 0x5A5 JUMP JUMPDEST SWAP1 POP PUSH3 0x833 DUP3 DUP3 PUSH3 0x7E3 JUMP JUMPDEST SWAP2 SWAP1 POP JUMP JUMPDEST PUSH1 0x0 PUSH8 0xFFFFFFFFFFFFFFFF DUP3 GT ISZERO PUSH3 0x856 JUMPI PUSH3 0x855 PUSH3 0x7B4 JUMP JUMPDEST JUMPDEST PUSH3 0x861 DUP3 PUSH3 0x689 JUMP JUMPDEST SWAP1 POP PUSH1 0x20 DUP2 ADD SWAP1 POP SWAP2 SWAP1 POP JUMP JUMPDEST DUP3 DUP2 DUP4 CALLDATACOPY PUSH1 0x0 DUP4 DUP4 ADD MSTORE POP POP POP JUMP JUMPDEST PUSH1 0x0 PUSH3 0x894 PUSH3 0x88E DUP5 PUSH3 0x838 JUMP JUMPDEST PUSH3 0x819 JUMP JUMPDEST SWAP1 POP DUP3 DUP2 MSTORE PUSH1 0x20 DUP2 ADD DUP5 DUP5 DUP5 ADD GT ISZERO PUSH3 0x8B3 JUMPI PUSH3 0x8B2 PUSH3 0x7AF JUMP JUMPDEST JUMPDEST PUSH3 0x8C0 DUP5 DUP3 DUP6 PUSH3 0x86E JUMP JUMPDEST POP SWAP4 SWAP3 POP POP POP JUMP JUMPDEST PUSH1 0x0 DUP3 PUSH1 0x1F DUP4 ADD SLT PUSH3 0x8E0 JUMPI PUSH3 0x8DF PUSH3 0x7AA JUMP JUMPDEST JUMPDEST DUP2 CALLDATALOAD PUSH3 0x8F2 DUP5 DUP3 PUSH1 0x20 DUP7 ADD PUSH3 0x87D JUMP JUMPDEST SWAP2 POP POP SWAP3 SWAP2 POP POP JUMP JUMPDEST PUSH1 0x0 PUSH8 0xFFFFFFFFFFFFFFFF DUP3 GT ISZERO PUSH3 0x919 JUMPI PUSH3 0x918 PUSH3 0x7B4 JUMP JUMPDEST JUMPDEST PUSH1 0x20 DUP3 MUL SWAP1 POP PUSH1 0x20 DUP2 ADD SWAP1 POP SWAP2 SWAP1 POP JUMP JUMPDEST PUSH1 0x0 DUP1 REVERT JUMPDEST PUSH1 0x0 PUSH3 0x93C DUP3 PUSH3 0x6DB JUMP JUMPDEST SWAP1 POP SWAP2 SWAP1 POP JUMP JUMPDEST PUSH3 0x94E DUP2 PUSH3 0x92F JUMP JUMPDEST DUP2 EQ PUSH3 0x95A JUMPI PUSH1 0x0 DUP1 REVERT JUMPDEST POP JUMP JUMPDEST PUSH1 0x0 DUP2 CALLDATALOAD SWAP1 POP PUSH3 0x96E DUP2 PUSH3 0x943 JUMP JUMPDEST SWAP3 SWAP2 POP POP JUMP JUMPDEST PUSH1 0x0 PUSH3 0x98B PUSH3 0x985 DUP5 PUSH3 0x8FB JUMP JUMPDEST PUSH3 0x819 JUMP JUMPDEST SWAP1 POP DUP1 DUP4 DUP3 MSTORE PUSH1 0x20 DUP3 ADD SWAP1 POP PUSH1 0x20 DUP5 MUL DUP4 ADD DUP6 DUP2 GT ISZERO PUSH3 0x9B1 JUMPI PUSH3 0x9B0 PUSH3 0x92A JUMP JUMPDEST JUMPDEST DUP4 JUMPDEST DUP2 DUP2 LT ISZERO PUSH3 0x9DE JUMPI DUP1 PUSH3 0x9C9 DUP9 DUP3 PUSH3 0x95D JUMP JUMPDEST DUP5 MSTORE PUSH1 0x20 DUP5 ADD SWAP4 POP POP PUSH1 0x20 DUP2 ADD SWAP1 POP PUSH3 0x9B3 JUMP JUMPDEST POP POP POP SWAP4 SWAP3 POP POP POP JUMP JUMPDEST PUSH1 0x0 DUP3 PUSH1 0x1F DUP4 ADD SLT PUSH3 0xA00 JUMPI PUSH3 0x9FF PUSH3 0x7AA JUMP JUMPDEST JUMPDEST DUP2 CALLDATALOAD PUSH3 0xA12 DUP5 DUP3 PUSH1 0x20 DUP7 ADD PUSH3 0x974 JUMP JUMPDEST SWAP2 POP POP SWAP3 SWAP2 POP POP JUMP JUMPDEST PUSH1 0x0 PUSH8 0xFFFFFFFFFFFFFFFF DUP3 GT ISZERO PUSH3 0xA39 JUMPI PUSH3 0xA38 PUSH3 0x7B4 JUMP JUMPDEST JUMPDEST PUSH1 0x20 DUP3 MUL SWAP1 POP PUSH1 0x20 DUP2 ADD SWAP1 POP SWAP2 SWAP1 POP JUMP JUMPDEST PUSH1 0x0 PUSH3 0xA61 PUSH3 0xA5B DUP5 PUSH3 0xA1B JUMP JUMPDEST PUSH3 0x819 JUMP JUMPDEST SWAP1 POP DUP1 DUP4 DUP3 MSTORE PUSH1 0x20 DUP3 ADD SWAP1 POP PUSH1 0x20 DUP5 MUL DUP4 ADD DUP6 DUP2 GT ISZERO PUSH3 0xA87 JUMPI PUSH3 0xA86 PUSH3 0x92A JUMP JUMPDEST JUMPDEST DUP4 JUMPDEST DUP2 DUP2 LT ISZERO PUSH3 0xAB4 JUMPI DUP1 PUSH3 0xA9F DUP9 DUP3 PUSH3 0x5DD JUMP JUMPDEST DUP5 MSTORE PUSH1 0x20 DUP5 ADD SWAP4 POP POP PUSH1 0x20 DUP2 ADD SWAP1 POP PUSH3 0xA89 JUMP JUMPDEST POP POP POP SWAP4 SWAP3 POP POP POP JUMP JUMPDEST PUSH1 0x0 DUP3 PUSH1 0x1F DUP4 ADD SLT PUSH3 0xAD6 JUMPI PUSH3 0xAD5 PUSH3 0x7AA JUMP JUMPDEST JUMPDEST DUP2 CALLDATALOAD PUSH3 0xAE8 DUP5 DUP3 PUSH1 0x20 DUP7 ADD PUSH3 0xA4A JUMP JUMPDEST SWAP2 POP POP SWAP3 SWAP2 POP POP JUMP JUMPDEST PUSH1 0x0 DUP1 PUSH1 0x0 DUP1 PUSH1 0x0 DUP1 PUSH1 0x0 PUSH1 0xE0 DUP9 DUP11 SUB SLT ISZERO PUSH3 0xB13 JUMPI PUSH3 0xB12 PUSH3 0x5AF JUMP JUMPDEST JUMPDEST PUSH1 0x0 DUP9 ADD CALLDATALOAD PUSH8 0xFFFFFFFFFFFFFFFF DUP2 GT ISZERO PUSH3 0xB34 JUMPI PUSH3 0xB33 PUSH3 0x5B4 JUMP JUMPDEST JUMPDEST PUSH3 0xB42 DUP11 DUP3 DUP12 ADD PUSH3 0x8C8 JUMP JUMPDEST SWAP8 POP POP PUSH1 0x20 DUP9 ADD CALLDATALOAD PUSH8 0xFFFFFFFFFFFFFFFF DUP2 GT ISZERO PUSH3 0xB66 JUMPI PUSH3 0xB65 PUSH3 0x5B4 JUMP JUMPDEST JUMPDEST PUSH3 0xB74 DUP11 DUP3 DUP12 ADD PUSH3 0x8C8 JUMP JUMPDEST SWAP7 POP POP PUSH1 0x40 DUP9 ADD CALLDATALOAD PUSH8 0xFFFFFFFFFFFFFFFF DUP2 GT ISZERO PUSH3 0xB98 JUMPI PUSH3 0xB97 PUSH3 0x5B4 JUMP JUMPDEST JUMPDEST PUSH3 0xBA6 DUP11 DUP3 DUP12 ADD PUSH3 0x8C8 JUMP JUMPDEST SWAP6 POP POP PUSH1 0x60 PUSH3 0xBB9 DUP11 DUP3 DUP12 ADD PUSH3 0x5DD JUMP JUMPDEST SWAP5 POP POP PUSH1 0x80 PUSH3 0xBCC DUP11 DUP3 DUP12 ADD PUSH3 0x5DD JUMP JUMPDEST SWAP4 POP POP PUSH1 0xA0 DUP9 ADD CALLDATALOAD PUSH8 0xFFFFFFFFFFFFFFFF DUP2 GT ISZERO PUSH3 0xBF0 JUMPI PUSH3 0xBEF PUSH3 0x5B4 JUMP JUMPDEST JUMPDEST PUSH3 0xBFE DUP11 DUP3 DUP12 ADD PUSH3 0x9E8 JUMP JUMPDEST SWAP3 POP POP PUSH1 0xC0 DUP9 ADD CALLDATALOAD PUSH8 0xFFFFFFFFFFFFFFFF DUP2 GT ISZERO PUSH3 0xC22 JUMPI PUSH3 0xC21 PUSH3 0x5B4 JUMP JUMPDEST JUMPDEST PUSH3 0xC30 DUP11 DUP3 DUP12 ADD PUSH3 0xABE JUMP JUMPDEST SWAP2 POP POP SWAP3 SWAP6 SWAP9 SWAP2 SWAP5 SWAP8 POP SWAP3 SWAP6 POP JUMP JUMPDEST PUSH32 0x496E76616C69642050726F6A6563742049640000000000000000000000000000 PUSH1 0x0 DUP3 ADD MSTORE POP JUMP JUMPDEST PUSH1 0x0 PUSH3 0xC77 PUSH1 0x12 DUP4 PUSH3 0x642 JUMP JUMPDEST SWAP2 POP PUSH3 0xC84 DUP3 PUSH3 0xC3F JUMP JUMPDEST PUSH1 0x20 DUP3 ADD SWAP1 POP SWAP2 SWAP1 POP JUMP JUMPDEST PUSH1 0x0 PUSH1 0x20 DUP3 ADD SWAP1 POP DUP2 DUP2 SUB PUSH1 0x0 DUP4 ADD MSTORE PUSH3 0xCAA DUP2 PUSH3 0xC68 JUMP JUMPDEST SWAP1 POP SWAP2 SWAP1 POP JUMP JUMPDEST PUSH32 0x4E487B7100000000000000000000000000000000000000000000000000000000 PUSH1 0x0 MSTORE PUSH1 0x22 PUSH1 0x4 MSTORE PUSH1 0x24 PUSH1 0x0 REVERT JUMPDEST PUSH1 0x0 PUSH1 0x2 DUP3 DIV SWAP1 POP PUSH1 0x1 DUP3 AND DUP1 PUSH3 0xCF9 JUMPI PUSH1 0x7F DUP3 AND SWAP2 POP JUMPDEST PUSH1 0x20 DUP3 LT DUP2 EQ ISZERO PUSH3 0xD10 JUMPI PUSH3 0xD0F PUSH3 0xCB1 JUMP JUMPDEST JUMPDEST POP SWAP2 SWAP1 POP JUMP JUMPDEST PUSH32 0x496E73756666696369656E7420416D6F756E7400000000000000000000000000 PUSH1 0x0 DUP3 ADD MSTORE POP JUMP JUMPDEST PUSH1 0x0 PUSH3 0xD4E PUSH1 0x13 DUP4 PUSH3 0x642 JUMP JUMPDEST SWAP2 POP PUSH3 0xD5B DUP3 PUSH3 0xD16 JUMP JUMPDEST PUSH1 0x20 DUP3 ADD SWAP1 POP SWAP2 SWAP1 POP JUMP JUMPDEST PUSH1 0x0 PUSH1 0x20 DUP3 ADD SWAP1 POP DUP2 DUP2 SUB PUSH1 0x0 DUP4 ADD MSTORE PUSH3 0xD81 DUP2 PUSH3 0xD3F JUMP JUMPDEST SWAP1 POP SWAP2 SWAP1 POP JUMP JUMPDEST PUSH1 0x0 DUP2 MLOAD SWAP1 POP SWAP2 SWAP1 POP JUMP JUMPDEST PUSH1 0x0 DUP3 DUP3 MSTORE PUSH1 0x20 DUP3 ADD SWAP1 POP SWAP3 SWAP2 POP POP JUMP JUMPDEST PUSH1 0x0 DUP2 SWAP1 POP PUSH1 0x20 DUP3 ADD SWAP1 POP SWAP2 SWAP1 POP JUMP JUMPDEST PUSH3 0xDBF DUP2 PUSH3 0x92F JUMP JUMPDEST DUP3 MSTORE POP POP JUMP JUMPDEST PUSH1 0x0 PUSH3 0xDD3 DUP4 DUP4 PUSH3 0xDB4 JUMP JUMPDEST PUSH1 0x20 DUP4 ADD SWAP1 POP SWAP3 SWAP2 POP POP JUMP JUMPDEST PUSH1 0x0 PUSH1 0x20 DUP3 ADD SWAP1 POP SWAP2 SWAP1 POP JUMP JUMPDEST PUSH1 0x0 PUSH3 0xDF9 DUP3 PUSH3 0xD88 JUMP JUMPDEST PUSH3 0xE05 DUP2 DUP6 PUSH3 0xD93 JUMP JUMPDEST SWAP4 POP PUSH3 0xE12 DUP4 PUSH3 0xDA4 JUMP JUMPDEST DUP1 PUSH1 0x0 JUMPDEST DUP4 DUP2 LT ISZERO PUSH3 0xE49 JUMPI DUP2 MLOAD PUSH3 0xE2D DUP9 DUP3 PUSH3 0xDC5 JUMP JUMPDEST SWAP8 POP PUSH3 0xE3A DUP4 PUSH3 0xDDF JUMP JUMPDEST SWAP3 POP POP PUSH1 0x1 DUP2 ADD SWAP1 POP PUSH3 0xE16 JUMP JUMPDEST POP DUP6 SWAP4 POP POP POP POP SWAP3 SWAP2 POP POP JUMP JUMPDEST PUSH1 0x0 DUP2 MLOAD SWAP1 POP SWAP2 SWAP1 POP JUMP JUMPDEST PUSH1 0x0 DUP3 DUP3 MSTORE PUSH1 0x20 DUP3 ADD SWAP1 POP SWAP3 SWAP2 POP POP JUMP JUMPDEST PUSH1 0x0 DUP2 SWAP1 POP PUSH1 0x20 DUP3 ADD SWAP1 POP SWAP2 SWAP1 POP JUMP JUMPDEST PUSH3 0xE8D DUP2 PUSH3 0x5B9 JUMP JUMPDEST DUP3 MSTORE POP POP JUMP JUMPDEST PUSH1 0x0 PUSH3 0xEA1 DUP4 DUP4 PUSH3 0xE82 JUMP JUMPDEST PUSH1 0x20 DUP4 ADD SWAP1 POP SWAP3 SWAP2 POP POP JUMP JUMPDEST PUSH1 0x0 PUSH1 0x20 DUP3 ADD SWAP1 POP SWAP2 SWAP1 POP JUMP JUMPDEST PUSH1 0x0 PUSH3 0xEC7 DUP3 PUSH3 0xE56 JUMP JUMPDEST PUSH3 0xED3 DUP2 DUP6 PUSH3 0xE61 JUMP JUMPDEST SWAP4 POP PUSH3 0xEE0 DUP4 PUSH3 0xE72 JUMP JUMPDEST DUP1 PUSH1 0x0 JUMPDEST DUP4 DUP2 LT ISZERO PUSH3 0xF17 JUMPI DUP2 MLOAD PUSH3 0xEFB DUP9 DUP3 PUSH3 0xE93 JUMP JUMPDEST SWAP8 POP PUSH3 0xF08 DUP4 PUSH3 0xEAD JUMP JUMPDEST SWAP3 POP POP PUSH1 0x1 DUP2 ADD SWAP1 POP PUSH3 0xEE4 JUMP JUMPDEST POP DUP6 SWAP4 POP POP POP POP SWAP3 SWAP2 POP POP JUMP JUMPDEST PUSH1 0x0 PUSH1 0xC0 DUP3 ADD SWAP1 POP DUP2 DUP2 SUB PUSH1 0x0 DUP4 ADD MSTORE PUSH3 0xF40 DUP2 DUP10 PUSH3 0x69A JUMP JUMPDEST SWAP1 POP DUP2 DUP2 SUB PUSH1 0x20 DUP4 ADD MSTORE PUSH3 0xF56 DUP2 DUP9 PUSH3 0x69A JUMP JUMPDEST SWAP1 POP PUSH3 0xF67 PUSH1 0x40 DUP4 ADD DUP8 PUSH3 0x626 JUMP JUMPDEST PUSH3 0xF76 PUSH1 0x60 DUP4 ADD DUP7 PUSH3 0x626 JUMP JUMPDEST DUP2 DUP2 SUB PUSH1 0x80 DUP4 ADD MSTORE PUSH3 0xF8A DUP2 DUP6 PUSH3 0xDEC JUMP JUMPDEST SWAP1 POP DUP2 DUP2 SUB PUSH1 0xA0 DUP4 ADD MSTORE PUSH3 0xFA0 DUP2 DUP5 PUSH3 0xEBA JUMP JUMPDEST SWAP1 POP SWAP8 SWAP7 POP POP POP POP POP POP POP JUMP JUMPDEST PUSH1 0x0 PUSH1 0x40 DUP3 ADD SWAP1 POP DUP2 DUP2 SUB PUSH1 0x0 DUP4 ADD MSTORE PUSH3 0xFC9 DUP2 DUP6 PUSH3 0x69A JUMP JUMPDEST SWAP1 POP PUSH3 0xFDA PUSH1 0x20 DUP4 ADD DUP5 PUSH3 0x755 JUMP JUMPDEST SWAP4 SWAP3 POP POP POP JUMP INVALID PUSH1 0x80 PUSH1 0x40 MSTORE PUSH1 0x1 PUSH1 0xA PUSH1 0x0 PUSH2 0x100 EXP DUP2 SLOAD DUP2 PUSH1 0xFF MUL NOT AND SWAP1 DUP4 ISZERO ISZERO MUL OR SWAP1 SSTORE POP CALLVALUE DUP1 ISZERO PUSH3 0x2C JUMPI PUSH1 0x0 DUP1 REVERT JUMPDEST POP PUSH1 0x40 MLOAD PUSH3 0x214E CODESIZE SUB DUP1 PUSH3 0x214E DUP4 CODECOPY DUP2 DUP2 ADD PUSH1 0x40 MSTORE DUP2 ADD SWAP1 PUSH3 0x52 SWAP2 SWAP1 PUSH3 0x6A2 JUMP JUMPDEST DUP6 DUP6 DUP2 PUSH1 0x3 SWAP1 DUP1 MLOAD SWAP1 PUSH1 0x20 ADD SWAP1 PUSH3 0x6C SWAP3 SWAP2 SWAP1 PUSH3 0x123 JUMP JUMPDEST POP DUP1 PUSH1 0x4 SWAP1 DUP1 MLOAD SWAP1 PUSH1 0x20 ADD SWAP1 PUSH3 0x85 SWAP3 SWAP2 SWAP1 PUSH3 0x123 JUMP JUMPDEST POP POP POP PUSH1 0x9 DUP1 SLOAD SWAP1 POP PUSH1 0x8 DUP1 SLOAD SWAP1 POP EQ PUSH3 0xD7 JUMPI PUSH1 0x40 MLOAD PUSH32 0x8C379A000000000000000000000000000000000000000000000000000000000 DUP2 MSTORE PUSH1 0x4 ADD PUSH3 0xCE SWAP1 PUSH3 0x841 JUMP JUMPDEST PUSH1 0x40 MLOAD DUP1 SWAP2 SUB SWAP1 REVERT JUMPDEST DUP4 PUSH1 0x5 DUP2 SWAP1 SSTORE POP DUP3 PUSH1 0x7 DUP2 SWAP1 SSTORE POP DUP2 PUSH1 0x8 SWAP1 DUP1 MLOAD SWAP1 PUSH1 0x20 ADD SWAP1 PUSH3 0xFD SWAP3 SWAP2 SWAP1 PUSH3 0x1B4 JUMP JUMPDEST POP DUP1 PUSH1 0x9 SWAP1 DUP1 MLOAD SWAP1 PUSH1 0x20 ADD SWAP1 PUSH3 0x116 SWAP3 SWAP2 SWAP1 PUSH3 0x243 JUMP JUMPDEST POP POP POP POP POP POP POP PUSH3 0x8C8 JUMP JUMPDEST DUP3 DUP1 SLOAD PUSH3 0x131 SWAP1 PUSH3 0x892 JUMP JUMPDEST SWAP1 PUSH1 0x0 MSTORE PUSH1 0x20 PUSH1 0x0 KECCAK256 SWAP1 PUSH1 0x1F ADD PUSH1 0x20 SWAP1 DIV DUP2 ADD SWAP3 DUP3 PUSH3 0x155 JUMPI PUSH1 0x0 DUP6 SSTORE PUSH3 0x1A1 JUMP JUMPDEST DUP3 PUSH1 0x1F LT PUSH3 0x170 JUMPI DUP1 MLOAD PUSH1 0xFF NOT AND DUP4 DUP1 ADD OR DUP6 SSTORE PUSH3 0x1A1 JUMP JUMPDEST DUP3 DUP1 ADD PUSH1 0x1 ADD DUP6 SSTORE DUP3 ISZERO PUSH3 0x1A1 JUMPI SWAP2 DUP3 ADD JUMPDEST DUP3 DUP2 GT ISZERO PUSH3 0x1A0 JUMPI DUP3 MLOAD DUP3 SSTORE SWAP2 PUSH1 0x20 ADD SWAP2 SWAP1 PUSH1 0x1 ADD SWAP1 PUSH3 0x183 JUMP JUMPDEST JUMPDEST POP SWAP1 POP PUSH3 0x1B0 SWAP2 SWAP1 PUSH3 0x295 JUMP JUMPDEST POP SWAP1 JUMP JUMPDEST DUP3 DUP1 SLOAD DUP3 DUP3 SSTORE SWAP1 PUSH1 0x0 MSTORE PUSH1 0x20 PUSH1 0x0 KECCAK256 SWAP1 DUP2 ADD SWAP3 DUP3 ISZERO PUSH3 0x230 JUMPI SWAP2 PUSH1 0x20 MUL DUP3 ADD JUMPDEST DUP3 DUP2 GT ISZERO PUSH3 0x22F JUMPI DUP3 MLOAD DUP3 PUSH1 0x0 PUSH2 0x100 EXP DUP2 SLOAD DUP2 PUSH20 0xFFFFFFFFFFFFFFFFFFFFFFFFFFFFFFFFFFFFFFFF MUL NOT AND SWAP1 DUP4 PUSH20 0xFFFFFFFFFFFFFFFFFFFFFFFFFFFFFFFFFFFFFFFF AND MUL OR SWAP1 SSTORE POP SWAP2 PUSH1 0x20 ADD SWAP2 SWAP1 PUSH1 0x1 ADD SWAP1 PUSH3 0x1D5 JUMP JUMPDEST JUMPDEST POP SWAP1 POP PUSH3 0x23F SWAP2 SWAP1 PUSH3 0x295 JUMP JUMPDEST POP SWAP1 JUMP JUMPDEST DUP3 DUP1 SLOAD DUP3 DUP3 SSTORE SWAP1 PUSH1 0x0 MSTORE PUSH1 0x20 PUSH1 0x0 KECCAK256 SWAP1 DUP2 ADD SWAP3 DUP3 ISZERO PUSH3 0x282 JUMPI SWAP2 PUSH1 0x20 MUL DUP3 ADD JUMPDEST DUP3 DUP2 GT ISZERO PUSH3 0x281 JUMPI DUP3 MLOAD DUP3 SSTORE SWAP2 PUSH1 0x20 ADD SWAP2 SWAP1 PUSH1 0x1 ADD SWAP1 PUSH3 0x264 JUMP JUMPDEST JUMPDEST POP SWAP1 POP PUSH3 0x291 SWAP2 SWAP1 PUSH3 0x295 JUMP JUMPDEST POP SWAP1 JUMP JUMPDEST JUMPDEST DUP1 DUP3 GT ISZERO PUSH3 0x2B0 JUMPI PUSH1 0x0 DUP2 PUSH1 0x0 SWAP1 SSTORE POP PUSH1 0x1 ADD PUSH3 0x296 JUMP JUMPDEST POP SWAP1 JUMP JUMPDEST PUSH1 0x0 PUSH1 0x40 MLOAD SWAP1 POP SWAP1 JUMP JUMPDEST PUSH1 0x0 DUP1 REVERT JUMPDEST PUSH1 0x0 DUP1 REVERT JUMPDEST PUSH1 0x0 DUP1 REVERT JUMPDEST PUSH1 0x0 DUP1 REVERT JUMPDEST PUSH1 0x0 PUSH1 0x1F NOT PUSH1 0x1F DUP4 ADD AND SWAP1 POP SWAP2 SWAP1 POP JUMP JUMPDEST PUSH32 0x4E487B7100000000000000000000000000000000000000000000000000000000 PUSH1 0x0 MSTORE PUSH1 0x41 PUSH1 0x4 MSTORE PUSH1 0x24 PUSH1 0x0 REVERT JUMPDEST PUSH3 0x31D DUP3 PUSH3 0x2D2 JUMP JUMPDEST DUP2 ADD DUP2 DUP2 LT PUSH8 0xFFFFFFFFFFFFFFFF DUP3 GT OR ISZERO PUSH3 0x33F JUMPI PUSH3 0x33E PUSH3 0x2E3 JUMP JUMPDEST JUMPDEST DUP1 PUSH1 0x40 MSTORE POP POP POP JUMP JUMPDEST PUSH1 0x0 PUSH3 0x354 PUSH3 0x2B4 JUMP JUMPDEST SWAP1 POP PUSH3 0x362 DUP3 DUP3 PUSH3 0x312 JUMP JUMPDEST SWAP2 SWAP1 POP JUMP JUMPDEST PUSH1 0x0 PUSH8 0xFFFFFFFFFFFFFFFF DUP3 GT ISZERO PUSH3 0x385 JUMPI PUSH3 0x384 PUSH3 0x2E3 JUMP JUMPDEST JUMPDEST PUSH3 0x390 DUP3 PUSH3 0x2D2 JUMP JUMPDEST SWAP1 POP PUSH1 0x20 DUP2 ADD SWAP1 POP SWAP2 SWAP1 POP JUMP JUMPDEST PUSH1 0x0 JUMPDEST DUP4 DUP2 LT ISZERO PUSH3 0x3BD JUMPI DUP1 DUP3 ADD MLOAD DUP2 DUP5 ADD MSTORE PUSH1 0x20 DUP2 ADD SWAP1 POP PUSH3 0x3A0 JUMP JUMPDEST DUP4 DUP2 GT ISZERO PUSH3 0x3CD JUMPI PUSH1 0x0 DUP5 DUP5 ADD MSTORE JUMPDEST POP POP POP POP JUMP JUMPDEST PUSH1 0x0 PUSH3 0x3EA PUSH3 0x3E4 DUP5 PUSH3 0x367 JUMP JUMPDEST PUSH3 0x348 JUMP JUMPDEST SWAP1 POP DUP3 DUP2 MSTORE PUSH1 0x20 DUP2 ADD DUP5 DUP5 DUP5 ADD GT ISZERO PUSH3 0x409 JUMPI PUSH3 0x408 PUSH3 0x2CD JUMP JUMPDEST JUMPDEST PUSH3 0x416 DUP5 DUP3 DUP6 PUSH3 0x39D JUMP JUMPDEST POP SWAP4 SWAP3 POP POP POP JUMP JUMPDEST PUSH1 0x0 DUP3 PUSH1 0x1F DUP4 ADD SLT PUSH3 0x436 JUMPI PUSH3 0x435 PUSH3 0x2C8 JUMP JUMPDEST JUMPDEST DUP2 MLOAD PUSH3 0x448 DUP5 DUP3 PUSH1 0x20 DUP7 ADD PUSH3 0x3D3 JUMP JUMPDEST SWAP2 POP POP SWAP3 SWAP2 POP POP JUMP JUMPDEST PUSH1 0x0 DUP2 SWAP1 POP SWAP2 SWAP1 POP JUMP JUMPDEST PUSH3 0x466 DUP2 PUSH3 0x451 JUMP JUMPDEST DUP2 EQ PUSH3 0x472 JUMPI PUSH1 0x0 DUP1 REVERT JUMPDEST POP JUMP JUMPDEST PUSH1 0x0 DUP2 MLOAD SWAP1 POP PUSH3 0x486 DUP2 PUSH3 0x45B JUMP JUMPDEST SWAP3 SWAP2 POP POP JUMP JUMPDEST PUSH1 0x0 PUSH8 0xFFFFFFFFFFFFFFFF DUP3 GT ISZERO PUSH3 0x4AA JUMPI PUSH3 0x4A9 PUSH3 0x2E3 JUMP JUMPDEST JUMPDEST PUSH1 0x20 DUP3 MUL SWAP1 POP PUSH1 0x20 DUP2 ADD SWAP1 POP SWAP2 SWAP1 POP JUMP JUMPDEST PUSH1 0x0 DUP1 REVERT JUMPDEST PUSH1 0x0 PUSH20 0xFFFFFFFFFFFFFFFFFFFFFFFFFFFFFFFFFFFFFFFF DUP3 AND SWAP1 POP SWAP2 SWAP1 POP JUMP JUMPDEST PUSH1 0x0 PUSH3 0x4ED DUP3 PUSH3 0x4C0 JUMP JUMPDEST SWAP1 POP SWAP2 SWAP1 POP JUMP JUMPDEST PUSH3 0x4FF DUP2 PUSH3 0x4E0 JUMP JUMPDEST DUP2 EQ PUSH3 0x50B JUMPI PUSH1 0x0 DUP1 REVERT JUMPDEST POP JUMP JUMPDEST PUSH1 0x0 DUP2 MLOAD SWAP1 POP PUSH3 0x51F DUP2 PUSH3 0x4F4 JUMP JUMPDEST SWAP3 SWAP2 POP POP JUMP JUMPDEST PUSH1 0x0 PUSH3 0x53C PUSH3 0x536 DUP5 PUSH3 0x48C JUMP JUMPDEST PUSH3 0x348 JUMP JUMPDEST SWAP1 POP DUP1 DUP4 DUP3 MSTORE PUSH1 0x20 DUP3 ADD SWAP1 POP PUSH1 0x20 DUP5 MUL DUP4 ADD DUP6 DUP2 GT ISZERO PUSH3 0x562 JUMPI PUSH3 0x561 PUSH3 0x4BB JUMP JUMPDEST JUMPDEST DUP4 JUMPDEST DUP2 DUP2 LT ISZERO PUSH3 0x58F JUMPI DUP1 PUSH3 0x57A DUP9 DUP3 PUSH3 0x50E JUMP JUMPDEST DUP5 MSTORE PUSH1 0x20 DUP5 ADD SWAP4 POP POP PUSH1 0x20 DUP2 ADD SWAP1 POP PUSH3 0x564 JUMP JUMPDEST POP POP POP SWAP4 SWAP3 POP POP POP JUMP JUMPDEST PUSH1 0x0 DUP3 PUSH1 0x1F DUP4 ADD SLT PUSH3 0x5B1 JUMPI PUSH3 0x5B0 PUSH3 0x2C8 JUMP JUMPDEST JUMPDEST DUP2 MLOAD PUSH3 0x5C3 DUP5 DUP3 PUSH1 0x20 DUP7 ADD PUSH3 0x525 JUMP JUMPDEST SWAP2 POP POP SWAP3 SWAP2 POP POP JUMP JUMPDEST PUSH1 0x0 PUSH8 0xFFFFFFFFFFFFFFFF DUP3 GT ISZERO PUSH3 0x5EA JUMPI PUSH3 0x5E9 PUSH3 0x2E3 JUMP JUMPDEST JUMPDEST PUSH1 0x20 DUP3 MUL SWAP1 POP PUSH1 0x20 DUP2 ADD SWAP1 POP SWAP2 SWAP1 POP JUMP JUMPDEST PUSH1 0x0 PUSH3 0x612 PUSH3 0x60C DUP5 PUSH3 0x5CC JUMP JUMPDEST PUSH3 0x348 JUMP JUMPDEST SWAP1 POP DUP1 DUP4 DUP3 MSTORE PUSH1 0x20 DUP3 ADD SWAP1 POP PUSH1 0x20 DUP5 MUL DUP4 ADD DUP6 DUP2 GT ISZERO PUSH3 0x638 JUMPI PUSH3 0x637 PUSH3 0x4BB JUMP JUMPDEST JUMPDEST DUP4 JUMPDEST DUP2 DUP2 LT ISZERO PUSH3 0x665 JUMPI DUP1 PUSH3 0x650 DUP9 DUP3 PUSH3 0x475 JUMP JUMPDEST DUP5 MSTORE PUSH1 0x20 DUP5 ADD SWAP4 POP POP PUSH1 0x20 DUP2 ADD SWAP1 POP PUSH3 0x63A JUMP JUMPDEST POP POP POP SWAP4 SWAP3 POP POP POP JUMP JUMPDEST PUSH1 0x0 DUP3 PUSH1 0x1F DUP4 ADD SLT PUSH3 0x687 JUMPI PUSH3 0x686 PUSH3 0x2C8 JUMP JUMPDEST JUMPDEST DUP2 MLOAD PUSH3 0x699 DUP5 DUP3 PUSH1 0x20 DUP7 ADD PUSH3 0x5FB JUMP JUMPDEST SWAP2 POP POP SWAP3 SWAP2 POP POP JUMP JUMPDEST PUSH1 0x0 DUP1 PUSH1 0x0 DUP1 PUSH1 0x0 DUP1 PUSH1 0xC0 DUP8 DUP10 SUB SLT ISZERO PUSH3 0x6C2 JUMPI PUSH3 0x6C1 PUSH3 0x2BE JUMP JUMPDEST JUMPDEST PUSH1 0x0 DUP8 ADD MLOAD PUSH8 0xFFFFFFFFFFFFFFFF DUP2 GT ISZERO PUSH3 0x6E3 JUMPI PUSH3 0x6E2 PUSH3 0x2C3 JUMP JUMPDEST JUMPDEST PUSH3 0x6F1 DUP10 DUP3 DUP11 ADD PUSH3 0x41E JUMP JUMPDEST SWAP7 POP POP PUSH1 0x20 DUP8 ADD MLOAD PUSH8 0xFFFFFFFFFFFFFFFF DUP2 GT ISZERO PUSH3 0x715 JUMPI PUSH3 0x714 PUSH3 0x2C3 JUMP JUMPDEST JUMPDEST PUSH3 0x723 DUP10 DUP3 DUP11 ADD PUSH3 0x41E JUMP JUMPDEST SWAP6 POP POP PUSH1 0x40 PUSH3 0x736 DUP10 DUP3 DUP11 ADD PUSH3 0x475 JUMP JUMPDEST SWAP5 POP POP PUSH1 0x60 PUSH3 0x749 DUP10 DUP3 DUP11 ADD PUSH3 0x475 JUMP JUMPDEST SWAP4 POP POP PUSH1 0x80 DUP8 ADD MLOAD PUSH8 0xFFFFFFFFFFFFFFFF DUP2 GT ISZERO PUSH3 0x76D JUMPI PUSH3 0x76C PUSH3 0x2C3 JUMP JUMPDEST JUMPDEST PUSH3 0x77B DUP10 DUP3 DUP11 ADD PUSH3 0x599 JUMP JUMPDEST SWAP3 POP POP PUSH1 0xA0 DUP8 ADD MLOAD PUSH8 0xFFFFFFFFFFFFFFFF DUP2 GT ISZERO PUSH3 0x79F JUMPI PUSH3 0x79E PUSH3 0x2C3 JUMP JUMPDEST JUMPDEST PUSH3 0x7AD DUP10 DUP3 DUP11 ADD PUSH3 0x66F JUMP JUMPDEST SWAP2 POP POP SWAP3 SWAP6 POP SWAP3 SWAP6 POP SWAP3 SWAP6 JUMP JUMPDEST PUSH1 0x0 DUP3 DUP3 MSTORE PUSH1 0x20 DUP3 ADD SWAP1 POP SWAP3 SWAP2 POP POP JUMP JUMPDEST PUSH32 0x4C656E677468206F662063726561746F727320616E6420726F79616C74696573 PUSH1 0x0 DUP3 ADD MSTORE PUSH32 0x206172726179206D75737420626520657175616C000000000000000000000000 PUSH1 0x20 DUP3 ADD MSTORE POP JUMP JUMPDEST PUSH1 0x0 PUSH3 0x829 PUSH1 0x34 DUP4 PUSH3 0x7BA JUMP JUMPDEST SWAP2 POP PUSH3 0x836 DUP3 PUSH3 0x7CB JUMP JUMPDEST PUSH1 0x40 DUP3 ADD SWAP1 POP SWAP2 SWAP1 POP JUMP JUMPDEST PUSH1 0x0 PUSH1 0x20 DUP3 ADD SWAP1 POP DUP2 DUP2 SUB PUSH1 0x0 DUP4 ADD MSTORE PUSH3 0x85C DUP2 PUSH3 0x81A JUMP JUMPDEST SWAP1 POP SWAP2 SWAP1 POP JUMP JUMPDEST PUSH32 0x4E487B7100000000000000000000000000000000000000000000000000000000 PUSH1 0x0 MSTORE PUSH1 0x22 PUSH1 0x4 MSTORE PUSH1 0x24 PUSH1 0x0 REVERT JUMPDEST PUSH1 0x0 PUSH1 0x2 DUP3 DIV SWAP1 POP PUSH1 0x1 DUP3 AND DUP1 PUSH3 0x8AB JUMPI PUSH1 0x7F DUP3 AND SWAP2 POP JUMPDEST PUSH1 0x20 DUP3 LT DUP2 EQ ISZERO PUSH3 0x8C2 JUMPI PUSH3 0x8C1 PUSH3 0x863 JUMP JUMPDEST JUMPDEST POP SWAP2 SWAP1 POP JUMP JUMPDEST PUSH2 0x1876 DUP1 PUSH3 0x8D8 PUSH1 0x0 CODECOPY PUSH1 0x0 RETURN INVALID PUSH1 0x80 PUSH1 0x40 MSTORE PUSH1 0x4 CALLDATASIZE LT PUSH2 0xFE JUMPI PUSH1 0x0 CALLDATALOAD PUSH1 0xE0 SHR DUP1 PUSH4 0x70A08231 GT PUSH2 0x95 JUMPI DUP1 PUSH4 0xD082E381 GT PUSH2 0x64 JUMPI DUP1 PUSH4 0xD082E381 EQ PUSH2 0x33E JUMPI DUP1 PUSH4 0xD2D8CB67 EQ PUSH2 0x369 JUMPI DUP1 PUSH4 0xDD62ED3E EQ PUSH2 0x394 JUMPI DUP1 PUSH4 0xE6CD7AB6 EQ PUSH2 0x3D1 JUMPI DUP1 PUSH4 0xE7AA3AFC EQ PUSH2 0x40E JUMPI PUSH2 0xFE JUMP JUMPDEST DUP1 PUSH4 0x70A08231 EQ PUSH2 0x25C JUMPI DUP1 PUSH4 0x95D89B41 EQ PUSH2 0x299 JUMPI DUP1 PUSH4 0xA457C2D7 EQ PUSH2 0x2C4 JUMPI DUP1 PUSH4 0xA9059CBB EQ PUSH2 0x301 JUMPI PUSH2 0xFE JUMP JUMPDEST DUP1 PUSH4 0x23B872DD GT PUSH2 0xD1 JUMPI DUP1 PUSH4 0x23B872DD EQ PUSH2 0x1A0 JUMPI DUP1 PUSH4 0x313CE567 EQ PUSH2 0x1DD JUMPI DUP1 PUSH4 0x39509351 EQ PUSH2 0x208 JUMPI DUP1 PUSH4 0x5B980628 EQ PUSH2 0x245 JUMPI PUSH2 0xFE JUMP JUMPDEST DUP1 PUSH4 0x6FDDE03 EQ PUSH2 0x103 JUMPI DUP1 PUSH4 0x95EA7B3 EQ PUSH2 0x12E JUMPI DUP1 PUSH4 0x1249C58B EQ PUSH2 0x16B JUMPI DUP1 PUSH4 0x18160DDD EQ PUSH2 0x175 JUMPI JUMPDEST PUSH1 0x0 DUP1 REVERT JUMPDEST CALLVALUE DUP1 ISZERO PUSH2 0x10F JUMPI PUSH1 0x0 DUP1 REVERT JUMPDEST POP PUSH2 0x118 PUSH2 0x439 JUMP JUMPDEST PUSH1 0x40 MLOAD PUSH2 0x125 SWAP2 SWAP1 PUSH2 0xF72 JUMP JUMPDEST PUSH1 0x40 MLOAD DUP1 SWAP2 SUB SWAP1 RETURN JUMPDEST CALLVALUE DUP1 ISZERO PUSH2 0x13A JUMPI PUSH1 0x0 DUP1 REVERT JUMPDEST POP PUSH2 0x155 PUSH1 0x4 DUP1 CALLDATASIZE SUB DUP2 ADD SWAP1 PUSH2 0x150 SWAP2 SWAP1 PUSH2 0x102D JUMP JUMPDEST PUSH2 0x4CB JUMP JUMPDEST PUSH1 0x40 MLOAD PUSH2 0x162 SWAP2 SWAP1 PUSH2 0x1088 JUMP JUMPDEST PUSH1 0x40 MLOAD DUP1 SWAP2 SUB SWAP1 RETURN JUMPDEST PUSH2 0x173 PUSH2 0x4EE JUMP JUMPDEST STOP JUMPDEST CALLVALUE DUP1 ISZERO PUSH2 0x181 JUMPI PUSH1 0x0 DUP1 REVERT JUMPDEST POP PUSH2 0x18A PUSH2 0x609 JUMP JUMPDEST PUSH1 0x40 MLOAD PUSH2 0x197 SWAP2 SWAP1 PUSH2 0x10B2 JUMP JUMPDEST PUSH1 0x40 MLOAD DUP1 SWAP2 SUB SWAP1 RETURN JUMPDEST CALLVALUE DUP1 ISZERO PUSH2 0x1AC JUMPI PUSH1 0x0 DUP1 REVERT JUMPDEST POP PUSH2 0x1C7 PUSH1 0x4 DUP1 CALLDATASIZE SUB DUP2 ADD SWAP1 PUSH2 0x1C2 SWAP2 SWAP1 PUSH2 0x10CD JUMP JUMPDEST PUSH2 0x613 JUMP JUMPDEST PUSH1 0x40 MLOAD PUSH2 0x1D4 SWAP2 SWAP1 PUSH2 0x1088 JUMP JUMPDEST PUSH1 0x40 MLOAD DUP1 SWAP2 SUB SWAP1 RETURN JUMPDEST CALLVALUE DUP1 ISZERO PUSH2 0x1E9 JUMPI PUSH1 0x0 DUP1 REVERT JUMPDEST POP PUSH2 0x1F2 PUSH2 0x642 JUMP JUMPDEST PUSH1 0x40 MLOAD PUSH2 0x1FF SWAP2 SWAP1 PUSH2 0x113C JUMP JUMPDEST PUSH1 0x40 MLOAD DUP1 SWAP2 SUB SWAP1 RETURN JUMPDEST CALLVALUE DUP1 ISZERO PUSH2 0x214 JUMPI PUSH1 0x0 DUP1 REVERT JUMPDEST POP PUSH2 0x22F PUSH1 0x4 DUP1 CALLDATASIZE SUB DUP2 ADD SWAP1 PUSH2 0x22A SWAP2 SWAP1 PUSH2 0x102D JUMP JUMPDEST PUSH2 0x64B JUMP JUMPDEST PUSH1 0x40 MLOAD PUSH2 0x23C SWAP2 SWAP1 PUSH2 0x1088 JUMP JUMPDEST PUSH1 0x40 MLOAD DUP1 SWAP2 SUB SWAP1 RETURN JUMPDEST CALLVALUE DUP1 ISZERO PUSH2 0x251 JUMPI PUSH1 0x0 DUP1 REVERT JUMPDEST POP PUSH2 0x25A PUSH2 0x682 JUMP JUMPDEST STOP JUMPDEST CALLVALUE DUP1 ISZERO PUSH2 0x268 JUMPI PUSH1 0x0 DUP1 REVERT JUMPDEST POP PUSH2 0x283 PUSH1 0x4 DUP1 CALLDATASIZE SUB DUP2 ADD SWAP1 PUSH2 0x27E SWAP2 SWAP1 PUSH2 0x1157 JUMP JUMPDEST PUSH2 0x7D1 JUMP JUMPDEST PUSH1 0x40 MLOAD PUSH2 0x290 SWAP2 SWAP1 PUSH2 0x10B2 JUMP JUMPDEST PUSH1 0x40 MLOAD DUP1 SWAP2 SUB SWAP1 RETURN JUMPDEST CALLVALUE DUP1 ISZERO PUSH2 0x2A5 JUMPI PUSH1 0x0 DUP1 REVERT JUMPDEST POP PUSH2 0x2AE PUSH2 0x819 JUMP JUMPDEST PUSH1 0x40 MLOAD PUSH2 0x2BB SWAP2 SWAP1 PUSH2 0xF72 JUMP JUMPDEST PUSH1 0x40 MLOAD DUP1 SWAP2 SUB SWAP1 RETURN JUMPDEST CALLVALUE DUP1 ISZERO PUSH2 0x2D0 JUMPI PUSH1 0x0 DUP1 REVERT JUMPDEST POP PUSH2 0x2EB PUSH1 0x4 DUP1 CALLDATASIZE SUB DUP2 ADD SWAP1 PUSH2 0x2E6 SWAP2 SWAP1 PUSH2 0x102D JUMP JUMPDEST PUSH2 0x8AB JUMP JUMPDEST PUSH1 0x40 MLOAD PUSH2 0x2F8 SWAP2 SWAP1 PUSH2 0x1088 JUMP JUMPDEST PUSH1 0x40 MLOAD DUP1 SWAP2 SUB SWAP1 RETURN JUMPDEST CALLVALUE DUP1 ISZERO PUSH2 0x30D JUMPI PUSH1 0x0 DUP1 REVERT JUMPDEST POP PUSH2 0x328 PUSH1 0x4 DUP1 CALLDATASIZE SUB DUP2 ADD SWAP1 PUSH2 0x323 SWAP2 SWAP1 PUSH2 0x102D JUMP JUMPDEST PUSH2 0x922 JUMP JUMPDEST PUSH1 0x40 MLOAD PUSH2 0x335 SWAP2 SWAP1 PUSH2 0x1088 JUMP JUMPDEST PUSH1 0x40 MLOAD DUP1 SWAP2 SUB SWAP1 RETURN JUMPDEST CALLVALUE DUP1 ISZERO PUSH2 0x34A JUMPI PUSH1 0x0 DUP1 REVERT JUMPDEST POP PUSH2 0x353 PUSH2 0x945 JUMP JUMPDEST PUSH1 0x40 MLOAD PUSH2 0x360 SWAP2 SWAP1 PUSH2 0x10B2 JUMP JUMPDEST PUSH1 0x40 MLOAD DUP1 SWAP2 SUB SWAP1 RETURN JUMPDEST CALLVALUE DUP1 ISZERO PUSH2 0x375 JUMPI PUSH1 0x0 DUP1 REVERT JUMPDEST POP PUSH2 0x37E PUSH2 0x94B JUMP JUMPDEST PUSH1 0x40 MLOAD PUSH2 0x38B SWAP2 SWAP1 PUSH2 0x10B2 JUMP JUMPDEST PUSH1 0x40 MLOAD DUP1 SWAP2 SUB SWAP1 RETURN JUMPDEST CALLVALUE DUP1 ISZERO PUSH2 0x3A0 JUMPI PUSH1 0x0 DUP1 REVERT JUMPDEST POP PUSH2 0x3BB PUSH1 0x4 DUP1 CALLDATASIZE SUB DUP2 ADD SWAP1 PUSH2 0x3B6 SWAP2 SWAP1 PUSH2 0x1184 JUMP JUMPDEST PUSH2 0x951 JUMP JUMPDEST PUSH1 0x40 MLOAD PUSH2 0x3C8 SWAP2 SWAP1 PUSH2 0x10B2 JUMP JUMPDEST PUSH1 0x40 MLOAD DUP1 SWAP2 SUB SWAP1 RETURN JUMPDEST CALLVALUE DUP1 ISZERO PUSH2 0x3DD JUMPI PUSH1 0x0 DUP1 REVERT JUMPDEST POP PUSH2 0x3F8 PUSH1 0x4 DUP1 CALLDATASIZE SUB DUP2 ADD SWAP1 PUSH2 0x3F3 SWAP2 SWAP1 PUSH2 0x1157 JUMP JUMPDEST PUSH2 0x9D8 JUMP JUMPDEST PUSH1 0x40 MLOAD PUSH2 0x405 SWAP2 SWAP1 PUSH2 0x10B2 JUMP JUMPDEST PUSH1 0x40 MLOAD DUP1 SWAP2 SUB SWAP1 RETURN JUMPDEST CALLVALUE DUP1 ISZERO PUSH2 0x41A JUMPI PUSH1 0x0 DUP1 REVERT JUMPDEST POP PUSH2 0x423 PUSH2 0x9F0 JUMP JUMPDEST PUSH1 0x40 MLOAD PUSH2 0x430 SWAP2 SWAP1 PUSH2 0x1088 JUMP JUMPDEST PUSH1 0x40 MLOAD DUP1 SWAP2 SUB SWAP1 RETURN JUMPDEST PUSH1 0x60 PUSH1 0x3 DUP1 SLOAD PUSH2 0x448 SWAP1 PUSH2 0x11F3 JUMP JUMPDEST DUP1 PUSH1 0x1F ADD PUSH1 0x20 DUP1 SWAP2 DIV MUL PUSH1 0x20 ADD PUSH1 0x40 MLOAD SWAP1 DUP2 ADD PUSH1 0x40 MSTORE DUP1 SWAP3 SWAP2 SWAP1 DUP2 DUP2 MSTORE PUSH1 0x20 ADD DUP3 DUP1 SLOAD PUSH2 0x474 SWAP1 PUSH2 0x11F3 JUMP JUMPDEST DUP1 ISZERO PUSH2 0x4C1 JUMPI DUP1 PUSH1 0x1F LT PUSH2 0x496 JUMPI PUSH2 0x100 DUP1 DUP4 SLOAD DIV MUL DUP4 MSTORE SWAP2 PUSH1 0x20 ADD SWAP2 PUSH2 0x4C1 JUMP JUMPDEST DUP3 ADD SWAP2 SWAP1 PUSH1 0x0 MSTORE PUSH1 0x20 PUSH1 0x0 KECCAK256 SWAP1 JUMPDEST DUP2 SLOAD DUP2 MSTORE SWAP1 PUSH1 0x1 ADD SWAP1 PUSH1 0x20 ADD DUP1 DUP4 GT PUSH2 0x4A4 JUMPI DUP3 SWAP1 SUB PUSH1 0x1F AND DUP3 ADD SWAP2 JUMPDEST POP POP POP POP POP SWAP1 POP SWAP1 JUMP JUMPDEST PUSH1 0x0 DUP1 PUSH2 0x4D6 PUSH2 0xA07 JUMP JUMPDEST SWAP1 POP PUSH2 0x4E3 DUP2 DUP6 DUP6 PUSH2 0xA0F JUMP JUMPDEST PUSH1 0x1 SWAP2 POP POP SWAP3 SWAP2 POP POP JUMP JUMPDEST PUSH1 0x7 SLOAD CALLVALUE LT ISZERO PUSH2 0x533 JUMPI PUSH1 0x40 MLOAD PUSH32 0x8C379A000000000000000000000000000000000000000000000000000000000 DUP2 MSTORE PUSH1 0x4 ADD PUSH2 0x52A SWAP1 PUSH2 0x1271 JUMP JUMPDEST PUSH1 0x40 MLOAD DUP1 SWAP2 SUB SWAP1 REVERT JUMPDEST PUSH1 0x5 SLOAD PUSH1 0x6 SLOAD LT PUSH2 0x579 JUMPI PUSH1 0x40 MLOAD PUSH32 0x8C379A000000000000000000000000000000000000000000000000000000000 DUP2 MSTORE PUSH1 0x4 ADD PUSH2 0x570 SWAP1 PUSH2 0x12DD JUMP JUMPDEST PUSH1 0x40 MLOAD DUP1 SWAP2 SUB SWAP1 REVERT JUMPDEST PUSH1 0x0 PUSH2 0x584 CALLER PUSH2 0x7D1 JUMP JUMPDEST EQ PUSH2 0x5C4 JUMPI PUSH1 0x40 MLOAD PUSH32 0x8C379A000000000000000000000000000000000000000000000000000000000 DUP2 MSTORE PUSH1 0x4 ADD PUSH2 0x5BB SWAP1 PUSH2 0x136F JUMP JUMPDEST PUSH1 0x40 MLOAD DUP1 SWAP2 SUB SWAP1 REVERT JUMPDEST PUSH2 0x5CF CALLER PUSH1 0x1 PUSH2 0xBDA JUMP JUMPDEST PUSH2 0x5D8 CALLVALUE PUSH2 0xD31 JUMP JUMPDEST PUSH1 0x6 PUSH1 0x0 DUP2 SLOAD DUP1 SWAP3 SWAP2 SWAP1 PUSH2 0x5EB SWAP1 PUSH2 0x13BE JUMP JUMPDEST SWAP2 SWAP1 POP SSTORE POP PUSH1 0x5 SLOAD PUSH1 0x6 SLOAD EQ ISZERO PUSH2 0x607 JUMPI PUSH2 0x606 PUSH1 0x0 PUSH2 0xE21 JUMP JUMPDEST JUMPDEST JUMP JUMPDEST PUSH1 0x0 PUSH1 0x2 SLOAD SWAP1 POP SWAP1 JUMP JUMPDEST PUSH1 0x0 DUP1 PUSH2 0x61E PUSH2 0xA07 JUMP JUMPDEST SWAP1 POP PUSH2 0x62B DUP6 DUP3 DUP6 PUSH2 0xE3E JUMP JUMPDEST PUSH2 0x636 DUP6 DUP6 DUP6 PUSH2 0xECA JUMP JUMPDEST PUSH1 0x1 SWAP2 POP POP SWAP4 SWAP3 POP POP POP JUMP JUMPDEST PUSH1 0x0 PUSH1 0x12 SWAP1 POP SWAP1 JUMP JUMPDEST PUSH1 0x0 DUP1 PUSH2 0x656 PUSH2 0xA07 JUMP JUMPDEST SWAP1 POP PUSH2 0x677 DUP2 DUP6 DUP6 PUSH2 0x668 DUP6 DUP10 PUSH2 0x951 JUMP JUMPDEST PUSH2 0x672 SWAP2 SWAP1 PUSH2 0x1407 JUMP JUMPDEST PUSH2 0xA0F JUMP JUMPDEST PUSH1 0x1 SWAP2 POP POP SWAP3 SWAP2 POP POP JUMP JUMPDEST PUSH1 0x0 PUSH1 0xB PUSH1 0x0 CALLER PUSH20 0xFFFFFFFFFFFFFFFFFFFFFFFFFFFFFFFFFFFFFFFF AND PUSH20 0xFFFFFFFFFFFFFFFFFFFFFFFFFFFFFFFFFFFFFFFF AND DUP2 MSTORE PUSH1 0x20 ADD SWAP1 DUP2 MSTORE PUSH1 0x20 ADD PUSH1 0x0 KECCAK256 SLOAD GT PUSH2 0x704 JUMPI PUSH1 0x40 MLOAD PUSH32 0x8C379A000000000000000000000000000000000000000000000000000000000 DUP2 MSTORE PUSH1 0x4 ADD PUSH2 0x6FB SWAP1 PUSH2 0x14A9 JUMP JUMPDEST PUSH1 0x40 MLOAD DUP1 SWAP2 SUB SWAP1 REVERT JUMPDEST CALLER PUSH20 0xFFFFFFFFFFFFFFFFFFFFFFFFFFFFFFFFFFFFFFFF AND PUSH2 0x8FC PUSH1 0xB PUSH1 0x0 CALLER PUSH20 0xFFFFFFFFFFFFFFFFFFFFFFFFFFFFFFFFFFFFFFFF AND PUSH20 0xFFFFFFFFFFFFFFFFFFFFFFFFFFFFFFFFFFFFFFFF AND DUP2 MSTORE PUSH1 0x20 ADD SWAP1 DUP2 MSTORE PUSH1 0x20 ADD PUSH1 0x0 KECCAK256 SLOAD SWAP1 DUP2 ISZERO MUL SWAP1 PUSH1 0x40 MLOAD PUSH1 0x0 PUSH1 0x40 MLOAD DUP1 DUP4 SUB DUP2 DUP6 DUP9 DUP9 CALL SWAP4 POP POP POP POP ISZERO DUP1 ISZERO PUSH2 0x789 JUMPI RETURNDATASIZE PUSH1 0x0 DUP1 RETURNDATACOPY RETURNDATASIZE PUSH1 0x0 REVERT JUMPDEST POP PUSH1 0x0 PUSH1 0xB PUSH1 0x0 CALLER PUSH20 0xFFFFFFFFFFFFFFFFFFFFFFFFFFFFFFFFFFFFFFFF AND PUSH20 0xFFFFFFFFFFFFFFFFFFFFFFFFFFFFFFFFFFFFFFFF AND DUP2 MSTORE PUSH1 0x20 ADD SWAP1 DUP2 MSTORE PUSH1 0x20 ADD PUSH1 0x0 KECCAK256 DUP2 SWAP1 SSTORE POP JUMP JUMPDEST PUSH1 0x0 DUP1 PUSH1 0x0 DUP4 PUSH20 0xFFFFFFFFFFFFFFFFFFFFFFFFFFFFFFFFFFFFFFFF AND PUSH20 0xFFFFFFFFFFFFFFFFFFFFFFFFFFFFFFFFFFFFFFFF AND DUP2 MSTORE PUSH1 0x20 ADD SWAP1 DUP2 MSTORE PUSH1 0x20 ADD PUSH1 0x0 KECCAK256 SLOAD SWAP1 POP SWAP2 SWAP1 POP JUMP JUMPDEST PUSH1 0x60 PUSH1 0x4 DUP1 SLOAD PUSH2 0x828 SWAP1 PUSH2 0x11F3 JUMP JUMPDEST DUP1 PUSH1 0x1F ADD PUSH1 0x20 DUP1 SWAP2 DIV MUL PUSH1 0x20 ADD PUSH1 0x40 MLOAD SWAP1 DUP2 ADD PUSH1 0x40 MSTORE DUP1 SWAP3 SWAP2 SWAP1 DUP2 DUP2 MSTORE PUSH1 0x20 ADD DUP3 DUP1 SLOAD PUSH2 0x854 SWAP1 PUSH2 0x11F3 JUMP JUMPDEST DUP1 ISZERO PUSH2 0x8A1 JUMPI DUP1 PUSH1 0x1F LT PUSH2 0x876 JUMPI PUSH2 0x100 DUP1 DUP4 SLOAD DIV MUL DUP4 MSTORE SWAP2 PUSH1 0x20 ADD SWAP2 PUSH2 0x8A1 JUMP JUMPDEST DUP3 ADD SWAP2 SWAP1 PUSH1 0x0 MSTORE PUSH1 0x20 PUSH1 0x0 KECCAK256 SWAP1 JUMPDEST DUP2 SLOAD DUP2 MSTORE SWAP1 PUSH1 0x1 ADD SWAP1 PUSH1 0x20 ADD DUP1 DUP4 GT PUSH2 0x884 JUMPI DUP3 SWAP1 SUB PUSH1 0x1F AND DUP3 ADD SWAP2 JUMPDEST POP POP POP POP POP SWAP1 POP SWAP1 JUMP JUMPDEST PUSH1 0x0 DUP1 PUSH2 0x8B6 PUSH2 0xA07 JUMP JUMPDEST SWAP1 POP PUSH1 0x0 PUSH2 0x8C4 DUP3 DUP7 PUSH2 0x951 JUMP JUMPDEST SWAP1 POP DUP4 DUP2 LT ISZERO PUSH2 0x909 JUMPI PUSH1 0x40 MLOAD PUSH32 0x8C379A000000000000000000000000000000000000000000000000000000000 DUP2 MSTORE PUSH1 0x4 ADD PUSH2 0x900 SWAP1 PUSH2 0x153B JUMP JUMPDEST PUSH1 0x40 MLOAD DUP1 SWAP2 SUB SWAP1 REVERT JUMPDEST PUSH2 0x916 DUP3 DUP7 DUP7 DUP5 SUB PUSH2 0xA0F JUMP JUMPDEST PUSH1 0x1 SWAP3 POP POP POP SWAP3 SWAP2 POP POP JUMP JUMPDEST PUSH1 0x0 DUP1 PUSH2 0x92D PUSH2 0xA07 JUMP JUMPDEST SWAP1 POP PUSH2 0x93A DUP2 DUP6 DUP6 PUSH2 0xECA JUMP JUMPDEST PUSH1 0x1 SWAP2 POP POP SWAP3 SWAP2 POP POP JUMP JUMPDEST PUSH1 0x6 SLOAD DUP2 JUMP JUMPDEST PUSH1 0x7 SLOAD DUP2 JUMP JUMPDEST PUSH1 0x0 PUSH1 0x1 PUSH1 0x0 DUP5 PUSH20 0xFFFFFFFFFFFFFFFFFFFFFFFFFFFFFFFFFFFFFFFF AND PUSH20 0xFFFFFFFFFFFFFFFFFFFFFFFFFFFFFFFFFFFFFFFF AND DUP2 MSTORE PUSH1 0x20 ADD SWAP1 DUP2 MSTORE PUSH1 0x20 ADD PUSH1 0x0 KECCAK256 PUSH1 0x0 DUP4 PUSH20 0xFFFFFFFFFFFFFFFFFFFFFFFFFFFFFFFFFFFFFFFF AND PUSH20 0xFFFFFFFFFFFFFFFFFFFFFFFFFFFFFFFFFFFFFFFF AND DUP2 MSTORE PUSH1 0x20 ADD SWAP1 DUP2 MSTORE PUSH1 0x20 ADD PUSH1 0x0 KECCAK256 SLOAD SWAP1 POP SWAP3 SWAP2 POP POP JUMP JUMPDEST PUSH1 0xB PUSH1 0x20 MSTORE DUP1 PUSH1 0x0 MSTORE PUSH1 0x40 PUSH1 0x0 KECCAK256 PUSH1 0x0 SWAP2 POP SWAP1 POP SLOAD DUP2 JUMP JUMPDEST PUSH1 0x0 PUSH1 0xA PUSH1 0x0 SWAP1 SLOAD SWAP1 PUSH2 0x100 EXP SWAP1 DIV PUSH1 0xFF AND SWAP1 POP SWAP1 JUMP JUMPDEST PUSH1 0x0 CALLER SWAP1 POP SWAP1 JUMP JUMPDEST PUSH1 0x0 PUSH20 0xFFFFFFFFFFFFFFFFFFFFFFFFFFFFFFFFFFFFFFFF AND DUP4 PUSH20 0xFFFFFFFFFFFFFFFFFFFFFFFFFFFFFFFFFFFFFFFF AND EQ ISZERO PUSH2 0xA7F JUMPI PUSH1 0x40 MLOAD PUSH32 0x8C379A000000000000000000000000000000000000000000000000000000000 DUP2 MSTORE PUSH1 0x4 ADD PUSH2 0xA76 SWAP1 PUSH2 0x15CD JUMP JUMPDEST PUSH1 0x40 MLOAD DUP1 SWAP2 SUB SWAP1 REVERT JUMPDEST PUSH1 0x0 PUSH20 0xFFFFFFFFFFFFFFFFFFFFFFFFFFFFFFFFFFFFFFFF AND DUP3 PUSH20 0xFFFFFFFFFFFFFFFFFFFFFFFFFFFFFFFFFFFFFFFF AND EQ ISZERO PUSH2 0xAEF JUMPI PUSH1 0x40 MLOAD PUSH32 0x8C379A000000000000000000000000000000000000000000000000000000000 DUP2 MSTORE PUSH1 0x4 ADD PUSH2 0xAE6 SWAP1 PUSH2 0x165F JUMP JUMPDEST PUSH1 0x40 MLOAD DUP1 SWAP2 SUB SWAP1 REVERT JUMPDEST DUP1 PUSH1 0x1 PUSH1 0x0 DUP6 PUSH20 0xFFFFFFFFFFFFFFFFFFFFFFFFFFFFFFFFFFFFFFFF AND PUSH20 0xFFFFFFFFFFFFFFFFFFFFFFFFFFFFFFFFFFFFFFFF AND DUP2 MSTORE PUSH1 0x20 ADD SWAP1 DUP2 MSTORE PUSH1 0x20 ADD PUSH1 0x0 KECCAK256 PUSH1 0x0 DUP5 PUSH20 0xFFFFFFFFFFFFFFFFFFFFFFFFFFFFFFFFFFFFFFFF AND PUSH20 0xFFFFFFFFFFFFFFFFFFFFFFFFFFFFFFFFFFFFFFFF AND DUP2 MSTORE PUSH1 0x20 ADD SWAP1 DUP2 MSTORE PUSH1 0x20 ADD PUSH1 0x0 KECCAK256 DUP2 SWAP1 SSTORE POP DUP2 PUSH20 0xFFFFFFFFFFFFFFFFFFFFFFFFFFFFFFFFFFFFFFFF AND DUP4 PUSH20 0xFFFFFFFFFFFFFFFFFFFFFFFFFFFFFFFFFFFFFFFF AND PUSH32 0x8C5BE1E5EBEC7D5BD14F71427D1E84F3DD0314C0F7B2291E5B200AC8C7C3B925 DUP4 PUSH1 0x40 MLOAD PUSH2 0xBCD SWAP2 SWAP1 PUSH2 0x10B2 JUMP JUMPDEST PUSH1 0x40 MLOAD DUP1 SWAP2 SUB SWAP1 LOG3 POP POP POP JUMP JUMPDEST PUSH1 0x0 PUSH20 0xFFFFFFFFFFFFFFFFFFFFFFFFFFFFFFFFFFFFFFFF AND DUP3 PUSH20 0xFFFFFFFFFFFFFFFFFFFFFFFFFFFFFFFFFFFFFFFF AND EQ ISZERO PUSH2 0xC4A JUMPI PUSH1 0x40 MLOAD PUSH32 0x8C379A000000000000000000000000000000000000000000000000000000000 DUP2 MSTORE PUSH1 0x4 ADD PUSH2 0xC41 SWAP1 PUSH2 0x16CB JUMP JUMPDEST PUSH1 0x40 MLOAD DUP1 SWAP2 SUB SWAP1 REVERT JUMPDEST PUSH2 0xC56 PUSH1 0x0 DUP4 DUP4 PUSH2 0xECF JUMP JUMPDEST DUP1 PUSH1 0x2 PUSH1 0x0 DUP3 DUP3 SLOAD PUSH2 0xC68 SWAP2 SWAP1 PUSH2 0x1407 JUMP JUMPDEST SWAP3 POP POP DUP2 SWAP1 SSTORE POP DUP1 PUSH1 0x0 DUP1 DUP5 PUSH20 0xFFFFFFFFFFFFFFFFFFFFFFFFFFFFFFFFFFFFFFFF AND PUSH20 0xFFFFFFFFFFFFFFFFFFFFFFFFFFFFFFFFFFFFFFFF AND DUP2 MSTORE PUSH1 0x20 ADD SWAP1 DUP2 MSTORE PUSH1 0x20 ADD PUSH1 0x0 KECCAK256 PUSH1 0x0 DUP3 DUP3 SLOAD ADD SWAP3 POP POP DUP2 SWAP1 SSTORE POP DUP2 PUSH20 0xFFFFFFFFFFFFFFFFFFFFFFFFFFFFFFFFFFFFFFFF AND PUSH1 0x0 PUSH20 0xFFFFFFFFFFFFFFFFFFFFFFFFFFFFFFFFFFFFFFFF AND PUSH32 0xDDF252AD1BE2C89B69C2B068FC378DAA952BA7F163C4A11628F55A4DF523B3EF DUP4 PUSH1 0x40 MLOAD PUSH2 0xD19 SWAP2 SWAP1 PUSH2 0x10B2 JUMP JUMPDEST PUSH1 0x40 MLOAD DUP1 SWAP2 SUB SWAP1 LOG3 PUSH2 0xD2D PUSH1 0x0 DUP4 DUP4 PUSH2 0xED4 JUMP JUMPDEST POP POP JUMP JUMPDEST PUSH1 0x0 JUMPDEST PUSH1 0x8 DUP1 SLOAD SWAP1 POP DUP2 LT ISZERO PUSH2 0xE1D JUMPI PUSH1 0x64 DUP3 PUSH1 0x9 DUP4 DUP2 SLOAD DUP2 LT PUSH2 0xD58 JUMPI PUSH2 0xD57 PUSH2 0x16EB JUMP JUMPDEST JUMPDEST SWAP1 PUSH1 0x0 MSTORE PUSH1 0x20 PUSH1 0x0 KECCAK256 ADD SLOAD PUSH2 0xD6D SWAP2 SWAP1 PUSH2 0x171A JUMP JUMPDEST PUSH2 0xD77 SWAP2 SWAP1 PUSH2 0x17A3 JUMP JUMPDEST PUSH1 0xB PUSH1 0x0 PUSH1 0x8 DUP5 DUP2 SLOAD DUP2 LT PUSH2 0xD8F JUMPI PUSH2 0xD8E PUSH2 0x16EB JUMP JUMPDEST JUMPDEST SWAP1 PUSH1 0x0 MSTORE PUSH1 0x20 PUSH1 0x0 KECCAK256 ADD PUSH1 0x0 SWAP1 SLOAD SWAP1 PUSH2 0x100 EXP SWAP1 DIV PUSH20 0xFFFFFFFFFFFFFFFFFFFFFFFFFFFFFFFFFFFFFFFF AND PUSH20 0xFFFFFFFFFFFFFFFFFFFFFFFFFFFFFFFFFFFFFFFF AND PUSH20 0xFFFFFFFFFFFFFFFFFFFFFFFFFFFFFFFFFFFFFFFF AND DUP2 MSTORE PUSH1 0x20 ADD SWAP1 DUP2 MSTORE PUSH1 0x20 ADD PUSH1 0x0 KECCAK256 PUSH1 0x0 DUP3 DUP3 SLOAD PUSH2 0xE03 SWAP2 SWAP1 PUSH2 0x1407 JUMP JUMPDEST SWAP3 POP POP DUP2 SWAP1 SSTORE POP DUP1 DUP1 PUSH2 0xE15 SWAP1 PUSH2 0x13BE JUMP JUMPDEST SWAP2 POP POP PUSH2 0xD34 JUMP JUMPDEST POP POP JUMP JUMPDEST DUP1 PUSH1 0xA PUSH1 0x0 PUSH2 0x100 EXP DUP2 SLOAD DUP2 PUSH1 0xFF MUL NOT AND SWAP1 DUP4 ISZERO ISZERO MUL OR SWAP1 SSTORE POP POP JUMP JUMPDEST PUSH1 0x0 PUSH2 0xE4A DUP5 DUP5 PUSH2 0x951 JUMP JUMPDEST SWAP1 POP PUSH32 0xFFFFFFFFFFFFFFFFFFFFFFFFFFFFFFFFFFFFFFFFFFFFFFFFFFFFFFFFFFFFFFFF DUP2 EQ PUSH2 0xEC4 JUMPI DUP2 DUP2 LT ISZERO PUSH2 0xEB6 JUMPI PUSH1 0x40 MLOAD PUSH32 0x8C379A000000000000000000000000000000000000000000000000000000000 DUP2 MSTORE PUSH1 0x4 ADD PUSH2 0xEAD SWAP1 PUSH2 0x1820 JUMP JUMPDEST PUSH1 0x40 MLOAD DUP1 SWAP2 SUB SWAP1 REVERT JUMPDEST PUSH2 0xEC3 DUP5 DUP5 DUP5 DUP5 SUB PUSH2 0xA0F JUMP JUMPDEST JUMPDEST POP POP POP POP JUMP JUMPDEST PUSH1 0x0 DUP1 REVERT JUMPDEST POP POP POP JUMP JUMPDEST POP POP POP JUMP JUMPDEST PUSH1 0x0 DUP2 MLOAD SWAP1 POP SWAP2 SWAP1 POP JUMP JUMPDEST PUSH1 0x0 DUP3 DUP3 MSTORE PUSH1 0x20 DUP3 ADD SWAP1 POP SWAP3 SWAP2 POP POP JUMP JUMPDEST PUSH1 0x0 JUMPDEST DUP4 DUP2 LT ISZERO PUSH2 0xF13 JUMPI DUP1 DUP3 ADD MLOAD DUP2 DUP5 ADD MSTORE PUSH1 0x20 DUP2 ADD SWAP1 POP PUSH2 0xEF8 JUMP JUMPDEST DUP4 DUP2 GT ISZERO PUSH2 0xF22 JUMPI PUSH1 0x0 DUP5 DUP5 ADD MSTORE JUMPDEST POP POP POP POP JUMP JUMPDEST PUSH1 0x0 PUSH1 0x1F NOT PUSH1 0x1F DUP4 ADD AND SWAP1 POP SWAP2 SWAP1 POP JUMP JUMPDEST PUSH1 0x0 PUSH2 0xF44 DUP3 PUSH2 0xED9 JUMP JUMPDEST PUSH2 0xF4E DUP2 DUP6 PUSH2 0xEE4 JUMP JUMPDEST SWAP4 POP PUSH2 0xF5E DUP2 DUP6 PUSH1 0x20 DUP7 ADD PUSH2 0xEF5 JUMP JUMPDEST PUSH2 0xF67 DUP2 PUSH2 0xF28 JUMP JUMPDEST DUP5 ADD SWAP2 POP POP SWAP3 SWAP2 POP POP JUMP JUMPDEST PUSH1 0x0 PUSH1 0x20 DUP3 ADD SWAP1 POP DUP2 DUP2 SUB PUSH1 0x0 DUP4 ADD MSTORE PUSH2 0xF8C DUP2 DUP5 PUSH2 0xF39 JUMP JUMPDEST SWAP1 POP SWAP3 SWAP2 POP POP JUMP JUMPDEST PUSH1 0x0 DUP1 REVERT JUMPDEST PUSH1 0x0 PUSH20 0xFFFFFFFFFFFFFFFFFFFFFFFFFFFFFFFFFFFFFFFF DUP3 AND SWAP1 POP SWAP2 SWAP1 POP JUMP JUMPDEST PUSH1 0x0 PUSH2 0xFC4 DUP3 PUSH2 0xF99 JUMP JUMPDEST SWAP1 POP SWAP2 SWAP1 POP JUMP JUMPDEST PUSH2 0xFD4 DUP2 PUSH2 0xFB9 JUMP JUMPDEST DUP2 EQ PUSH2 0xFDF JUMPI PUSH1 0x0 DUP1 REVERT JUMPDEST POP JUMP JUMPDEST PUSH1 0x0 DUP2 CALLDATALOAD SWAP1 POP PUSH2 0xFF1 DUP2 PUSH2 0xFCB JUMP JUMPDEST SWAP3 SWAP2 POP POP JUMP JUMPDEST PUSH1 0x0 DUP2 SWAP1 POP SWAP2 SWAP1 POP JUMP JUMPDEST PUSH2 0x100A DUP2 PUSH2 0xFF7 JUMP JUMPDEST DUP2 EQ PUSH2 0x1015 JUMPI PUSH1 0x0 DUP1 REVERT JUMPDEST POP JUMP JUMPDEST PUSH1 0x0 DUP2 CALLDATALOAD SWAP1 POP PUSH2 0x1027 DUP2 PUSH2 0x1001 JUMP JUMPDEST SWAP3 SWAP2 POP POP JUMP JUMPDEST PUSH1 0x0 DUP1 PUSH1 0x40 DUP4 DUP6 SUB SLT ISZERO PUSH2 0x1044 JUMPI PUSH2 0x1043 PUSH2 0xF94 JUMP JUMPDEST JUMPDEST PUSH1 0x0 PUSH2 0x1052 DUP6 DUP3 DUP7 ADD PUSH2 0xFE2 JUMP JUMPDEST SWAP3 POP POP PUSH1 0x20 PUSH2 0x1063 DUP6 DUP3 DUP7 ADD PUSH2 0x1018 JUMP JUMPDEST SWAP2 POP POP SWAP3 POP SWAP3 SWAP1 POP JUMP JUMPDEST PUSH1 0x0 DUP2 ISZERO ISZERO SWAP1 POP SWAP2 SWAP1 POP JUMP JUMPDEST PUSH2 0x1082 DUP2 PUSH2 0x106D JUMP JUMPDEST DUP3 MSTORE POP POP JUMP JUMPDEST PUSH1 0x0 PUSH1 0x20 DUP3 ADD SWAP1 POP PUSH2 0x109D PUSH1 0x0 DUP4 ADD DUP5 PUSH2 0x1079 JUMP JUMPDEST SWAP3 SWAP2 POP POP JUMP JUMPDEST PUSH2 0x10AC DUP2 PUSH2 0xFF7 JUMP JUMPDEST DUP3 MSTORE POP POP JUMP JUMPDEST PUSH1 0x0 PUSH1 0x20 DUP3 ADD SWAP1 POP PUSH2 0x10C7 PUSH1 0x0 DUP4 ADD DUP5 PUSH2 0x10A3 JUMP JUMPDEST SWAP3 SWAP2 POP POP JUMP JUMPDEST PUSH1 0x0 DUP1 PUSH1 0x0 PUSH1 0x60 DUP5 DUP7 SUB SLT ISZERO PUSH2 0x10E6 JUMPI PUSH2 0x10E5 PUSH2 0xF94 JUMP JUMPDEST JUMPDEST PUSH1 0x0 PUSH2 0x10F4 DUP7 DUP3 DUP8 ADD PUSH2 0xFE2 JUMP JUMPDEST SWAP4 POP POP PUSH1 0x20 PUSH2 0x1105 DUP7 DUP3 DUP8 ADD PUSH2 0xFE2 JUMP JUMPDEST SWAP3 POP POP PUSH1 0x40 PUSH2 0x1116 DUP7 DUP3 DUP8 ADD PUSH2 0x1018 JUMP JUMPDEST SWAP2 POP POP SWAP3 POP SWAP3 POP SWAP3 JUMP JUMPDEST PUSH1 0x0 PUSH1 0xFF DUP3 AND SWAP1 POP SWAP2 SWAP1 POP JUMP JUMPDEST PUSH2 0x1136 DUP2 PUSH2 0x1120 JUMP JUMPDEST DUP3 MSTORE POP POP JUMP JUMPDEST PUSH1 0x0 PUSH1 0x20 DUP3 ADD SWAP1 POP PUSH2 0x1151 PUSH1 0x0 DUP4 ADD DUP5 PUSH2 0x112D JUMP JUMPDEST SWAP3 SWAP2 POP POP JUMP JUMPDEST PUSH1 0x0 PUSH1 0x20 DUP3 DUP5 SUB SLT ISZERO PUSH2 0x116D JUMPI PUSH2 0x116C PUSH2 0xF94 JUMP JUMPDEST JUMPDEST PUSH1 0x0 PUSH2 0x117B DUP5 DUP3 DUP6 ADD PUSH2 0xFE2 JUMP JUMPDEST SWAP2 POP POP SWAP3 SWAP2 POP POP JUMP JUMPDEST PUSH1 0x0 DUP1 PUSH1 0x40 DUP4 DUP6 SUB SLT ISZERO PUSH2 0x119B JUMPI PUSH2 0x119A PUSH2 0xF94 JUMP JUMPDEST JUMPDEST PUSH1 0x0 PUSH2 0x11A9 DUP6 DUP3 DUP7 ADD PUSH2 0xFE2 JUMP JUMPDEST SWAP3 POP POP PUSH1 0x20 PUSH2 0x11BA DUP6 DUP3 DUP7 ADD PUSH2 0xFE2 JUMP JUMPDEST SWAP2 POP POP SWAP3 POP SWAP3 SWAP1 POP JUMP JUMPDEST PUSH32 0x4E487B7100000000000000000000000000000000000000000000000000000000 PUSH1 0x0 MSTORE PUSH1 0x22 PUSH1 0x4 MSTORE PUSH1 0x24 PUSH1 0x0 REVERT JUMPDEST PUSH1 0x0 PUSH1 0x2 DUP3 DIV SWAP1 POP PUSH1 0x1 DUP3 AND DUP1 PUSH2 0x120B JUMPI PUSH1 0x7F DUP3 AND SWAP2 POP JUMPDEST PUSH1 0x20 DUP3 LT DUP2 EQ ISZERO PUSH2 0x121F JUMPI PUSH2 0x121E PUSH2 0x11C4 JUMP JUMPDEST JUMPDEST POP SWAP2 SWAP1 POP JUMP JUMPDEST PUSH32 0x496E73756666696369656E7420416D6F756E7400000000000000000000000000 PUSH1 0x0 DUP3 ADD MSTORE POP JUMP JUMPDEST PUSH1 0x0 PUSH2 0x125B PUSH1 0x13 DUP4 PUSH2 0xEE4 JUMP JUMPDEST SWAP2 POP PUSH2 0x1266 DUP3 PUSH2 0x1225 JUMP JUMPDEST PUSH1 0x20 DUP3 ADD SWAP1 POP SWAP2 SWAP1 POP JUMP JUMPDEST PUSH1 0x0 PUSH1 0x20 DUP3 ADD SWAP1 POP DUP2 DUP2 SUB PUSH1 0x0 DUP4 ADD MSTORE PUSH2 0x128A DUP2 PUSH2 0x124E JUMP JUMPDEST SWAP1 POP SWAP2 SWAP1 POP JUMP JUMPDEST PUSH32 0x546F6B656E732061726520736F6C64206F757400000000000000000000000000 PUSH1 0x0 DUP3 ADD MSTORE POP JUMP JUMPDEST PUSH1 0x0 PUSH2 0x12C7 PUSH1 0x13 DUP4 PUSH2 0xEE4 JUMP JUMPDEST SWAP2 POP PUSH2 0x12D2 DUP3 PUSH2 0x1291 JUMP JUMPDEST PUSH1 0x20 DUP3 ADD SWAP1 POP SWAP2 SWAP1 POP JUMP JUMPDEST PUSH1 0x0 PUSH1 0x20 DUP3 ADD SWAP1 POP DUP2 DUP2 SUB PUSH1 0x0 DUP4 ADD MSTORE PUSH2 0x12F6 DUP2 PUSH2 0x12BA JUMP JUMPDEST SWAP1 POP SWAP2 SWAP1 POP JUMP JUMPDEST PUSH32 0x596F75206861766520616C726561647920626F75676874207468697320746F6B PUSH1 0x0 DUP3 ADD MSTORE PUSH32 0x656E000000000000000000000000000000000000000000000000000000000000 PUSH1 0x20 DUP3 ADD MSTORE POP JUMP JUMPDEST PUSH1 0x0 PUSH2 0x1359 PUSH1 0x22 DUP4 PUSH2 0xEE4 JUMP JUMPDEST SWAP2 POP PUSH2 0x1364 DUP3 PUSH2 0x12FD JUMP JUMPDEST PUSH1 0x40 DUP3 ADD SWAP1 POP SWAP2 SWAP1 POP JUMP JUMPDEST PUSH1 0x0 PUSH1 0x20 DUP3 ADD SWAP1 POP DUP2 DUP2 SUB PUSH1 0x0 DUP4 ADD MSTORE PUSH2 0x1388 DUP2 PUSH2 0x134C JUMP JUMPDEST SWAP1 POP SWAP2 SWAP1 POP JUMP JUMPDEST PUSH32 0x4E487B7100000000000000000000000000000000000000000000000000000000 PUSH1 0x0 MSTORE PUSH1 0x11 PUSH1 0x4 MSTORE PUSH1 0x24 PUSH1 0x0 REVERT JUMPDEST PUSH1 0x0 PUSH2 0x13C9 DUP3 PUSH2 0xFF7 JUMP JUMPDEST SWAP2 POP PUSH32 0xFFFFFFFFFFFFFFFFFFFFFFFFFFFFFFFFFFFFFFFFFFFFFFFFFFFFFFFFFFFFFFFF DUP3 EQ ISZERO PUSH2 0x13FC JUMPI PUSH2 0x13FB PUSH2 0x138F JUMP JUMPDEST JUMPDEST PUSH1 0x1 DUP3 ADD SWAP1 POP SWAP2 SWAP1 POP JUMP JUMPDEST PUSH1 0x0 PUSH2 0x1412 DUP3 PUSH2 0xFF7 JUMP JUMPDEST SWAP2 POP PUSH2 0x141D DUP4 PUSH2 0xFF7 JUMP JUMPDEST SWAP3 POP DUP3 PUSH32 0xFFFFFFFFFFFFFFFFFFFFFFFFFFFFFFFFFFFFFFFFFFFFFFFFFFFFFFFFFFFFFFFF SUB DUP3 GT ISZERO PUSH2 0x1452 JUMPI PUSH2 0x1451 PUSH2 0x138F JUMP JUMPDEST JUMPDEST DUP3 DUP3 ADD SWAP1 POP SWAP3 SWAP2 POP POP JUMP JUMPDEST PUSH32 0x596F75722062616C616E6365206973207A65726F000000000000000000000000 PUSH1 0x0 DUP3 ADD MSTORE POP JUMP JUMPDEST PUSH1 0x0 PUSH2 0x1493 PUSH1 0x14 DUP4 PUSH2 0xEE4 JUMP JUMPDEST SWAP2 POP PUSH2 0x149E DUP3 PUSH2 0x145D JUMP JUMPDEST PUSH1 0x20 DUP3 ADD SWAP1 POP SWAP2 SWAP1 POP JUMP JUMPDEST PUSH1 0x0 PUSH1 0x20 DUP3 ADD SWAP1 POP DUP2 DUP2 SUB PUSH1 0x0 DUP4 ADD MSTORE PUSH2 0x14C2 DUP2 PUSH2 0x1486 JUMP JUMPDEST SWAP1 POP SWAP2 SWAP1 POP JUMP JUMPDEST PUSH32 0x45524332303A2064656372656173656420616C6C6F77616E63652062656C6F77 PUSH1 0x0 DUP3 ADD MSTORE PUSH32 0x207A65726F000000000000000000000000000000000000000000000000000000 PUSH1 0x20 DUP3 ADD MSTORE POP JUMP JUMPDEST PUSH1 0x0 PUSH2 0x1525 PUSH1 0x25 DUP4 PUSH2 0xEE4 JUMP JUMPDEST SWAP2 POP PUSH2 0x1530 DUP3 PUSH2 0x14C9 JUMP JUMPDEST PUSH1 0x40 DUP3 ADD SWAP1 POP SWAP2 SWAP1 POP JUMP JUMPDEST PUSH1 0x0 PUSH1 0x20 DUP3 ADD SWAP1 POP DUP2 DUP2 SUB PUSH1 0x0 DUP4 ADD MSTORE PUSH2 0x1554 DUP2 PUSH2 0x1518 JUMP JUMPDEST SWAP1 POP SWAP2 SWAP1 POP JUMP JUMPDEST PUSH32 0x45524332303A20617070726F76652066726F6D20746865207A65726F20616464 PUSH1 0x0 DUP3 ADD MSTORE PUSH32 0x7265737300000000000000000000000000000000000000000000000000000000 PUSH1 0x20 DUP3 ADD MSTORE POP JUMP JUMPDEST PUSH1 0x0 PUSH2 0x15B7 PUSH1 0x24 DUP4 PUSH2 0xEE4 JUMP JUMPDEST SWAP2 POP PUSH2 0x15C2 DUP3 PUSH2 0x155B JUMP JUMPDEST PUSH1 0x40 DUP3 ADD SWAP1 POP SWAP2 SWAP1 POP JUMP JUMPDEST PUSH1 0x0 PUSH1 0x20 DUP3 ADD SWAP1 POP DUP2 DUP2 SUB PUSH1 0x0 DUP4 ADD MSTORE PUSH2 0x15E6 DUP2 PUSH2 0x15AA JUMP JUMPDEST SWAP1 POP SWAP2 SWAP1 POP JUMP JUMPDEST PUSH32 0x45524332303A20617070726F766520746F20746865207A65726F206164647265 PUSH1 0x0 DUP3 ADD MSTORE PUSH32 0x7373000000000000000000000000000000000000000000000000000000000000 PUSH1 0x20 DUP3 ADD MSTORE POP JUMP JUMPDEST PUSH1 0x0 PUSH2 0x1649 PUSH1 0x22 DUP4 PUSH2 0xEE4 JUMP JUMPDEST SWAP2 POP PUSH2 0x1654 DUP3 PUSH2 0x15ED JUMP JUMPDEST PUSH1 0x40 DUP3 ADD SWAP1 POP SWAP2 SWAP1 POP JUMP JUMPDEST PUSH1 0x0 PUSH1 0x20 DUP3 ADD SWAP1 POP DUP2 DUP2 SUB PUSH1 0x0 DUP4 ADD MSTORE PUSH2 0x1678 DUP2 PUSH2 0x163C JUMP JUMPDEST SWAP1 POP SWAP2 SWAP1 POP JUMP JUMPDEST PUSH32 0x45524332303A206D696E7420746F20746865207A65726F206164647265737300 PUSH1 0x0 DUP3 ADD MSTORE POP JUMP JUMPDEST PUSH1 0x0 PUSH2 0x16B5 PUSH1 0x1F DUP4 PUSH2 0xEE4 JUMP JUMPDEST SWAP2 POP PUSH2 0x16C0 DUP3 PUSH2 0x167F JUMP JUMPDEST PUSH1 0x20 DUP3 ADD SWAP1 POP SWAP2 SWAP1 POP JUMP JUMPDEST PUSH1 0x0 PUSH1 0x20 DUP3 ADD SWAP1 POP DUP2 DUP2 SUB PUSH1 0x0 DUP4 ADD MSTORE PUSH2 0x16E4 DUP2 PUSH2 0x16A8 JUMP JUMPDEST SWAP1 POP SWAP2 SWAP1 POP JUMP JUMPDEST PUSH32 0x4E487B7100000000000000000000000000000000000000000000000000000000 PUSH1 0x0 MSTORE PUSH1 0x32 PUSH1 0x4 MSTORE PUSH1 0x24 PUSH1 0x0 REVERT JUMPDEST PUSH1 0x0 PUSH2 0x1725 DUP3 PUSH2 0xFF7 JUMP JUMPDEST SWAP2 POP PUSH2 0x1730 DUP4 PUSH2 0xFF7 JUMP JUMPDEST SWAP3 POP DUP2 PUSH32 0xFFFFFFFFFFFFFFFFFFFFFFFFFFFFFFFFFFFFFFFFFFFFFFFFFFFFFFFFFFFFFFFF DIV DUP4 GT DUP3 ISZERO ISZERO AND ISZERO PUSH2 0x1769 JUMPI PUSH2 0x1768 PUSH2 0x138F JUMP JUMPDEST JUMPDEST DUP3 DUP3 MUL SWAP1 POP SWAP3 SWAP2 POP POP JUMP JUMPDEST PUSH32 0x4E487B7100000000000000000000000000000000000000000000000000000000 PUSH1 0x0 MSTORE PUSH1 0x12 PUSH1 0x4 MSTORE PUSH1 0x24 PUSH1 0x0 REVERT JUMPDEST PUSH1 0x0 PUSH2 0x17AE DUP3 PUSH2 0xFF7 JUMP JUMPDEST SWAP2 POP PUSH2 0x17B9 DUP4 PUSH2 0xFF7 JUMP JUMPDEST SWAP3 POP DUP3 PUSH2 0x17C9 JUMPI PUSH2 0x17C8 PUSH2 0x1774 JUMP JUMPDEST JUMPDEST DUP3 DUP3 DIV SWAP1 POP SWAP3 SWAP2 POP POP JUMP JUMPDEST PUSH32 0x45524332303A20696E73756666696369656E7420616C6C6F77616E6365000000 PUSH1 0x0 DUP3 ADD MSTORE POP JUMP JUMPDEST PUSH1 0x0 PUSH2 0x180A PUSH1 0x1D DUP4 PUSH2 0xEE4 JUMP JUMPDEST SWAP2 POP PUSH2 0x1815 DUP3 PUSH2 0x17D4 JUMP JUMPDEST PUSH1 0x20 DUP3 ADD SWAP1 POP SWAP2 SWAP1 POP JUMP JUMPDEST PUSH1 0x0 PUSH1 0x20 DUP3 ADD SWAP1 POP DUP2 DUP2 SUB PUSH1 0x0 DUP4 ADD MSTORE PUSH2 0x1839 DUP2 PUSH2 0x17FD JUMP JUMPDEST SWAP1 POP SWAP2 SWAP1 POP JUMP INVALID LOG2 PUSH5 0x6970667358 0x22 SLT KECCAK256 BYTE 0xEF 0x4C POP POP PUSH7 0x502527965AF519 0xC0 0x2E CALLDATALOAD 0xAD SUB 0x1E PUSH21 0x699B762EEFAF333EA1225D3364736F6C6343000809 STOP CALLER LOG2 PUSH5 0x6970667358 0x22 SLT KECCAK256 0x5E 0x23 PUSH16 0xD2EBF19B3A2933442D44812C2D6E2832 0xF6 LT PUSH20 0xF1F00D968DAB9051E9E964736F6C634300080900 CALLER "},"methodIdentifiers":{"buyProjectToken(uint256)":"8d4564f1","createProject(string,string,string,uint256,uint256,address[],uint256[])":"f789f6a6","getProjects()":"dcc60128","projectIdToDetails(uint256)":"8fe23a5d"}}}}}