{
  "_format": "hh-sol-artifact-1",
  "contractName": "Marketplace",
  "sourceName": "web3/contracts/Marketplace.sol",
  "abi": [
    {
      "inputs": [
        {
          "internalType": "uint256",
          "name": "_projectCreationFee",
          "type": "uint256"
        }
      ],
      "stateMutability": "nonpayable",
      "type": "constructor"
    },
    {
      "anonymous": false,
      "inputs": [
        {
          "indexed": true,
          "internalType": "uint256",
          "name": "projectId",
          "type": "uint256"
        },
        {
          "indexed": true,
          "internalType": "string",
          "name": "cid",
          "type": "string"
        },
        {
          "indexed": false,
          "internalType": "contract AccessToken",
          "name": "tokenAddress",
          "type": "address"
        }
      ],
      "name": "ProjectCreated",
      "type": "event"
    },
    {
      "inputs": [
        {
          "internalType": "uint256",
          "name": "_projectId",
          "type": "uint256"
        }
      ],
      "name": "buyProjectToken",
      "outputs": [],
      "stateMutability": "payable",
      "type": "function"
    },
    {
      "inputs": [
        {
          "internalType": "uint256",
          "name": "_projectId",
          "type": "uint256"
        }
      ],
      "name": "collectFunds",
      "outputs": [],
      "stateMutability": "nonpayable",
      "type": "function"
    },
    {
      "inputs": [
        {
          "internalType": "string",
          "name": "name",
          "type": "string"
        },
        {
          "internalType": "string",
          "name": "symbol",
          "type": "string"
        },
        {
          "internalType": "uint256",
          "name": "maxTokenSupply",
          "type": "uint256"
        },
        {
          "internalType": "uint256",
          "name": "tokenPrice",
          "type": "uint256"
        },
        {
          "internalType": "address[]",
          "name": "creators",
          "type": "address[]"
        },
        {
          "internalType": "uint256[]",
          "name": "shares",
          "type": "uint256[]"
        },
        {
          "internalType": "string",
          "name": "cid",
          "type": "string"
        }
      ],
      "name": "createProject",
      "outputs": [],
      "stateMutability": "payable",
      "type": "function"
    },
    {
      "inputs": [],
      "name": "getCurrentProjectCounter",
      "outputs": [
        {
          "internalType": "uint256",
          "name": "",
          "type": "uint256"
        }
      ],
      "stateMutability": "view",
      "type": "function"
    },
    {
      "inputs": [
        {
          "internalType": "uint256",
          "name": "_projectId",
          "type": "uint256"
        }
      ],
      "name": "getMyShareAmount",
      "outputs": [
        {
          "internalType": "uint256",
          "name": "",
          "type": "uint256"
        }
      ],
      "stateMutability": "view",
      "type": "function"
    },
    {
      "inputs": [],
      "name": "getProjectCreationFee",
      "outputs": [
        {
          "internalType": "uint256",
          "name": "",
          "type": "uint256"
        }
      ],
      "stateMutability": "view",
      "type": "function"
    },
    {
      "inputs": [
        {
          "internalType": "uint256",
          "name": "_projectId",
          "type": "uint256"
        }
      ],
      "name": "getProjectStatus",
      "outputs": [
        {
          "internalType": "bool",
          "name": "",
          "type": "bool"
        }
      ],
      "stateMutability": "view",
      "type": "function"
    },
    {
      "inputs": [],
      "name": "memo",
      "outputs": [
        {
          "internalType": "address payable",
          "name": "",
          "type": "address"
        }
      ],
      "stateMutability": "view",
      "type": "function"
    },
    {
      "inputs": [
        {
          "internalType": "uint256",
          "name": "",
          "type": "uint256"
        }
      ],
      "name": "projectIdToDetails",
      "outputs": [
        {
          "internalType": "uint256",
          "name": "projectId",
          "type": "uint256"
        },
        {
          "internalType": "string",
          "name": "cid",
          "type": "string"
        },
        {
          "internalType": "contract AccessToken",
          "name": "tokenAddress",
          "type": "address"
        }
      ],
      "stateMutability": "view",
      "type": "function"
    },
    {
      "inputs": [
        {
          "internalType": "uint256",
          "name": "_newFee",
          "type": "uint256"
        }
      ],
      "name": "updateProjectCreationFee",
      "outputs": [],
      "stateMutability": "nonpayable",
      "type": "function"
    }
  ],
  "bytecode": {
    "linkReferences": {},
    "object": "60806040523480156200001157600080fd5b50604051620043bd380380620043bd83398181016040528101906200003791906200010d565b60008110156200007e576040517f08c379a00000000000000000000000000000000000000000000000000000000081526004016200007590620001c6565b60405180910390fd5b33600260006101000a81548173ffffffffffffffffffffffffffffffffffffffff021916908373ffffffffffffffffffffffffffffffffffffffff1602179055508060018190555050620001e8565b600080fd5b6000819050919050565b620000e781620000d2565b8114620000f357600080fd5b50565b6000815190506200010781620000dc565b92915050565b600060208284031215620001265762000125620000cd565b5b60006200013684828501620000f6565b91505092915050565b600082825260208201905092915050565b7f50726f6a656374206372656174696f6e20666565206d75737420626520706f7360008201527f6974697665000000000000000000000000000000000000000000000000000000602082015250565b6000620001ae6025836200013f565b9150620001bb8262000150565b604082019050919050565b60006020820190508181036000830152620001e1816200019f565b9050919050565b6141c580620001f86000396000f3fe6080604052600436106200009e5760003560e01c80638d4564f111620000615780638d4564f114620001955780638fe23a5d14620001b55780639675c00914620001fb578063eca8d23c146200023f578063ed1fd681146200026d576200009e565b806326e3378e14620000a357806338e06bf314620000d35780634fa035fa146200011757806358c3b8701462000137578063597e47341462000167575b600080fd5b348015620000b057600080fd5b50620000bb6200029d565b604051620000ca919062000bc9565b60405180910390f35b348015620000e057600080fd5b50620000ff6004803603810190620000f9919062000c2b565b620002a7565b6040516200010e919062000bc9565b60405180910390f35b6200013560048036038101906200012f919062000fd5565b620003b5565b005b3480156200014457600080fd5b506200014f620006b2565b6040516200015e919062001148565b60405180910390f35b3480156200017457600080fd5b506200019360048036038101906200018d919062000c2b565b620006d8565b005b620001b36004803603810190620001ad919062000c2b565b620007d0565b005b348015620001c257600080fd5b50620001e16004803603810190620001db919062000c2b565b620008c9565b604051620001f29392919062001259565b60405180910390f35b3480156200020857600080fd5b5062000227600480360381019062000221919062000c2b565b620009a3565b604051620002369190620012ba565b60405180910390f35b3480156200024c57600080fd5b506200026b600480360381019062000265919062000c2b565b62000aa4565b005b3480156200027a57600080fd5b506200028562000b09565b60405162000294919062000bc9565b60405180910390f35b6000600154905090565b6000620002b5600062000b1c565b8210620002f9576040517f08c379a0000000000000000000000000000000000000000000000000000000008152600401620002f09062001327565b60405180910390fd5b6003600083815260200190815260200160002060020160009054906101000a900473ffffffffffffffffffffffffffffffffffffffff1673ffffffffffffffffffffffffffffffffffffffff1663160a4d14336040518263ffffffff1660e01b81526004016200036a91906200135a565b602060405180830381865afa15801562000388573d6000803e3d6000fd5b505050506040513d601f19601f82011682018060405250810190620003ae91906200138e565b9050919050565b600154341015620003fd576040517f08c379a0000000000000000000000000000000000000000000000000000000008152600401620003f49062001410565b60405180910390fd5b600083511162000444576040517f08c379a00000000000000000000000000000000000000000000000000000000081526004016200043b90620014a8565b60405180910390fd5b81518351146200048b576040517f08c379a0000000000000000000000000000000000000000000000000000000008152600401620004829062001540565b60405180910390fd5b620004968262000b2a565b620004d8576040517f08c379a0000000000000000000000000000000000000000000000000000000008152600401620004cf90620015d8565b60405180910390fd5b6000878787878787604051620004ee9062000ba0565b620004ff9695949392919062001796565b604051809103906000f0801580156200051c573d6000803e3d6000fd5b50905060006200052d600062000b1c565b905060405180606001604052808281526020018481526020018373ffffffffffffffffffffffffffffffffffffffff168152506003600083815260200190815260200160002060008201518160000155602082015181600101908162000594919062001a4b565b5060408201518160020160006101000a81548173ffffffffffffffffffffffffffffffffffffffff021916908373ffffffffffffffffffffffffffffffffffffffff160217905550905050620005eb600062000b8a565b600260009054906101000a900473ffffffffffffffffffffffffffffffffffffffff1673ffffffffffffffffffffffffffffffffffffffff166108fc349081150290604051600060405180830381858888f1935050505015801562000654573d6000803e3d6000fd5b508260405162000665919062001b74565b6040518091039020817fc0c54fed07481d0998e1446b2c13759606bf4f26b78306307413ac4c4309aa82846040516200069f919062001b8d565b60405180910390a3505050505050505050565b600260009054906101000a900473ffffffffffffffffffffffffffffffffffffffff1681565b620006e4600062000b1c565b811062000728576040517f08c379a00000000000000000000000000000000000000000000000000000000081526004016200071f9062001327565b60405180910390fd5b6003600082815260200190815260200160002060020160009054906101000a900473ffffffffffffffffffffffffffffffffffffffff1673ffffffffffffffffffffffffffffffffffffffff1663be5a34b2336040518263ffffffff1660e01b81526004016200079991906200135a565b600060405180830381600087803b158015620007b457600080fd5b505af1158015620007c9573d6000803e3d6000fd5b5050505050565b620007dc600062000b1c565b811062000820576040517f08c379a0000000000000000000000000000000000000000000000000000000008152600401620008179062001327565b60405180910390fd5b6003600082815260200190815260200160002060020160009054906101000a900473ffffffffffffffffffffffffffffffffffffffff1673ffffffffffffffffffffffffffffffffffffffff16636a62784234336040518363ffffffff1660e01b81526004016200089291906200135a565b6000604051808303818588803b158015620008ac57600080fd5b505af1158015620008c1573d6000803e3d6000fd5b505050505050565b6003602052806000526040600020600091509050806000015490806001018054620008f4906200184e565b80601f016020809104026020016040519081016040528092919081815260200182805462000922906200184e565b8015620009735780601f10620009475761010080835404028352916020019162000973565b820191906000526020600020905b8154815290600101906020018083116200095557829003601f168201915b5050505050908060020160009054906101000a900473ffffffffffffffffffffffffffffffffffffffff16905083565b6000620009b1600062000b1c565b8210620009f5576040517f08c379a0000000000000000000000000000000000000000000000000000000008152600401620009ec9062001327565b60405180910390fd5b6003600083815260200190815260200160002060020160009054906101000a900473ffffffffffffffffffffffffffffffffffffffff1673ffffffffffffffffffffffffffffffffffffffff1663e7aa3afc6040518163ffffffff1660e01b8152600401602060405180830381865afa15801562000a77573d6000803e3d6000fd5b505050506040513d601f19601f8201168201806040525081019062000a9d919062001bdb565b9050919050565b600260009054906101000a900473ffffffffffffffffffffffffffffffffffffffff1673ffffffffffffffffffffffffffffffffffffffff163373ffffffffffffffffffffffffffffffffffffffff161462000aff57600080fd5b8060018190555050565b600062000b17600062000b1c565b905090565b600081600001549050919050565b60008060005b835181101562000b7d5783818151811062000b505762000b4f62001c0d565b5b60200260200101518262000b65919062001c6b565b9150808062000b749062001ca6565b91505062000b30565b5060648114915050919050565b6001816000016000828254019250508190555050565b61249c8062001cf483390190565b6000819050919050565b62000bc38162000bae565b82525050565b600060208201905062000be0600083018462000bb8565b92915050565b6000604051905090565b600080fd5b600080fd5b62000c058162000bae565b811462000c1157600080fd5b50565b60008135905062000c258162000bfa565b92915050565b60006020828403121562000c445762000c4362000bf0565b5b600062000c548482850162000c14565b91505092915050565b600080fd5b600080fd5b6000601f19601f8301169050919050565b7f4e487b7100000000000000000000000000000000000000000000000000000000600052604160045260246000fd5b62000cb28262000c67565b810181811067ffffffffffffffff8211171562000cd45762000cd362000c78565b5b80604052505050565b600062000ce962000be6565b905062000cf7828262000ca7565b919050565b600067ffffffffffffffff82111562000d1a5762000d1962000c78565b5b62000d258262000c67565b9050602081019050919050565b82818337600083830152505050565b600062000d5862000d528462000cfc565b62000cdd565b90508281526020810184848401111562000d775762000d7662000c62565b5b62000d8484828562000d32565b509392505050565b600082601f83011262000da45762000da362000c5d565b5b813562000db684826020860162000d41565b91505092915050565b600067ffffffffffffffff82111562000ddd5762000ddc62000c78565b5b602082029050602081019050919050565b600080fd5b600073ffffffffffffffffffffffffffffffffffffffff82169050919050565b600062000e208262000df3565b9050919050565b62000e328162000e13565b811462000e3e57600080fd5b50565b60008135905062000e528162000e27565b92915050565b600062000e6f62000e698462000dbf565b62000cdd565b9050808382526020820190506020840283018581111562000e955762000e9462000dee565b5b835b8181101562000ec2578062000ead888262000e41565b84526020840193505060208101905062000e97565b5050509392505050565b600082601f83011262000ee45762000ee362000c5d565b5b813562000ef684826020860162000e58565b91505092915050565b600067ffffffffffffffff82111562000f1d5762000f1c62000c78565b5b602082029050602081019050919050565b600062000f4562000f3f8462000eff565b62000cdd565b9050808382526020820190506020840283018581111562000f6b5762000f6a62000dee565b5b835b8181101562000f98578062000f83888262000c14565b84526020840193505060208101905062000f6d565b5050509392505050565b600082601f83011262000fba5762000fb962000c5d565b5b813562000fcc84826020860162000f2e565b91505092915050565b600080600080600080600060e0888a03121562000ff75762000ff662000bf0565b5b600088013567ffffffffffffffff81111562001018576200101762000bf5565b5b620010268a828b0162000d8c565b975050602088013567ffffffffffffffff8111156200104a576200104962000bf5565b5b620010588a828b0162000d8c565b96505060406200106b8a828b0162000c14565b95505060606200107e8a828b0162000c14565b945050608088013567ffffffffffffffff811115620010a257620010a162000bf5565b5b620010b08a828b0162000ecc565b93505060a088013567ffffffffffffffff811115620010d457620010d362000bf5565b5b620010e28a828b0162000fa2565b92505060c088013567ffffffffffffffff81111562001106576200110562000bf5565b5b620011148a828b0162000d8c565b91505092959891949750929550565b6000620011308262000df3565b9050919050565b620011428162001123565b82525050565b60006020820190506200115f600083018462001137565b92915050565b600081519050919050565b600082825260208201905092915050565b60005b83811015620011a157808201518184015260208101905062001184565b60008484015250505050565b6000620011ba8262001165565b620011c6818562001170565b9350620011d881856020860162001181565b620011e38162000c67565b840191505092915050565b6000819050919050565b600062001219620012136200120d8462000df3565b620011ee565b62000df3565b9050919050565b60006200122d82620011f8565b9050919050565b6000620012418262001220565b9050919050565b620012538162001234565b82525050565b600060608201905062001270600083018662000bb8565b8181036020830152620012848185620011ad565b905062001295604083018462001248565b949350505050565b60008115159050919050565b620012b4816200129d565b82525050565b6000602082019050620012d16000830184620012a9565b92915050565b7f496e76616c69642050726f6a6563742049640000000000000000000000000000600082015250565b60006200130f60128362001170565b91506200131c82620012d7565b602082019050919050565b60006020820190508181036000830152620013428162001300565b9050919050565b620013548162000e13565b82525050565b600060208201905062001371600083018462001349565b92915050565b600081519050620013888162000bfa565b92915050565b600060208284031215620013a757620013a662000bf0565b5b6000620013b78482850162001377565b91505092915050565b7f496e73756666696369656e7420416d6f756e7400000000000000000000000000600082015250565b6000620013f860138362001170565b91506200140582620013c0565b602082019050919050565b600060208201905081810360008301526200142b81620013e9565b9050919050565b7f5468657265206d7573742062652061746c65617374206f6e652063726561746f60008201527f7200000000000000000000000000000000000000000000000000000000000000602082015250565b60006200149060218362001170565b91506200149d8262001432565b604082019050919050565b60006020820190508181036000830152620014c38162001481565b9050919050565b7f4c656e677468206f662063726561746f727320616e6420726f79616c7469657360008201527f206172726179206d75737420626520657175616c000000000000000000000000602082015250565b60006200152860348362001170565b91506200153582620014ca565b604082019050919050565b600060208201905081810360008301526200155b8162001519565b9050919050565b7f53756d206f6620726f79616c747920646973747269627574696f6e206d75737460008201527f20626520657175616c20746f2031303000000000000000000000000000000000602082015250565b6000620015c060308362001170565b9150620015cd8262001562565b604082019050919050565b60006020820190508181036000830152620015f381620015b1565b9050919050565b600081519050919050565b600082825260208201905092915050565b6000819050602082019050919050565b620016318162000e13565b82525050565b600062001645838362001626565b60208301905092915050565b6000602082019050919050565b60006200166b82620015fa565b62001677818562001605565b9350620016848362001616565b8060005b83811015620016bb5781516200169f888262001637565b9750620016ac8362001651565b92505060018101905062001688565b5085935050505092915050565b600081519050919050565b600082825260208201905092915050565b6000819050602082019050919050565b620016ff8162000bae565b82525050565b6000620017138383620016f4565b60208301905092915050565b6000602082019050919050565b60006200173982620016c8565b620017458185620016d3565b93506200175283620016e4565b8060005b83811015620017895781516200176d888262001705565b97506200177a836200171f565b92505060018101905062001756565b5085935050505092915050565b600060c0820190508181036000830152620017b28189620011ad565b90508181036020830152620017c88188620011ad565b9050620017d9604083018762000bb8565b620017e8606083018662000bb8565b8181036080830152620017fc81856200165e565b905081810360a08301526200181281846200172c565b9050979650505050505050565b7f4e487b7100000000000000000000000000000000000000000000000000000000600052602260045260246000fd5b600060028204905060018216806200186757607f821691505b6020821081036200187d576200187c6200181f565b5b50919050565b60008190508160005260206000209050919050565b60006020601f8301049050919050565b600082821b905092915050565b600060088302620018e77fffffffffffffffffffffffffffffffffffffffffffffffffffffffffffffffff82620018a8565b620018f38683620018a8565b95508019841693508086168417925050509392505050565b60006200192c62001926620019208462000bae565b620011ee565b62000bae565b9050919050565b6000819050919050565b62001948836200190b565b62001960620019578262001933565b848454620018b5565b825550505050565b600090565b6200197762001968565b620019848184846200193d565b505050565b5b81811015620019ac57620019a06000826200196d565b6001810190506200198a565b5050565b601f821115620019fb57620019c58162001883565b620019d08462001898565b81016020851015620019e0578190505b620019f8620019ef8562001898565b83018262001989565b50505b505050565b600082821c905092915050565b600062001a206000198460080262001a00565b1980831691505092915050565b600062001a3b838362001a0d565b9150826002028217905092915050565b62001a568262001165565b67ffffffffffffffff81111562001a725762001a7162000c78565b5b62001a7e82546200184e565b62001a8b828285620019b0565b600060209050601f83116001811462001ac3576000841562001aae578287015190505b62001aba858262001a2d565b86555062001b2a565b601f19841662001ad38662001883565b60005b8281101562001afd5784890151825560018201915060208501945060208101905062001ad6565b8683101562001b1d578489015162001b19601f89168262001a0d565b8355505b6001600288020188555050505b505050505050565b600081905092915050565b600062001b4a8262001165565b62001b56818562001b32565b935062001b6881856020860162001181565b80840191505092915050565b600062001b82828462001b3d565b915081905092915050565b600060208201905062001ba4600083018462001248565b92915050565b62001bb5816200129d565b811462001bc157600080fd5b50565b60008151905062001bd58162001baa565b92915050565b60006020828403121562001bf45762001bf362000bf0565b5b600062001c048482850162001bc4565b91505092915050565b7f4e487b7100000000000000000000000000000000000000000000000000000000600052603260045260246000fd5b7f4e487b7100000000000000000000000000000000000000000000000000000000600052601160045260246000fd5b600062001c788262000bae565b915062001c858362000bae565b925082820190508082111562001ca05762001c9f62001c3c565b5b92915050565b600062001cb38262000bae565b91507fffffffffffffffffffffffffffffffffffffffffffffffffffffffffffffffff820362001ce85762001ce762001c3c565b5b60018201905091905056fe60806040526001600a60006101000a81548160ff0219169083151502179055503480156200002c57600080fd5b506040516200249c3803806200249c8339818101604052810190620000529190620005aa565b8585816003908162000065919062000903565b50806004908162000077919062000903565b50505083600681905550826007819055508160089080519060200190620000a0929190620000c6565b508060099080519060200190620000b992919062000155565b50505050505050620009ea565b82805482825590600052602060002090810192821562000142579160200282015b82811115620001415782518260006101000a81548173ffffffffffffffffffffffffffffffffffffffff021916908373ffffffffffffffffffffffffffffffffffffffff16021790555091602001919060010190620000e7565b5b509050620001519190620001a7565b5090565b82805482825590600052602060002090810192821562000194579160200282015b828111156200019357825182559160200191906001019062000176565b5b509050620001a39190620001a7565b5090565b5b80821115620001c2576000816000905550600101620001a8565b5090565b6000604051905090565b600080fd5b600080fd5b600080fd5b600080fd5b6000601f19601f8301169050919050565b7f4e487b7100000000000000000000000000000000000000000000000000000000600052604160045260246000fd5b6200022f82620001e4565b810181811067ffffffffffffffff82111715620002515762000250620001f5565b5b80604052505050565b600062000266620001c6565b905062000274828262000224565b919050565b600067ffffffffffffffff821115620002975762000296620001f5565b5b620002a282620001e4565b9050602081019050919050565b60005b83811015620002cf578082015181840152602081019050620002b2565b60008484015250505050565b6000620002f2620002ec8462000279565b6200025a565b905082815260208101848484011115620003115762000310620001df565b5b6200031e848285620002af565b509392505050565b600082601f8301126200033e576200033d620001da565b5b815162000350848260208601620002db565b91505092915050565b6000819050919050565b6200036e8162000359565b81146200037a57600080fd5b50565b6000815190506200038e8162000363565b92915050565b600067ffffffffffffffff821115620003b257620003b1620001f5565b5b602082029050602081019050919050565b600080fd5b600073ffffffffffffffffffffffffffffffffffffffff82169050919050565b6000620003f582620003c8565b9050919050565b6200040781620003e8565b81146200041357600080fd5b50565b6000815190506200042781620003fc565b92915050565b6000620004446200043e8462000394565b6200025a565b905080838252602082019050602084028301858111156200046a5762000469620003c3565b5b835b8181101562000497578062000482888262000416565b8452602084019350506020810190506200046c565b5050509392505050565b600082601f830112620004b957620004b8620001da565b5b8151620004cb8482602086016200042d565b91505092915050565b600067ffffffffffffffff821115620004f257620004f1620001f5565b5b602082029050602081019050919050565b60006200051a6200051484620004d4565b6200025a565b9050808382526020820190506020840283018581111562000540576200053f620003c3565b5b835b818110156200056d57806200055888826200037d565b84526020840193505060208101905062000542565b5050509392505050565b600082601f8301126200058f576200058e620001da565b5b8151620005a184826020860162000503565b91505092915050565b60008060008060008060c08789031215620005ca57620005c9620001d0565b5b600087015167ffffffffffffffff811115620005eb57620005ea620001d5565b5b620005f989828a0162000326565b965050602087015167ffffffffffffffff8111156200061d576200061c620001d5565b5b6200062b89828a0162000326565b95505060406200063e89828a016200037d565b94505060606200065189828a016200037d565b935050608087015167ffffffffffffffff811115620006755762000674620001d5565b5b6200068389828a01620004a1565b92505060a087015167ffffffffffffffff811115620006a757620006a6620001d5565b5b620006b589828a0162000577565b9150509295509295509295565b600081519050919050565b7f4e487b7100000000000000000000000000000000000000000000000000000000600052602260045260246000fd5b600060028204905060018216806200071557607f821691505b6020821081036200072b576200072a620006cd565b5b50919050565b60008190508160005260206000209050919050565b60006020601f8301049050919050565b600082821b905092915050565b600060088302620007957fffffffffffffffffffffffffffffffffffffffffffffffffffffffffffffffff8262000756565b620007a1868362000756565b95508019841693508086168417925050509392505050565b6000819050919050565b6000620007e4620007de620007d88462000359565b620007b9565b62000359565b9050919050565b6000819050919050565b6200080083620007c3565b620008186200080f82620007eb565b84845462000763565b825550505050565b600090565b6200082f62000820565b6200083c818484620007f5565b505050565b5b8181101562000864576200085860008262000825565b60018101905062000842565b5050565b601f821115620008b3576200087d8162000731565b620008888462000746565b8101602085101562000898578190505b620008b0620008a78562000746565b83018262000841565b50505b505050565b600082821c905092915050565b6000620008d860001984600802620008b8565b1980831691505092915050565b6000620008f38383620008c5565b9150826002028217905092915050565b6200090e82620006c2565b67ffffffffffffffff8111156200092a5762000929620001f5565b5b620009368254620006fc565b6200094382828562000868565b600060209050601f8311600181146200097b576000841562000966578287015190505b620009728582620008e5565b865550620009e2565b601f1984166200098b8662000731565b60005b82811015620009b5578489015182556001820191506020850194506020810190506200098e565b86831015620009d55784890151620009d1601f891682620008c5565b8355505b6001600288020188555050505b505050505050565b611aa280620009fa6000396000f3fe60806040526004361061012a5760003560e01c806370a08231116100ab578063cd53d08e1161006f578063cd53d08e14610433578063d2d8cb6714610470578063dd62ed3e1461049b578063e489d510146104d8578063e6cd7ab614610503578063e7aa3afc146105405761012a565b806370a082311461032857806395d89b4114610365578063a457c2d714610390578063a9059cbb146103cd578063be5a34b21461040a5761012a565b806323b872dd116100f257806323b872dd1461022a578063313ce56714610267578063395093511461029257806357a858fc146102cf5780636a6278421461030c5761012a565b806306fdde031461012f578063095ea7b31461015a578063160a4d141461019757806318160ddd146101d45780631ab33308146101ff575b600080fd5b34801561013b57600080fd5b5061014461056b565b6040516101519190611183565b60405180910390f35b34801561016657600080fd5b50610181600480360381019061017c919061123e565b6105fd565b60405161018e9190611299565b60405180910390f35b3480156101a357600080fd5b506101be60048036038101906101b991906112b4565b610620565b6040516101cb91906112f0565b60405180910390f35b3480156101e057600080fd5b506101e9610669565b6040516101f691906112f0565b60405180910390f35b34801561020b57600080fd5b50610214610673565b6040516102219190611299565b60405180910390f35b34801561023657600080fd5b50610251600480360381019061024c919061130b565b610686565b60405161025e9190611299565b60405180910390f35b34801561027357600080fd5b5061027c6106b5565b604051610289919061137a565b60405180910390f35b34801561029e57600080fd5b506102b960048036038101906102b4919061123e565b6106be565b6040516102c69190611299565b60405180910390f35b3480156102db57600080fd5b506102f660048036038101906102f19190611395565b6106f5565b60405161030391906112f0565b60405180910390f35b610326600480360381019061032191906112b4565b610719565b005b34801561033457600080fd5b5061034f600480360381019061034a91906112b4565b61083b565b60405161035c91906112f0565b60405180910390f35b34801561037157600080fd5b5061037a610883565b6040516103879190611183565b60405180910390f35b34801561039c57600080fd5b506103b760048036038101906103b2919061123e565b610915565b6040516103c49190611299565b60405180910390f35b3480156103d957600080fd5b506103f460048036038101906103ef919061123e565b61098c565b6040516104019190611299565b60405180910390f35b34801561041657600080fd5b50610431600480360381019061042c91906112b4565b6109af565b005b34801561043f57600080fd5b5061045a60048036038101906104559190611395565b610aff565b60405161046791906113d1565b60405180910390f35b34801561047c57600080fd5b50610485610b3e565b60405161049291906112f0565b60405180910390f35b3480156104a757600080fd5b506104c260048036038101906104bd91906113ec565b610b44565b6040516104cf91906112f0565b60405180910390f35b3480156104e457600080fd5b506104ed610bcb565b6040516104fa91906112f0565b60405180910390f35b34801561050f57600080fd5b5061052a600480360381019061052591906112b4565b610bd1565b60405161053791906112f0565b60405180910390f35b34801561054c57600080fd5b50610555610be9565b6040516105629190611299565b60405180910390f35b60606003805461057a9061145b565b80601f01602080910402602001604051908101604052809291908181526020018280546105a69061145b565b80156105f35780601f106105c8576101008083540402835291602001916105f3565b820191906000526020600020905b8154815290600101906020018083116105d657829003601f168201915b5050505050905090565b600080610608610c00565b9050610615818585610c08565b600191505092915050565b6000600b60008373ffffffffffffffffffffffffffffffffffffffff1673ffffffffffffffffffffffffffffffffffffffff168152602001908152602001600020549050919050565b6000600254905090565b600a60009054906101000a900460ff1681565b600080610691610c00565b905061069e858285610dd1565b6106a9858585610e5d565b60019150509392505050565b60006012905090565b6000806106c9610c00565b90506106ea8185856106db8589610b44565b6106e591906114bb565b610c08565b600191505092915050565b6009818154811061070557600080fd5b906000526020600020016000915090505481565b60075434101561075e576040517f08c379a00000000000000000000000000000000000000000000000000000000081526004016107559061153b565b60405180910390fd5b60065461076b6005610e62565b106107ab576040517f08c379a00000000000000000000000000000000000000000000000000000000081526004016107a2906115a7565b60405180910390fd5b60006107b68261083b565b146107f6576040517f08c379a00000000000000000000000000000000000000000000000000000000081526004016107ed90611639565b60405180910390fd5b61080881670de0b6b3a7640000610e70565b61081134610fc6565b61081b60056110b6565b6006546108286005610e62565b036108385761083760006110cc565b5b50565b60008060008373ffffffffffffffffffffffffffffffffffffffff1673ffffffffffffffffffffffffffffffffffffffff168152602001908152602001600020549050919050565b6060600480546108929061145b565b80601f01602080910402602001604051908101604052809291908181526020018280546108be9061145b565b801561090b5780601f106108e05761010080835404028352916020019161090b565b820191906000526020600020905b8154815290600101906020018083116108ee57829003601f168201915b5050505050905090565b600080610920610c00565b9050600061092e8286610b44565b905083811015610973576040517f08c379a000000000000000000000000000000000000000000000000000000000815260040161096a906116cb565b60405180910390fd5b6109808286868403610c08565b60019250505092915050565b600080610997610c00565b90506109a4818585610e5d565b600191505092915050565b6000600b60008373ffffffffffffffffffffffffffffffffffffffff1673ffffffffffffffffffffffffffffffffffffffff1681526020019081526020016000205411610a31576040517f08c379a0000000000000000000000000000000000000000000000000000000008152600401610a2890611737565b60405180910390fd5b8073ffffffffffffffffffffffffffffffffffffffff166108fc600b60008473ffffffffffffffffffffffffffffffffffffffff1673ffffffffffffffffffffffffffffffffffffffff168152602001908152602001600020549081150290604051600060405180830381858888f19350505050158015610ab6573d6000803e3d6000fd5b506000600b60008373ffffffffffffffffffffffffffffffffffffffff1673ffffffffffffffffffffffffffffffffffffffff1681526020019081526020016000208190555050565b60088181548110610b0f57600080fd5b906000526020600020016000915054906101000a900473ffffffffffffffffffffffffffffffffffffffff1681565b60075481565b6000600160008473ffffffffffffffffffffffffffffffffffffffff1673ffffffffffffffffffffffffffffffffffffffff16815260200190815260200160002060008373ffffffffffffffffffffffffffffffffffffffff1673ffffffffffffffffffffffffffffffffffffffff16815260200190815260200160002054905092915050565b60065481565b600b6020528060005260406000206000915090505481565b6000600a60009054906101000a900460ff16905090565b600033905090565b600073ffffffffffffffffffffffffffffffffffffffff168373ffffffffffffffffffffffffffffffffffffffff1603610c77576040517f08c379a0000000000000000000000000000000000000000000000000000000008152600401610c6e906117c9565b60405180910390fd5b600073ffffffffffffffffffffffffffffffffffffffff168273ffffffffffffffffffffffffffffffffffffffff1603610ce6576040517f08c379a0000000000000000000000000000000000000000000000000000000008152600401610cdd9061185b565b60405180910390fd5b80600160008573ffffffffffffffffffffffffffffffffffffffff1673ffffffffffffffffffffffffffffffffffffffff16815260200190815260200160002060008473ffffffffffffffffffffffffffffffffffffffff1673ffffffffffffffffffffffffffffffffffffffff168152602001908152602001600020819055508173ffffffffffffffffffffffffffffffffffffffff168373ffffffffffffffffffffffffffffffffffffffff167f8c5be1e5ebec7d5bd14f71427d1e84f3dd0314c0f7b2291e5b200ac8c7c3b92583604051610dc491906112f0565b60405180910390a3505050565b6000610ddd8484610b44565b90507fffffffffffffffffffffffffffffffffffffffffffffffffffffffffffffffff8114610e575781811015610e49576040517f08c379a0000000000000000000000000000000000000000000000000000000008152600401610e40906118c7565b60405180910390fd5b610e568484848403610c08565b5b50505050565b600080fd5b600081600001549050919050565b600073ffffffffffffffffffffffffffffffffffffffff168273ffffffffffffffffffffffffffffffffffffffff1603610edf576040517f08c379a0000000000000000000000000000000000000000000000000000000008152600401610ed690611933565b60405180910390fd5b610eeb600083836110e9565b8060026000828254610efd91906114bb565b92505081905550806000808473ffffffffffffffffffffffffffffffffffffffff1673ffffffffffffffffffffffffffffffffffffffff168152602001908152602001600020600082825401925050819055508173ffffffffffffffffffffffffffffffffffffffff16600073ffffffffffffffffffffffffffffffffffffffff167fddf252ad1be2c89b69c2b068fc378daa952ba7f163c4a11628f55a4df523b3ef83604051610fae91906112f0565b60405180910390a3610fc2600083836110ee565b5050565b60005b6008805490508110156110b25760648260098381548110610fed57610fec611953565b5b90600052602060002001546110029190611982565b61100c91906119f3565b600b60006008848154811061102457611023611953565b5b9060005260206000200160009054906101000a900473ffffffffffffffffffffffffffffffffffffffff1673ffffffffffffffffffffffffffffffffffffffff1673ffffffffffffffffffffffffffffffffffffffff168152602001908152602001600020600082825461109891906114bb565b9250508190555080806110aa90611a24565b915050610fc9565b5050565b6001816000016000828254019250508190555050565b80600a60006101000a81548160ff02191690831515021790555050565b505050565b505050565b600081519050919050565b600082825260208201905092915050565b60005b8381101561112d578082015181840152602081019050611112565b60008484015250505050565b6000601f19601f8301169050919050565b6000611155826110f3565b61115f81856110fe565b935061116f81856020860161110f565b61117881611139565b840191505092915050565b6000602082019050818103600083015261119d818461114a565b905092915050565b600080fd5b600073ffffffffffffffffffffffffffffffffffffffff82169050919050565b60006111d5826111aa565b9050919050565b6111e5816111ca565b81146111f057600080fd5b50565b600081359050611202816111dc565b92915050565b6000819050919050565b61121b81611208565b811461122657600080fd5b50565b60008135905061123881611212565b92915050565b60008060408385031215611255576112546111a5565b5b6000611263858286016111f3565b925050602061127485828601611229565b9150509250929050565b60008115159050919050565b6112938161127e565b82525050565b60006020820190506112ae600083018461128a565b92915050565b6000602082840312156112ca576112c96111a5565b5b60006112d8848285016111f3565b91505092915050565b6112ea81611208565b82525050565b600060208201905061130560008301846112e1565b92915050565b600080600060608486031215611324576113236111a5565b5b6000611332868287016111f3565b9350506020611343868287016111f3565b925050604061135486828701611229565b9150509250925092565b600060ff82169050919050565b6113748161135e565b82525050565b600060208201905061138f600083018461136b565b92915050565b6000602082840312156113ab576113aa6111a5565b5b60006113b984828501611229565b91505092915050565b6113cb816111ca565b82525050565b60006020820190506113e660008301846113c2565b92915050565b60008060408385031215611403576114026111a5565b5b6000611411858286016111f3565b9250506020611422858286016111f3565b9150509250929050565b7f4e487b7100000000000000000000000000000000000000000000000000000000600052602260045260246000fd5b6000600282049050600182168061147357607f821691505b6020821081036114865761148561142c565b5b50919050565b7f4e487b7100000000000000000000000000000000000000000000000000000000600052601160045260246000fd5b60006114c682611208565b91506114d183611208565b92508282019050808211156114e9576114e861148c565b5b92915050565b7f496e73756666696369656e7420416d6f756e7400000000000000000000000000600082015250565b60006115256013836110fe565b9150611530826114ef565b602082019050919050565b6000602082019050818103600083015261155481611518565b9050919050565b7f546f6b656e732061726520736f6c64206f757400000000000000000000000000600082015250565b60006115916013836110fe565b915061159c8261155b565b602082019050919050565b600060208201905081810360008301526115c081611584565b9050919050565b7f596f75206861766520616c726561647920626f75676874207468697320746f6b60008201527f656e000000000000000000000000000000000000000000000000000000000000602082015250565b60006116236022836110fe565b915061162e826115c7565b604082019050919050565b6000602082019050818103600083015261165281611616565b9050919050565b7f45524332303a2064656372656173656420616c6c6f77616e63652062656c6f7760008201527f207a65726f000000000000000000000000000000000000000000000000000000602082015250565b60006116b56025836110fe565b91506116c082611659565b604082019050919050565b600060208201905081810360008301526116e4816116a8565b9050919050565b7f596f75722062616c616e6365206973207a65726f000000000000000000000000600082015250565b60006117216014836110fe565b915061172c826116eb565b602082019050919050565b6000602082019050818103600083015261175081611714565b9050919050565b7f45524332303a20617070726f76652066726f6d20746865207a65726f2061646460008201527f7265737300000000000000000000000000000000000000000000000000000000602082015250565b60006117b36024836110fe565b91506117be82611757565b604082019050919050565b600060208201905081810360008301526117e2816117a6565b9050919050565b7f45524332303a20617070726f766520746f20746865207a65726f20616464726560008201527f7373000000000000000000000000000000000000000000000000000000000000602082015250565b60006118456022836110fe565b9150611850826117e9565b604082019050919050565b6000602082019050818103600083015261187481611838565b9050919050565b7f45524332303a20696e73756666696369656e7420616c6c6f77616e6365000000600082015250565b60006118b1601d836110fe565b91506118bc8261187b565b602082019050919050565b600060208201905081810360008301526118e0816118a4565b9050919050565b7f45524332303a206d696e7420746f20746865207a65726f206164647265737300600082015250565b600061191d601f836110fe565b9150611928826118e7565b602082019050919050565b6000602082019050818103600083015261194c81611910565b9050919050565b7f4e487b7100000000000000000000000000000000000000000000000000000000600052603260045260246000fd5b600061198d82611208565b915061199883611208565b92508282026119a681611208565b915082820484148315176119bd576119bc61148c565b5b5092915050565b7f4e487b7100000000000000000000000000000000000000000000000000000000600052601260045260246000fd5b60006119fe82611208565b9150611a0983611208565b925082611a1957611a186119c4565b5b828204905092915050565b6000611a2f82611208565b91507fffffffffffffffffffffffffffffffffffffffffffffffffffffffffffffffff8203611a6157611a6061148c565b5b60018201905091905056fea2646970667358221220608e5d8b0e8bab9c542c33415c0aa2aaef93a42a70f7f8dec2db9d01a14b75ff64736f6c63430008120033a264697066735822122072c4425499350a422b4764aa5b479de9c3ccaee7fa8d6adceea5ad97012b9f4764736f6c63430008120033",
    "opcodes": "PUSH1 0x80 PUSH1 0x40 MSTORE CALLVALUE DUP1 ISZERO PUSH3 0x11 JUMPI PUSH1 0x0 DUP1 REVERT JUMPDEST POP PUSH1 0x40 MLOAD PUSH3 0x43BD CODESIZE SUB DUP1 PUSH3 0x43BD DUP4 CODECOPY DUP2 DUP2 ADD PUSH1 0x40 MSTORE DUP2 ADD SWAP1 PUSH3 0x37 SWAP2 SWAP1 PUSH3 0x10D JUMP JUMPDEST PUSH1 0x0 DUP2 LT ISZERO PUSH3 0x7E JUMPI PUSH1 0x40 MLOAD PUSH32 0x8C379A000000000000000000000000000000000000000000000000000000000 DUP2 MSTORE PUSH1 0x4 ADD PUSH3 0x75 SWAP1 PUSH3 0x1C6 JUMP JUMPDEST PUSH1 0x40 MLOAD DUP1 SWAP2 SUB SWAP1 REVERT JUMPDEST CALLER PUSH1 0x2 PUSH1 0x0 PUSH2 0x100 EXP DUP2 SLOAD DUP2 PUSH20 0xFFFFFFFFFFFFFFFFFFFFFFFFFFFFFFFFFFFFFFFF MUL NOT AND SWAP1 DUP4 PUSH20 0xFFFFFFFFFFFFFFFFFFFFFFFFFFFFFFFFFFFFFFFF AND MUL OR SWAP1 SSTORE POP DUP1 PUSH1 0x1 DUP2 SWAP1 SSTORE POP POP PUSH3 0x1E8 JUMP JUMPDEST PUSH1 0x0 DUP1 REVERT JUMPDEST PUSH1 0x0 DUP2 SWAP1 POP SWAP2 SWAP1 POP JUMP JUMPDEST PUSH3 0xE7 DUP2 PUSH3 0xD2 JUMP JUMPDEST DUP2 EQ PUSH3 0xF3 JUMPI PUSH1 0x0 DUP1 REVERT JUMPDEST POP JUMP JUMPDEST PUSH1 0x0 DUP2 MLOAD SWAP1 POP PUSH3 0x107 DUP2 PUSH3 0xDC JUMP JUMPDEST SWAP3 SWAP2 POP POP JUMP JUMPDEST PUSH1 0x0 PUSH1 0x20 DUP3 DUP5 SUB SLT ISZERO PUSH3 0x126 JUMPI PUSH3 0x125 PUSH3 0xCD JUMP JUMPDEST JUMPDEST PUSH1 0x0 PUSH3 0x136 DUP5 DUP3 DUP6 ADD PUSH3 0xF6 JUMP JUMPDEST SWAP2 POP POP SWAP3 SWAP2 POP POP JUMP JUMPDEST PUSH1 0x0 DUP3 DUP3 MSTORE PUSH1 0x20 DUP3 ADD SWAP1 POP SWAP3 SWAP2 POP POP JUMP JUMPDEST PUSH32 0x50726F6A656374206372656174696F6E20666565206D75737420626520706F73 PUSH1 0x0 DUP3 ADD MSTORE PUSH32 0x6974697665000000000000000000000000000000000000000000000000000000 PUSH1 0x20 DUP3 ADD MSTORE POP JUMP JUMPDEST PUSH1 0x0 PUSH3 0x1AE PUSH1 0x25 DUP4 PUSH3 0x13F JUMP JUMPDEST SWAP2 POP PUSH3 0x1BB DUP3 PUSH3 0x150 JUMP JUMPDEST PUSH1 0x40 DUP3 ADD SWAP1 POP SWAP2 SWAP1 POP JUMP JUMPDEST PUSH1 0x0 PUSH1 0x20 DUP3 ADD SWAP1 POP DUP2 DUP2 SUB PUSH1 0x0 DUP4 ADD MSTORE PUSH3 0x1E1 DUP2 PUSH3 0x19F JUMP JUMPDEST SWAP1 POP SWAP2 SWAP1 POP JUMP JUMPDEST PUSH2 0x41C5 DUP1 PUSH3 0x1F8 PUSH1 0x0 CODECOPY PUSH1 0x0 RETURN INVALID PUSH1 0x80 PUSH1 0x40 MSTORE PUSH1 0x4 CALLDATASIZE LT PUSH3 0x9E JUMPI PUSH1 0x0 CALLDATALOAD PUSH1 0xE0 SHR DUP1 PUSH4 0x8D4564F1 GT PUSH3 0x61 JUMPI DUP1 PUSH4 0x8D4564F1 EQ PUSH3 0x195 JUMPI DUP1 PUSH4 0x8FE23A5D EQ PUSH3 0x1B5 JUMPI DUP1 PUSH4 0x9675C009 EQ PUSH3 0x1FB JUMPI DUP1 PUSH4 0xECA8D23C EQ PUSH3 0x23F JUMPI DUP1 PUSH4 0xED1FD681 EQ PUSH3 0x26D JUMPI PUSH3 0x9E JUMP JUMPDEST DUP1 PUSH4 0x26E3378E EQ PUSH3 0xA3 JUMPI DUP1 PUSH4 0x38E06BF3 EQ PUSH3 0xD3 JUMPI DUP1 PUSH4 0x4FA035FA EQ PUSH3 0x117 JUMPI DUP1 PUSH4 0x58C3B870 EQ PUSH3 0x137 JUMPI DUP1 PUSH4 0x597E4734 EQ PUSH3 0x167 JUMPI JUMPDEST PUSH1 0x0 DUP1 REVERT JUMPDEST CALLVALUE DUP1 ISZERO PUSH3 0xB0 JUMPI PUSH1 0x0 DUP1 REVERT JUMPDEST POP PUSH3 0xBB PUSH3 0x29D JUMP JUMPDEST PUSH1 0x40 MLOAD PUSH3 0xCA SWAP2 SWAP1 PUSH3 0xBC9 JUMP JUMPDEST PUSH1 0x40 MLOAD DUP1 SWAP2 SUB SWAP1 RETURN JUMPDEST CALLVALUE DUP1 ISZERO PUSH3 0xE0 JUMPI PUSH1 0x0 DUP1 REVERT JUMPDEST POP PUSH3 0xFF PUSH1 0x4 DUP1 CALLDATASIZE SUB DUP2 ADD SWAP1 PUSH3 0xF9 SWAP2 SWAP1 PUSH3 0xC2B JUMP JUMPDEST PUSH3 0x2A7 JUMP JUMPDEST PUSH1 0x40 MLOAD PUSH3 0x10E SWAP2 SWAP1 PUSH3 0xBC9 JUMP JUMPDEST PUSH1 0x40 MLOAD DUP1 SWAP2 SUB SWAP1 RETURN JUMPDEST PUSH3 0x135 PUSH1 0x4 DUP1 CALLDATASIZE SUB DUP2 ADD SWAP1 PUSH3 0x12F SWAP2 SWAP1 PUSH3 0xFD5 JUMP JUMPDEST PUSH3 0x3B5 JUMP JUMPDEST STOP JUMPDEST CALLVALUE DUP1 ISZERO PUSH3 0x144 JUMPI PUSH1 0x0 DUP1 REVERT JUMPDEST POP PUSH3 0x14F PUSH3 0x6B2 JUMP JUMPDEST PUSH1 0x40 MLOAD PUSH3 0x15E SWAP2 SWAP1 PUSH3 0x1148 JUMP JUMPDEST PUSH1 0x40 MLOAD DUP1 SWAP2 SUB SWAP1 RETURN JUMPDEST CALLVALUE DUP1 ISZERO PUSH3 0x174 JUMPI PUSH1 0x0 DUP1 REVERT JUMPDEST POP PUSH3 0x193 PUSH1 0x4 DUP1 CALLDATASIZE SUB DUP2 ADD SWAP1 PUSH3 0x18D SWAP2 SWAP1 PUSH3 0xC2B JUMP JUMPDEST PUSH3 0x6D8 JUMP JUMPDEST STOP JUMPDEST PUSH3 0x1B3 PUSH1 0x4 DUP1 CALLDATASIZE SUB DUP2 ADD SWAP1 PUSH3 0x1AD SWAP2 SWAP1 PUSH3 0xC2B JUMP JUMPDEST PUSH3 0x7D0 JUMP JUMPDEST STOP JUMPDEST CALLVALUE DUP1 ISZERO PUSH3 0x1C2 JUMPI PUSH1 0x0 DUP1 REVERT JUMPDEST POP PUSH3 0x1E1 PUSH1 0x4 DUP1 CALLDATASIZE SUB DUP2 ADD SWAP1 PUSH3 0x1DB SWAP2 SWAP1 PUSH3 0xC2B JUMP JUMPDEST PUSH3 0x8C9 JUMP JUMPDEST PUSH1 0x40 MLOAD PUSH3 0x1F2 SWAP4 SWAP3 SWAP2 SWAP1 PUSH3 0x1259 JUMP JUMPDEST PUSH1 0x40 MLOAD DUP1 SWAP2 SUB SWAP1 RETURN JUMPDEST CALLVALUE DUP1 ISZERO PUSH3 0x208 JUMPI PUSH1 0x0 DUP1 REVERT JUMPDEST POP PUSH3 0x227 PUSH1 0x4 DUP1 CALLDATASIZE SUB DUP2 ADD SWAP1 PUSH3 0x221 SWAP2 SWAP1 PUSH3 0xC2B JUMP JUMPDEST PUSH3 0x9A3 JUMP JUMPDEST PUSH1 0x40 MLOAD PUSH3 0x236 SWAP2 SWAP1 PUSH3 0x12BA JUMP JUMPDEST PUSH1 0x40 MLOAD DUP1 SWAP2 SUB SWAP1 RETURN JUMPDEST CALLVALUE DUP1 ISZERO PUSH3 0x24C JUMPI PUSH1 0x0 DUP1 REVERT JUMPDEST POP PUSH3 0x26B PUSH1 0x4 DUP1 CALLDATASIZE SUB DUP2 ADD SWAP1 PUSH3 0x265 SWAP2 SWAP1 PUSH3 0xC2B JUMP JUMPDEST PUSH3 0xAA4 JUMP JUMPDEST STOP JUMPDEST CALLVALUE DUP1 ISZERO PUSH3 0x27A JUMPI PUSH1 0x0 DUP1 REVERT JUMPDEST POP PUSH3 0x285 PUSH3 0xB09 JUMP JUMPDEST PUSH1 0x40 MLOAD PUSH3 0x294 SWAP2 SWAP1 PUSH3 0xBC9 JUMP JUMPDEST PUSH1 0x40 MLOAD DUP1 SWAP2 SUB SWAP1 RETURN JUMPDEST PUSH1 0x0 PUSH1 0x1 SLOAD SWAP1 POP SWAP1 JUMP JUMPDEST PUSH1 0x0 PUSH3 0x2B5 PUSH1 0x0 PUSH3 0xB1C JUMP JUMPDEST DUP3 LT PUSH3 0x2F9 JUMPI PUSH1 0x40 MLOAD PUSH32 0x8C379A000000000000000000000000000000000000000000000000000000000 DUP2 MSTORE PUSH1 0x4 ADD PUSH3 0x2F0 SWAP1 PUSH3 0x1327 JUMP JUMPDEST PUSH1 0x40 MLOAD DUP1 SWAP2 SUB SWAP1 REVERT JUMPDEST PUSH1 0x3 PUSH1 0x0 DUP4 DUP2 MSTORE PUSH1 0x20 ADD SWAP1 DUP2 MSTORE PUSH1 0x20 ADD PUSH1 0x0 KECCAK256 PUSH1 0x2 ADD PUSH1 0x0 SWAP1 SLOAD SWAP1 PUSH2 0x100 EXP SWAP1 DIV PUSH20 0xFFFFFFFFFFFFFFFFFFFFFFFFFFFFFFFFFFFFFFFF AND PUSH20 0xFFFFFFFFFFFFFFFFFFFFFFFFFFFFFFFFFFFFFFFF AND PUSH4 0x160A4D14 CALLER PUSH1 0x40 MLOAD DUP3 PUSH4 0xFFFFFFFF AND PUSH1 0xE0 SHL DUP2 MSTORE PUSH1 0x4 ADD PUSH3 0x36A SWAP2 SWAP1 PUSH3 0x135A JUMP JUMPDEST PUSH1 0x20 PUSH1 0x40 MLOAD DUP1 DUP4 SUB DUP2 DUP7 GAS STATICCALL ISZERO DUP1 ISZERO PUSH3 0x388 JUMPI RETURNDATASIZE PUSH1 0x0 DUP1 RETURNDATACOPY RETURNDATASIZE PUSH1 0x0 REVERT JUMPDEST POP POP POP POP PUSH1 0x40 MLOAD RETURNDATASIZE PUSH1 0x1F NOT PUSH1 0x1F DUP3 ADD AND DUP3 ADD DUP1 PUSH1 0x40 MSTORE POP DUP2 ADD SWAP1 PUSH3 0x3AE SWAP2 SWAP1 PUSH3 0x138E JUMP JUMPDEST SWAP1 POP SWAP2 SWAP1 POP JUMP JUMPDEST PUSH1 0x1 SLOAD CALLVALUE LT ISZERO PUSH3 0x3FD JUMPI PUSH1 0x40 MLOAD PUSH32 0x8C379A000000000000000000000000000000000000000000000000000000000 DUP2 MSTORE PUSH1 0x4 ADD PUSH3 0x3F4 SWAP1 PUSH3 0x1410 JUMP JUMPDEST PUSH1 0x40 MLOAD DUP1 SWAP2 SUB SWAP1 REVERT JUMPDEST PUSH1 0x0 DUP4 MLOAD GT PUSH3 0x444 JUMPI PUSH1 0x40 MLOAD PUSH32 0x8C379A000000000000000000000000000000000000000000000000000000000 DUP2 MSTORE PUSH1 0x4 ADD PUSH3 0x43B SWAP1 PUSH3 0x14A8 JUMP JUMPDEST PUSH1 0x40 MLOAD DUP1 SWAP2 SUB SWAP1 REVERT JUMPDEST DUP2 MLOAD DUP4 MLOAD EQ PUSH3 0x48B JUMPI PUSH1 0x40 MLOAD PUSH32 0x8C379A000000000000000000000000000000000000000000000000000000000 DUP2 MSTORE PUSH1 0x4 ADD PUSH3 0x482 SWAP1 PUSH3 0x1540 JUMP JUMPDEST PUSH1 0x40 MLOAD DUP1 SWAP2 SUB SWAP1 REVERT JUMPDEST PUSH3 0x496 DUP3 PUSH3 0xB2A JUMP JUMPDEST PUSH3 0x4D8 JUMPI PUSH1 0x40 MLOAD PUSH32 0x8C379A000000000000000000000000000000000000000000000000000000000 DUP2 MSTORE PUSH1 0x4 ADD PUSH3 0x4CF SWAP1 PUSH3 0x15D8 JUMP JUMPDEST PUSH1 0x40 MLOAD DUP1 SWAP2 SUB SWAP1 REVERT JUMPDEST PUSH1 0x0 DUP8 DUP8 DUP8 DUP8 DUP8 DUP8 PUSH1 0x40 MLOAD PUSH3 0x4EE SWAP1 PUSH3 0xBA0 JUMP JUMPDEST PUSH3 0x4FF SWAP7 SWAP6 SWAP5 SWAP4 SWAP3 SWAP2 SWAP1 PUSH3 0x1796 JUMP JUMPDEST PUSH1 0x40 MLOAD DUP1 SWAP2 SUB SWAP1 PUSH1 0x0 CREATE DUP1 ISZERO DUP1 ISZERO PUSH3 0x51C JUMPI RETURNDATASIZE PUSH1 0x0 DUP1 RETURNDATACOPY RETURNDATASIZE PUSH1 0x0 REVERT JUMPDEST POP SWAP1 POP PUSH1 0x0 PUSH3 0x52D PUSH1 0x0 PUSH3 0xB1C JUMP JUMPDEST SWAP1 POP PUSH1 0x40 MLOAD DUP1 PUSH1 0x60 ADD PUSH1 0x40 MSTORE DUP1 DUP3 DUP2 MSTORE PUSH1 0x20 ADD DUP5 DUP2 MSTORE PUSH1 0x20 ADD DUP4 PUSH20 0xFFFFFFFFFFFFFFFFFFFFFFFFFFFFFFFFFFFFFFFF AND DUP2 MSTORE POP PUSH1 0x3 PUSH1 0x0 DUP4 DUP2 MSTORE PUSH1 0x20 ADD SWAP1 DUP2 MSTORE PUSH1 0x20 ADD PUSH1 0x0 KECCAK256 PUSH1 0x0 DUP3 ADD MLOAD DUP2 PUSH1 0x0 ADD SSTORE PUSH1 0x20 DUP3 ADD MLOAD DUP2 PUSH1 0x1 ADD SWAP1 DUP2 PUSH3 0x594 SWAP2 SWAP1 PUSH3 0x1A4B JUMP JUMPDEST POP PUSH1 0x40 DUP3 ADD MLOAD DUP2 PUSH1 0x2 ADD PUSH1 0x0 PUSH2 0x100 EXP DUP2 SLOAD DUP2 PUSH20 0xFFFFFFFFFFFFFFFFFFFFFFFFFFFFFFFFFFFFFFFF MUL NOT AND SWAP1 DUP4 PUSH20 0xFFFFFFFFFFFFFFFFFFFFFFFFFFFFFFFFFFFFFFFF AND MUL OR SWAP1 SSTORE POP SWAP1 POP POP PUSH3 0x5EB PUSH1 0x0 PUSH3 0xB8A JUMP JUMPDEST PUSH1 0x2 PUSH1 0x0 SWAP1 SLOAD SWAP1 PUSH2 0x100 EXP SWAP1 DIV PUSH20 0xFFFFFFFFFFFFFFFFFFFFFFFFFFFFFFFFFFFFFFFF AND PUSH20 0xFFFFFFFFFFFFFFFFFFFFFFFFFFFFFFFFFFFFFFFF AND PUSH2 0x8FC CALLVALUE SWAP1 DUP2 ISZERO MUL SWAP1 PUSH1 0x40 MLOAD PUSH1 0x0 PUSH1 0x40 MLOAD DUP1 DUP4 SUB DUP2 DUP6 DUP9 DUP9 CALL SWAP4 POP POP POP POP ISZERO DUP1 ISZERO PUSH3 0x654 JUMPI RETURNDATASIZE PUSH1 0x0 DUP1 RETURNDATACOPY RETURNDATASIZE PUSH1 0x0 REVERT JUMPDEST POP DUP3 PUSH1 0x40 MLOAD PUSH3 0x665 SWAP2 SWAP1 PUSH3 0x1B74 JUMP JUMPDEST PUSH1 0x40 MLOAD DUP1 SWAP2 SUB SWAP1 KECCAK256 DUP2 PUSH32 0xC0C54FED07481D0998E1446B2C13759606BF4F26B78306307413AC4C4309AA82 DUP5 PUSH1 0x40 MLOAD PUSH3 0x69F SWAP2 SWAP1 PUSH3 0x1B8D JUMP JUMPDEST PUSH1 0x40 MLOAD DUP1 SWAP2 SUB SWAP1 LOG3 POP POP POP POP POP POP POP POP POP JUMP JUMPDEST PUSH1 0x2 PUSH1 0x0 SWAP1 SLOAD SWAP1 PUSH2 0x100 EXP SWAP1 DIV PUSH20 0xFFFFFFFFFFFFFFFFFFFFFFFFFFFFFFFFFFFFFFFF AND DUP2 JUMP JUMPDEST PUSH3 0x6E4 PUSH1 0x0 PUSH3 0xB1C JUMP JUMPDEST DUP2 LT PUSH3 0x728 JUMPI PUSH1 0x40 MLOAD PUSH32 0x8C379A000000000000000000000000000000000000000000000000000000000 DUP2 MSTORE PUSH1 0x4 ADD PUSH3 0x71F SWAP1 PUSH3 0x1327 JUMP JUMPDEST PUSH1 0x40 MLOAD DUP1 SWAP2 SUB SWAP1 REVERT JUMPDEST PUSH1 0x3 PUSH1 0x0 DUP3 DUP2 MSTORE PUSH1 0x20 ADD SWAP1 DUP2 MSTORE PUSH1 0x20 ADD PUSH1 0x0 KECCAK256 PUSH1 0x2 ADD PUSH1 0x0 SWAP1 SLOAD SWAP1 PUSH2 0x100 EXP SWAP1 DIV PUSH20 0xFFFFFFFFFFFFFFFFFFFFFFFFFFFFFFFFFFFFFFFF AND PUSH20 0xFFFFFFFFFFFFFFFFFFFFFFFFFFFFFFFFFFFFFFFF AND PUSH4 0xBE5A34B2 CALLER PUSH1 0x40 MLOAD DUP3 PUSH4 0xFFFFFFFF AND PUSH1 0xE0 SHL DUP2 MSTORE PUSH1 0x4 ADD PUSH3 0x799 SWAP2 SWAP1 PUSH3 0x135A JUMP JUMPDEST PUSH1 0x0 PUSH1 0x40 MLOAD DUP1 DUP4 SUB DUP2 PUSH1 0x0 DUP8 DUP1 EXTCODESIZE ISZERO DUP1 ISZERO PUSH3 0x7B4 JUMPI PUSH1 0x0 DUP1 REVERT JUMPDEST POP GAS CALL ISZERO DUP1 ISZERO PUSH3 0x7C9 JUMPI RETURNDATASIZE PUSH1 0x0 DUP1 RETURNDATACOPY RETURNDATASIZE PUSH1 0x0 REVERT JUMPDEST POP POP POP POP POP JUMP JUMPDEST PUSH3 0x7DC PUSH1 0x0 PUSH3 0xB1C JUMP JUMPDEST DUP2 LT PUSH3 0x820 JUMPI PUSH1 0x40 MLOAD PUSH32 0x8C379A000000000000000000000000000000000000000000000000000000000 DUP2 MSTORE PUSH1 0x4 ADD PUSH3 0x817 SWAP1 PUSH3 0x1327 JUMP JUMPDEST PUSH1 0x40 MLOAD DUP1 SWAP2 SUB SWAP1 REVERT JUMPDEST PUSH1 0x3 PUSH1 0x0 DUP3 DUP2 MSTORE PUSH1 0x20 ADD SWAP1 DUP2 MSTORE PUSH1 0x20 ADD PUSH1 0x0 KECCAK256 PUSH1 0x2 ADD PUSH1 0x0 SWAP1 SLOAD SWAP1 PUSH2 0x100 EXP SWAP1 DIV PUSH20 0xFFFFFFFFFFFFFFFFFFFFFFFFFFFFFFFFFFFFFFFF AND PUSH20 0xFFFFFFFFFFFFFFFFFFFFFFFFFFFFFFFFFFFFFFFF AND PUSH4 0x6A627842 CALLVALUE CALLER PUSH1 0x40 MLOAD DUP4 PUSH4 0xFFFFFFFF AND PUSH1 0xE0 SHL DUP2 MSTORE PUSH1 0x4 ADD PUSH3 0x892 SWAP2 SWAP1 PUSH3 0x135A JUMP JUMPDEST PUSH1 0x0 PUSH1 0x40 MLOAD DUP1 DUP4 SUB DUP2 DUP6 DUP9 DUP1 EXTCODESIZE ISZERO DUP1 ISZERO PUSH3 0x8AC JUMPI PUSH1 0x0 DUP1 REVERT JUMPDEST POP GAS CALL ISZERO DUP1 ISZERO PUSH3 0x8C1 JUMPI RETURNDATASIZE PUSH1 0x0 DUP1 RETURNDATACOPY RETURNDATASIZE PUSH1 0x0 REVERT JUMPDEST POP POP POP POP POP POP JUMP JUMPDEST PUSH1 0x3 PUSH1 0x20 MSTORE DUP1 PUSH1 0x0 MSTORE PUSH1 0x40 PUSH1 0x0 KECCAK256 PUSH1 0x0 SWAP2 POP SWAP1 POP DUP1 PUSH1 0x0 ADD SLOAD SWAP1 DUP1 PUSH1 0x1 ADD DUP1 SLOAD PUSH3 0x8F4 SWAP1 PUSH3 0x184E JUMP JUMPDEST DUP1 PUSH1 0x1F ADD PUSH1 0x20 DUP1 SWAP2 DIV MUL PUSH1 0x20 ADD PUSH1 0x40 MLOAD SWAP1 DUP2 ADD PUSH1 0x40 MSTORE DUP1 SWAP3 SWAP2 SWAP1 DUP2 DUP2 MSTORE PUSH1 0x20 ADD DUP3 DUP1 SLOAD PUSH3 0x922 SWAP1 PUSH3 0x184E JUMP JUMPDEST DUP1 ISZERO PUSH3 0x973 JUMPI DUP1 PUSH1 0x1F LT PUSH3 0x947 JUMPI PUSH2 0x100 DUP1 DUP4 SLOAD DIV MUL DUP4 MSTORE SWAP2 PUSH1 0x20 ADD SWAP2 PUSH3 0x973 JUMP JUMPDEST DUP3 ADD SWAP2 SWAP1 PUSH1 0x0 MSTORE PUSH1 0x20 PUSH1 0x0 KECCAK256 SWAP1 JUMPDEST DUP2 SLOAD DUP2 MSTORE SWAP1 PUSH1 0x1 ADD SWAP1 PUSH1 0x20 ADD DUP1 DUP4 GT PUSH3 0x955 JUMPI DUP3 SWAP1 SUB PUSH1 0x1F AND DUP3 ADD SWAP2 JUMPDEST POP POP POP POP POP SWAP1 DUP1 PUSH1 0x2 ADD PUSH1 0x0 SWAP1 SLOAD SWAP1 PUSH2 0x100 EXP SWAP1 DIV PUSH20 0xFFFFFFFFFFFFFFFFFFFFFFFFFFFFFFFFFFFFFFFF AND SWAP1 POP DUP4 JUMP JUMPDEST PUSH1 0x0 PUSH3 0x9B1 PUSH1 0x0 PUSH3 0xB1C JUMP JUMPDEST DUP3 LT PUSH3 0x9F5 JUMPI PUSH1 0x40 MLOAD PUSH32 0x8C379A000000000000000000000000000000000000000000000000000000000 DUP2 MSTORE PUSH1 0x4 ADD PUSH3 0x9EC SWAP1 PUSH3 0x1327 JUMP JUMPDEST PUSH1 0x40 MLOAD DUP1 SWAP2 SUB SWAP1 REVERT JUMPDEST PUSH1 0x3 PUSH1 0x0 DUP4 DUP2 MSTORE PUSH1 0x20 ADD SWAP1 DUP2 MSTORE PUSH1 0x20 ADD PUSH1 0x0 KECCAK256 PUSH1 0x2 ADD PUSH1 0x0 SWAP1 SLOAD SWAP1 PUSH2 0x100 EXP SWAP1 DIV PUSH20 0xFFFFFFFFFFFFFFFFFFFFFFFFFFFFFFFFFFFFFFFF AND PUSH20 0xFFFFFFFFFFFFFFFFFFFFFFFFFFFFFFFFFFFFFFFF AND PUSH4 0xE7AA3AFC PUSH1 0x40 MLOAD DUP2 PUSH4 0xFFFFFFFF AND PUSH1 0xE0 SHL DUP2 MSTORE PUSH1 0x4 ADD PUSH1 0x20 PUSH1 0x40 MLOAD DUP1 DUP4 SUB DUP2 DUP7 GAS STATICCALL ISZERO DUP1 ISZERO PUSH3 0xA77 JUMPI RETURNDATASIZE PUSH1 0x0 DUP1 RETURNDATACOPY RETURNDATASIZE PUSH1 0x0 REVERT JUMPDEST POP POP POP POP PUSH1 0x40 MLOAD RETURNDATASIZE PUSH1 0x1F NOT PUSH1 0x1F DUP3 ADD AND DUP3 ADD DUP1 PUSH1 0x40 MSTORE POP DUP2 ADD SWAP1 PUSH3 0xA9D SWAP2 SWAP1 PUSH3 0x1BDB JUMP JUMPDEST SWAP1 POP SWAP2 SWAP1 POP JUMP JUMPDEST PUSH1 0x2 PUSH1 0x0 SWAP1 SLOAD SWAP1 PUSH2 0x100 EXP SWAP1 DIV PUSH20 0xFFFFFFFFFFFFFFFFFFFFFFFFFFFFFFFFFFFFFFFF AND PUSH20 0xFFFFFFFFFFFFFFFFFFFFFFFFFFFFFFFFFFFFFFFF AND CALLER PUSH20 0xFFFFFFFFFFFFFFFFFFFFFFFFFFFFFFFFFFFFFFFF AND EQ PUSH3 0xAFF JUMPI PUSH1 0x0 DUP1 REVERT JUMPDEST DUP1 PUSH1 0x1 DUP2 SWAP1 SSTORE POP POP JUMP JUMPDEST PUSH1 0x0 PUSH3 0xB17 PUSH1 0x0 PUSH3 0xB1C JUMP JUMPDEST SWAP1 POP SWAP1 JUMP JUMPDEST PUSH1 0x0 DUP2 PUSH1 0x0 ADD SLOAD SWAP1 POP SWAP2 SWAP1 POP JUMP JUMPDEST PUSH1 0x0 DUP1 PUSH1 0x0 JUMPDEST DUP4 MLOAD DUP2 LT ISZERO PUSH3 0xB7D JUMPI DUP4 DUP2 DUP2 MLOAD DUP2 LT PUSH3 0xB50 JUMPI PUSH3 0xB4F PUSH3 0x1C0D JUMP JUMPDEST JUMPDEST PUSH1 0x20 MUL PUSH1 0x20 ADD ADD MLOAD DUP3 PUSH3 0xB65 SWAP2 SWAP1 PUSH3 0x1C6B JUMP JUMPDEST SWAP2 POP DUP1 DUP1 PUSH3 0xB74 SWAP1 PUSH3 0x1CA6 JUMP JUMPDEST SWAP2 POP POP PUSH3 0xB30 JUMP JUMPDEST POP PUSH1 0x64 DUP2 EQ SWAP2 POP POP SWAP2 SWAP1 POP JUMP JUMPDEST PUSH1 0x1 DUP2 PUSH1 0x0 ADD PUSH1 0x0 DUP3 DUP3 SLOAD ADD SWAP3 POP POP DUP2 SWAP1 SSTORE POP POP JUMP JUMPDEST PUSH2 0x249C DUP1 PUSH3 0x1CF4 DUP4 CODECOPY ADD SWAP1 JUMP JUMPDEST PUSH1 0x0 DUP2 SWAP1 POP SWAP2 SWAP1 POP JUMP JUMPDEST PUSH3 0xBC3 DUP2 PUSH3 0xBAE JUMP JUMPDEST DUP3 MSTORE POP POP JUMP JUMPDEST PUSH1 0x0 PUSH1 0x20 DUP3 ADD SWAP1 POP PUSH3 0xBE0 PUSH1 0x0 DUP4 ADD DUP5 PUSH3 0xBB8 JUMP JUMPDEST SWAP3 SWAP2 POP POP JUMP JUMPDEST PUSH1 0x0 PUSH1 0x40 MLOAD SWAP1 POP SWAP1 JUMP JUMPDEST PUSH1 0x0 DUP1 REVERT JUMPDEST PUSH1 0x0 DUP1 REVERT JUMPDEST PUSH3 0xC05 DUP2 PUSH3 0xBAE JUMP JUMPDEST DUP2 EQ PUSH3 0xC11 JUMPI PUSH1 0x0 DUP1 REVERT JUMPDEST POP JUMP JUMPDEST PUSH1 0x0 DUP2 CALLDATALOAD SWAP1 POP PUSH3 0xC25 DUP2 PUSH3 0xBFA JUMP JUMPDEST SWAP3 SWAP2 POP POP JUMP JUMPDEST PUSH1 0x0 PUSH1 0x20 DUP3 DUP5 SUB SLT ISZERO PUSH3 0xC44 JUMPI PUSH3 0xC43 PUSH3 0xBF0 JUMP JUMPDEST JUMPDEST PUSH1 0x0 PUSH3 0xC54 DUP5 DUP3 DUP6 ADD PUSH3 0xC14 JUMP JUMPDEST SWAP2 POP POP SWAP3 SWAP2 POP POP JUMP JUMPDEST PUSH1 0x0 DUP1 REVERT JUMPDEST PUSH1 0x0 DUP1 REVERT JUMPDEST PUSH1 0x0 PUSH1 0x1F NOT PUSH1 0x1F DUP4 ADD AND SWAP1 POP SWAP2 SWAP1 POP JUMP JUMPDEST PUSH32 0x4E487B7100000000000000000000000000000000000000000000000000000000 PUSH1 0x0 MSTORE PUSH1 0x41 PUSH1 0x4 MSTORE PUSH1 0x24 PUSH1 0x0 REVERT JUMPDEST PUSH3 0xCB2 DUP3 PUSH3 0xC67 JUMP JUMPDEST DUP2 ADD DUP2 DUP2 LT PUSH8 0xFFFFFFFFFFFFFFFF DUP3 GT OR ISZERO PUSH3 0xCD4 JUMPI PUSH3 0xCD3 PUSH3 0xC78 JUMP JUMPDEST JUMPDEST DUP1 PUSH1 0x40 MSTORE POP POP POP JUMP JUMPDEST PUSH1 0x0 PUSH3 0xCE9 PUSH3 0xBE6 JUMP JUMPDEST SWAP1 POP PUSH3 0xCF7 DUP3 DUP3 PUSH3 0xCA7 JUMP JUMPDEST SWAP2 SWAP1 POP JUMP JUMPDEST PUSH1 0x0 PUSH8 0xFFFFFFFFFFFFFFFF DUP3 GT ISZERO PUSH3 0xD1A JUMPI PUSH3 0xD19 PUSH3 0xC78 JUMP JUMPDEST JUMPDEST PUSH3 0xD25 DUP3 PUSH3 0xC67 JUMP JUMPDEST SWAP1 POP PUSH1 0x20 DUP2 ADD SWAP1 POP SWAP2 SWAP1 POP JUMP JUMPDEST DUP3 DUP2 DUP4 CALLDATACOPY PUSH1 0x0 DUP4 DUP4 ADD MSTORE POP POP POP JUMP JUMPDEST PUSH1 0x0 PUSH3 0xD58 PUSH3 0xD52 DUP5 PUSH3 0xCFC JUMP JUMPDEST PUSH3 0xCDD JUMP JUMPDEST SWAP1 POP DUP3 DUP2 MSTORE PUSH1 0x20 DUP2 ADD DUP5 DUP5 DUP5 ADD GT ISZERO PUSH3 0xD77 JUMPI PUSH3 0xD76 PUSH3 0xC62 JUMP JUMPDEST JUMPDEST PUSH3 0xD84 DUP5 DUP3 DUP6 PUSH3 0xD32 JUMP JUMPDEST POP SWAP4 SWAP3 POP POP POP JUMP JUMPDEST PUSH1 0x0 DUP3 PUSH1 0x1F DUP4 ADD SLT PUSH3 0xDA4 JUMPI PUSH3 0xDA3 PUSH3 0xC5D JUMP JUMPDEST JUMPDEST DUP2 CALLDATALOAD PUSH3 0xDB6 DUP5 DUP3 PUSH1 0x20 DUP7 ADD PUSH3 0xD41 JUMP JUMPDEST SWAP2 POP POP SWAP3 SWAP2 POP POP JUMP JUMPDEST PUSH1 0x0 PUSH8 0xFFFFFFFFFFFFFFFF DUP3 GT ISZERO PUSH3 0xDDD JUMPI PUSH3 0xDDC PUSH3 0xC78 JUMP JUMPDEST JUMPDEST PUSH1 0x20 DUP3 MUL SWAP1 POP PUSH1 0x20 DUP2 ADD SWAP1 POP SWAP2 SWAP1 POP JUMP JUMPDEST PUSH1 0x0 DUP1 REVERT JUMPDEST PUSH1 0x0 PUSH20 0xFFFFFFFFFFFFFFFFFFFFFFFFFFFFFFFFFFFFFFFF DUP3 AND SWAP1 POP SWAP2 SWAP1 POP JUMP JUMPDEST PUSH1 0x0 PUSH3 0xE20 DUP3 PUSH3 0xDF3 JUMP JUMPDEST SWAP1 POP SWAP2 SWAP1 POP JUMP JUMPDEST PUSH3 0xE32 DUP2 PUSH3 0xE13 JUMP JUMPDEST DUP2 EQ PUSH3 0xE3E JUMPI PUSH1 0x0 DUP1 REVERT JUMPDEST POP JUMP JUMPDEST PUSH1 0x0 DUP2 CALLDATALOAD SWAP1 POP PUSH3 0xE52 DUP2 PUSH3 0xE27 JUMP JUMPDEST SWAP3 SWAP2 POP POP JUMP JUMPDEST PUSH1 0x0 PUSH3 0xE6F PUSH3 0xE69 DUP5 PUSH3 0xDBF JUMP JUMPDEST PUSH3 0xCDD JUMP JUMPDEST SWAP1 POP DUP1 DUP4 DUP3 MSTORE PUSH1 0x20 DUP3 ADD SWAP1 POP PUSH1 0x20 DUP5 MUL DUP4 ADD DUP6 DUP2 GT ISZERO PUSH3 0xE95 JUMPI PUSH3 0xE94 PUSH3 0xDEE JUMP JUMPDEST JUMPDEST DUP4 JUMPDEST DUP2 DUP2 LT ISZERO PUSH3 0xEC2 JUMPI DUP1 PUSH3 0xEAD DUP9 DUP3 PUSH3 0xE41 JUMP JUMPDEST DUP5 MSTORE PUSH1 0x20 DUP5 ADD SWAP4 POP POP PUSH1 0x20 DUP2 ADD SWAP1 POP PUSH3 0xE97 JUMP JUMPDEST POP POP POP SWAP4 SWAP3 POP POP POP JUMP JUMPDEST PUSH1 0x0 DUP3 PUSH1 0x1F DUP4 ADD SLT PUSH3 0xEE4 JUMPI PUSH3 0xEE3 PUSH3 0xC5D JUMP JUMPDEST JUMPDEST DUP2 CALLDATALOAD PUSH3 0xEF6 DUP5 DUP3 PUSH1 0x20 DUP7 ADD PUSH3 0xE58 JUMP JUMPDEST SWAP2 POP POP SWAP3 SWAP2 POP POP JUMP JUMPDEST PUSH1 0x0 PUSH8 0xFFFFFFFFFFFFFFFF DUP3 GT ISZERO PUSH3 0xF1D JUMPI PUSH3 0xF1C PUSH3 0xC78 JUMP JUMPDEST JUMPDEST PUSH1 0x20 DUP3 MUL SWAP1 POP PUSH1 0x20 DUP2 ADD SWAP1 POP SWAP2 SWAP1 POP JUMP JUMPDEST PUSH1 0x0 PUSH3 0xF45 PUSH3 0xF3F DUP5 PUSH3 0xEFF JUMP JUMPDEST PUSH3 0xCDD JUMP JUMPDEST SWAP1 POP DUP1 DUP4 DUP3 MSTORE PUSH1 0x20 DUP3 ADD SWAP1 POP PUSH1 0x20 DUP5 MUL DUP4 ADD DUP6 DUP2 GT ISZERO PUSH3 0xF6B JUMPI PUSH3 0xF6A PUSH3 0xDEE JUMP JUMPDEST JUMPDEST DUP4 JUMPDEST DUP2 DUP2 LT ISZERO PUSH3 0xF98 JUMPI DUP1 PUSH3 0xF83 DUP9 DUP3 PUSH3 0xC14 JUMP JUMPDEST DUP5 MSTORE PUSH1 0x20 DUP5 ADD SWAP4 POP POP PUSH1 0x20 DUP2 ADD SWAP1 POP PUSH3 0xF6D JUMP JUMPDEST POP POP POP SWAP4 SWAP3 POP POP POP JUMP JUMPDEST PUSH1 0x0 DUP3 PUSH1 0x1F DUP4 ADD SLT PUSH3 0xFBA JUMPI PUSH3 0xFB9 PUSH3 0xC5D JUMP JUMPDEST JUMPDEST DUP2 CALLDATALOAD PUSH3 0xFCC DUP5 DUP3 PUSH1 0x20 DUP7 ADD PUSH3 0xF2E JUMP JUMPDEST SWAP2 POP POP SWAP3 SWAP2 POP POP JUMP JUMPDEST PUSH1 0x0 DUP1 PUSH1 0x0 DUP1 PUSH1 0x0 DUP1 PUSH1 0x0 PUSH1 0xE0 DUP9 DUP11 SUB SLT ISZERO PUSH3 0xFF7 JUMPI PUSH3 0xFF6 PUSH3 0xBF0 JUMP JUMPDEST JUMPDEST PUSH1 0x0 DUP9 ADD CALLDATALOAD PUSH8 0xFFFFFFFFFFFFFFFF DUP2 GT ISZERO PUSH3 0x1018 JUMPI PUSH3 0x1017 PUSH3 0xBF5 JUMP JUMPDEST JUMPDEST PUSH3 0x1026 DUP11 DUP3 DUP12 ADD PUSH3 0xD8C JUMP JUMPDEST SWAP8 POP POP PUSH1 0x20 DUP9 ADD CALLDATALOAD PUSH8 0xFFFFFFFFFFFFFFFF DUP2 GT ISZERO PUSH3 0x104A JUMPI PUSH3 0x1049 PUSH3 0xBF5 JUMP JUMPDEST JUMPDEST PUSH3 0x1058 DUP11 DUP3 DUP12 ADD PUSH3 0xD8C JUMP JUMPDEST SWAP7 POP POP PUSH1 0x40 PUSH3 0x106B DUP11 DUP3 DUP12 ADD PUSH3 0xC14 JUMP JUMPDEST SWAP6 POP POP PUSH1 0x60 PUSH3 0x107E DUP11 DUP3 DUP12 ADD PUSH3 0xC14 JUMP JUMPDEST SWAP5 POP POP PUSH1 0x80 DUP9 ADD CALLDATALOAD PUSH8 0xFFFFFFFFFFFFFFFF DUP2 GT ISZERO PUSH3 0x10A2 JUMPI PUSH3 0x10A1 PUSH3 0xBF5 JUMP JUMPDEST JUMPDEST PUSH3 0x10B0 DUP11 DUP3 DUP12 ADD PUSH3 0xECC JUMP JUMPDEST SWAP4 POP POP PUSH1 0xA0 DUP9 ADD CALLDATALOAD PUSH8 0xFFFFFFFFFFFFFFFF DUP2 GT ISZERO PUSH3 0x10D4 JUMPI PUSH3 0x10D3 PUSH3 0xBF5 JUMP JUMPDEST JUMPDEST PUSH3 0x10E2 DUP11 DUP3 DUP12 ADD PUSH3 0xFA2 JUMP JUMPDEST SWAP3 POP POP PUSH1 0xC0 DUP9 ADD CALLDATALOAD PUSH8 0xFFFFFFFFFFFFFFFF DUP2 GT ISZERO PUSH3 0x1106 JUMPI PUSH3 0x1105 PUSH3 0xBF5 JUMP JUMPDEST JUMPDEST PUSH3 0x1114 DUP11 DUP3 DUP12 ADD PUSH3 0xD8C JUMP JUMPDEST SWAP2 POP POP SWAP3 SWAP6 SWAP9 SWAP2 SWAP5 SWAP8 POP SWAP3 SWAP6 POP JUMP JUMPDEST PUSH1 0x0 PUSH3 0x1130 DUP3 PUSH3 0xDF3 JUMP JUMPDEST SWAP1 POP SWAP2 SWAP1 POP JUMP JUMPDEST PUSH3 0x1142 DUP2 PUSH3 0x1123 JUMP JUMPDEST DUP3 MSTORE POP POP JUMP JUMPDEST PUSH1 0x0 PUSH1 0x20 DUP3 ADD SWAP1 POP PUSH3 0x115F PUSH1 0x0 DUP4 ADD DUP5 PUSH3 0x1137 JUMP JUMPDEST SWAP3 SWAP2 POP POP JUMP JUMPDEST PUSH1 0x0 DUP2 MLOAD SWAP1 POP SWAP2 SWAP1 POP JUMP JUMPDEST PUSH1 0x0 DUP3 DUP3 MSTORE PUSH1 0x20 DUP3 ADD SWAP1 POP SWAP3 SWAP2 POP POP JUMP JUMPDEST PUSH1 0x0 JUMPDEST DUP4 DUP2 LT ISZERO PUSH3 0x11A1 JUMPI DUP1 DUP3 ADD MLOAD DUP2 DUP5 ADD MSTORE PUSH1 0x20 DUP2 ADD SWAP1 POP PUSH3 0x1184 JUMP JUMPDEST PUSH1 0x0 DUP5 DUP5 ADD MSTORE POP POP POP POP JUMP JUMPDEST PUSH1 0x0 PUSH3 0x11BA DUP3 PUSH3 0x1165 JUMP JUMPDEST PUSH3 0x11C6 DUP2 DUP6 PUSH3 0x1170 JUMP JUMPDEST SWAP4 POP PUSH3 0x11D8 DUP2 DUP6 PUSH1 0x20 DUP7 ADD PUSH3 0x1181 JUMP JUMPDEST PUSH3 0x11E3 DUP2 PUSH3 0xC67 JUMP JUMPDEST DUP5 ADD SWAP2 POP POP SWAP3 SWAP2 POP POP JUMP JUMPDEST PUSH1 0x0 DUP2 SWAP1 POP SWAP2 SWAP1 POP JUMP JUMPDEST PUSH1 0x0 PUSH3 0x1219 PUSH3 0x1213 PUSH3 0x120D DUP5 PUSH3 0xDF3 JUMP JUMPDEST PUSH3 0x11EE JUMP JUMPDEST PUSH3 0xDF3 JUMP JUMPDEST SWAP1 POP SWAP2 SWAP1 POP JUMP JUMPDEST PUSH1 0x0 PUSH3 0x122D DUP3 PUSH3 0x11F8 JUMP JUMPDEST SWAP1 POP SWAP2 SWAP1 POP JUMP JUMPDEST PUSH1 0x0 PUSH3 0x1241 DUP3 PUSH3 0x1220 JUMP JUMPDEST SWAP1 POP SWAP2 SWAP1 POP JUMP JUMPDEST PUSH3 0x1253 DUP2 PUSH3 0x1234 JUMP JUMPDEST DUP3 MSTORE POP POP JUMP JUMPDEST PUSH1 0x0 PUSH1 0x60 DUP3 ADD SWAP1 POP PUSH3 0x1270 PUSH1 0x0 DUP4 ADD DUP7 PUSH3 0xBB8 JUMP JUMPDEST DUP2 DUP2 SUB PUSH1 0x20 DUP4 ADD MSTORE PUSH3 0x1284 DUP2 DUP6 PUSH3 0x11AD JUMP JUMPDEST SWAP1 POP PUSH3 0x1295 PUSH1 0x40 DUP4 ADD DUP5 PUSH3 0x1248 JUMP JUMPDEST SWAP5 SWAP4 POP POP POP POP JUMP JUMPDEST PUSH1 0x0 DUP2 ISZERO ISZERO SWAP1 POP SWAP2 SWAP1 POP JUMP JUMPDEST PUSH3 0x12B4 DUP2 PUSH3 0x129D JUMP JUMPDEST DUP3 MSTORE POP POP JUMP JUMPDEST PUSH1 0x0 PUSH1 0x20 DUP3 ADD SWAP1 POP PUSH3 0x12D1 PUSH1 0x0 DUP4 ADD DUP5 PUSH3 0x12A9 JUMP JUMPDEST SWAP3 SWAP2 POP POP JUMP JUMPDEST PUSH32 0x496E76616C69642050726F6A6563742049640000000000000000000000000000 PUSH1 0x0 DUP3 ADD MSTORE POP JUMP JUMPDEST PUSH1 0x0 PUSH3 0x130F PUSH1 0x12 DUP4 PUSH3 0x1170 JUMP JUMPDEST SWAP2 POP PUSH3 0x131C DUP3 PUSH3 0x12D7 JUMP JUMPDEST PUSH1 0x20 DUP3 ADD SWAP1 POP SWAP2 SWAP1 POP JUMP JUMPDEST PUSH1 0x0 PUSH1 0x20 DUP3 ADD SWAP1 POP DUP2 DUP2 SUB PUSH1 0x0 DUP4 ADD MSTORE PUSH3 0x1342 DUP2 PUSH3 0x1300 JUMP JUMPDEST SWAP1 POP SWAP2 SWAP1 POP JUMP JUMPDEST PUSH3 0x1354 DUP2 PUSH3 0xE13 JUMP JUMPDEST DUP3 MSTORE POP POP JUMP JUMPDEST PUSH1 0x0 PUSH1 0x20 DUP3 ADD SWAP1 POP PUSH3 0x1371 PUSH1 0x0 DUP4 ADD DUP5 PUSH3 0x1349 JUMP JUMPDEST SWAP3 SWAP2 POP POP JUMP JUMPDEST PUSH1 0x0 DUP2 MLOAD SWAP1 POP PUSH3 0x1388 DUP2 PUSH3 0xBFA JUMP JUMPDEST SWAP3 SWAP2 POP POP JUMP JUMPDEST PUSH1 0x0 PUSH1 0x20 DUP3 DUP5 SUB SLT ISZERO PUSH3 0x13A7 JUMPI PUSH3 0x13A6 PUSH3 0xBF0 JUMP JUMPDEST JUMPDEST PUSH1 0x0 PUSH3 0x13B7 DUP5 DUP3 DUP6 ADD PUSH3 0x1377 JUMP JUMPDEST SWAP2 POP POP SWAP3 SWAP2 POP POP JUMP JUMPDEST PUSH32 0x496E73756666696369656E7420416D6F756E7400000000000000000000000000 PUSH1 0x0 DUP3 ADD MSTORE POP JUMP JUMPDEST PUSH1 0x0 PUSH3 0x13F8 PUSH1 0x13 DUP4 PUSH3 0x1170 JUMP JUMPDEST SWAP2 POP PUSH3 0x1405 DUP3 PUSH3 0x13C0 JUMP JUMPDEST PUSH1 0x20 DUP3 ADD SWAP1 POP SWAP2 SWAP1 POP JUMP JUMPDEST PUSH1 0x0 PUSH1 0x20 DUP3 ADD SWAP1 POP DUP2 DUP2 SUB PUSH1 0x0 DUP4 ADD MSTORE PUSH3 0x142B DUP2 PUSH3 0x13E9 JUMP JUMPDEST SWAP1 POP SWAP2 SWAP1 POP JUMP JUMPDEST PUSH32 0x5468657265206D7573742062652061746C65617374206F6E652063726561746F PUSH1 0x0 DUP3 ADD MSTORE PUSH32 0x7200000000000000000000000000000000000000000000000000000000000000 PUSH1 0x20 DUP3 ADD MSTORE POP JUMP JUMPDEST PUSH1 0x0 PUSH3 0x1490 PUSH1 0x21 DUP4 PUSH3 0x1170 JUMP JUMPDEST SWAP2 POP PUSH3 0x149D DUP3 PUSH3 0x1432 JUMP JUMPDEST PUSH1 0x40 DUP3 ADD SWAP1 POP SWAP2 SWAP1 POP JUMP JUMPDEST PUSH1 0x0 PUSH1 0x20 DUP3 ADD SWAP1 POP DUP2 DUP2 SUB PUSH1 0x0 DUP4 ADD MSTORE PUSH3 0x14C3 DUP2 PUSH3 0x1481 JUMP JUMPDEST SWAP1 POP SWAP2 SWAP1 POP JUMP JUMPDEST PUSH32 0x4C656E677468206F662063726561746F727320616E6420726F79616C74696573 PUSH1 0x0 DUP3 ADD MSTORE PUSH32 0x206172726179206D75737420626520657175616C000000000000000000000000 PUSH1 0x20 DUP3 ADD MSTORE POP JUMP JUMPDEST PUSH1 0x0 PUSH3 0x1528 PUSH1 0x34 DUP4 PUSH3 0x1170 JUMP JUMPDEST SWAP2 POP PUSH3 0x1535 DUP3 PUSH3 0x14CA JUMP JUMPDEST PUSH1 0x40 DUP3 ADD SWAP1 POP SWAP2 SWAP1 POP JUMP JUMPDEST PUSH1 0x0 PUSH1 0x20 DUP3 ADD SWAP1 POP DUP2 DUP2 SUB PUSH1 0x0 DUP4 ADD MSTORE PUSH3 0x155B DUP2 PUSH3 0x1519 JUMP JUMPDEST SWAP1 POP SWAP2 SWAP1 POP JUMP JUMPDEST PUSH32 0x53756D206F6620726F79616C747920646973747269627574696F6E206D757374 PUSH1 0x0 DUP3 ADD MSTORE PUSH32 0x20626520657175616C20746F2031303000000000000000000000000000000000 PUSH1 0x20 DUP3 ADD MSTORE POP JUMP JUMPDEST PUSH1 0x0 PUSH3 0x15C0 PUSH1 0x30 DUP4 PUSH3 0x1170 JUMP JUMPDEST SWAP2 POP PUSH3 0x15CD DUP3 PUSH3 0x1562 JUMP JUMPDEST PUSH1 0x40 DUP3 ADD SWAP1 POP SWAP2 SWAP1 POP JUMP JUMPDEST PUSH1 0x0 PUSH1 0x20 DUP3 ADD SWAP1 POP DUP2 DUP2 SUB PUSH1 0x0 DUP4 ADD MSTORE PUSH3 0x15F3 DUP2 PUSH3 0x15B1 JUMP JUMPDEST SWAP1 POP SWAP2 SWAP1 POP JUMP JUMPDEST PUSH1 0x0 DUP2 MLOAD SWAP1 POP SWAP2 SWAP1 POP JUMP JUMPDEST PUSH1 0x0 DUP3 DUP3 MSTORE PUSH1 0x20 DUP3 ADD SWAP1 POP SWAP3 SWAP2 POP POP JUMP JUMPDEST PUSH1 0x0 DUP2 SWAP1 POP PUSH1 0x20 DUP3 ADD SWAP1 POP SWAP2 SWAP1 POP JUMP JUMPDEST PUSH3 0x1631 DUP2 PUSH3 0xE13 JUMP JUMPDEST DUP3 MSTORE POP POP JUMP JUMPDEST PUSH1 0x0 PUSH3 0x1645 DUP4 DUP4 PUSH3 0x1626 JUMP JUMPDEST PUSH1 0x20 DUP4 ADD SWAP1 POP SWAP3 SWAP2 POP POP JUMP JUMPDEST PUSH1 0x0 PUSH1 0x20 DUP3 ADD SWAP1 POP SWAP2 SWAP1 POP JUMP JUMPDEST PUSH1 0x0 PUSH3 0x166B DUP3 PUSH3 0x15FA JUMP JUMPDEST PUSH3 0x1677 DUP2 DUP6 PUSH3 0x1605 JUMP JUMPDEST SWAP4 POP PUSH3 0x1684 DUP4 PUSH3 0x1616 JUMP JUMPDEST DUP1 PUSH1 0x0 JUMPDEST DUP4 DUP2 LT ISZERO PUSH3 0x16BB JUMPI DUP2 MLOAD PUSH3 0x169F DUP9 DUP3 PUSH3 0x1637 JUMP JUMPDEST SWAP8 POP PUSH3 0x16AC DUP4 PUSH3 0x1651 JUMP JUMPDEST SWAP3 POP POP PUSH1 0x1 DUP2 ADD SWAP1 POP PUSH3 0x1688 JUMP JUMPDEST POP DUP6 SWAP4 POP POP POP POP SWAP3 SWAP2 POP POP JUMP JUMPDEST PUSH1 0x0 DUP2 MLOAD SWAP1 POP SWAP2 SWAP1 POP JUMP JUMPDEST PUSH1 0x0 DUP3 DUP3 MSTORE PUSH1 0x20 DUP3 ADD SWAP1 POP SWAP3 SWAP2 POP POP JUMP JUMPDEST PUSH1 0x0 DUP2 SWAP1 POP PUSH1 0x20 DUP3 ADD SWAP1 POP SWAP2 SWAP1 POP JUMP JUMPDEST PUSH3 0x16FF DUP2 PUSH3 0xBAE JUMP JUMPDEST DUP3 MSTORE POP POP JUMP JUMPDEST PUSH1 0x0 PUSH3 0x1713 DUP4 DUP4 PUSH3 0x16F4 JUMP JUMPDEST PUSH1 0x20 DUP4 ADD SWAP1 POP SWAP3 SWAP2 POP POP JUMP JUMPDEST PUSH1 0x0 PUSH1 0x20 DUP3 ADD SWAP1 POP SWAP2 SWAP1 POP JUMP JUMPDEST PUSH1 0x0 PUSH3 0x1739 DUP3 PUSH3 0x16C8 JUMP JUMPDEST PUSH3 0x1745 DUP2 DUP6 PUSH3 0x16D3 JUMP JUMPDEST SWAP4 POP PUSH3 0x1752 DUP4 PUSH3 0x16E4 JUMP JUMPDEST DUP1 PUSH1 0x0 JUMPDEST DUP4 DUP2 LT ISZERO PUSH3 0x1789 JUMPI DUP2 MLOAD PUSH3 0x176D DUP9 DUP3 PUSH3 0x1705 JUMP JUMPDEST SWAP8 POP PUSH3 0x177A DUP4 PUSH3 0x171F JUMP JUMPDEST SWAP3 POP POP PUSH1 0x1 DUP2 ADD SWAP1 POP PUSH3 0x1756 JUMP JUMPDEST POP DUP6 SWAP4 POP POP POP POP SWAP3 SWAP2 POP POP JUMP JUMPDEST PUSH1 0x0 PUSH1 0xC0 DUP3 ADD SWAP1 POP DUP2 DUP2 SUB PUSH1 0x0 DUP4 ADD MSTORE PUSH3 0x17B2 DUP2 DUP10 PUSH3 0x11AD JUMP JUMPDEST SWAP1 POP DUP2 DUP2 SUB PUSH1 0x20 DUP4 ADD MSTORE PUSH3 0x17C8 DUP2 DUP9 PUSH3 0x11AD JUMP JUMPDEST SWAP1 POP PUSH3 0x17D9 PUSH1 0x40 DUP4 ADD DUP8 PUSH3 0xBB8 JUMP JUMPDEST PUSH3 0x17E8 PUSH1 0x60 DUP4 ADD DUP7 PUSH3 0xBB8 JUMP JUMPDEST DUP2 DUP2 SUB PUSH1 0x80 DUP4 ADD MSTORE PUSH3 0x17FC DUP2 DUP6 PUSH3 0x165E JUMP JUMPDEST SWAP1 POP DUP2 DUP2 SUB PUSH1 0xA0 DUP4 ADD MSTORE PUSH3 0x1812 DUP2 DUP5 PUSH3 0x172C JUMP JUMPDEST SWAP1 POP SWAP8 SWAP7 POP POP POP POP POP POP POP JUMP JUMPDEST PUSH32 0x4E487B7100000000000000000000000000000000000000000000000000000000 PUSH1 0x0 MSTORE PUSH1 0x22 PUSH1 0x4 MSTORE PUSH1 0x24 PUSH1 0x0 REVERT JUMPDEST PUSH1 0x0 PUSH1 0x2 DUP3 DIV SWAP1 POP PUSH1 0x1 DUP3 AND DUP1 PUSH3 0x1867 JUMPI PUSH1 0x7F DUP3 AND SWAP2 POP JUMPDEST PUSH1 0x20 DUP3 LT DUP2 SUB PUSH3 0x187D JUMPI PUSH3 0x187C PUSH3 0x181F JUMP JUMPDEST JUMPDEST POP SWAP2 SWAP1 POP JUMP JUMPDEST PUSH1 0x0 DUP2 SWAP1 POP DUP2 PUSH1 0x0 MSTORE PUSH1 0x20 PUSH1 0x0 KECCAK256 SWAP1 POP SWAP2 SWAP1 POP JUMP JUMPDEST PUSH1 0x0 PUSH1 0x20 PUSH1 0x1F DUP4 ADD DIV SWAP1 POP SWAP2 SWAP1 POP JUMP JUMPDEST PUSH1 0x0 DUP3 DUP3 SHL SWAP1 POP SWAP3 SWAP2 POP POP JUMP JUMPDEST PUSH1 0x0 PUSH1 0x8 DUP4 MUL PUSH3 0x18E7 PUSH32 0xFFFFFFFFFFFFFFFFFFFFFFFFFFFFFFFFFFFFFFFFFFFFFFFFFFFFFFFFFFFFFFFF DUP3 PUSH3 0x18A8 JUMP JUMPDEST PUSH3 0x18F3 DUP7 DUP4 PUSH3 0x18A8 JUMP JUMPDEST SWAP6 POP DUP1 NOT DUP5 AND SWAP4 POP DUP1 DUP7 AND DUP5 OR SWAP3 POP POP POP SWAP4 SWAP3 POP POP POP JUMP JUMPDEST PUSH1 0x0 PUSH3 0x192C PUSH3 0x1926 PUSH3 0x1920 DUP5 PUSH3 0xBAE JUMP JUMPDEST PUSH3 0x11EE JUMP JUMPDEST PUSH3 0xBAE JUMP JUMPDEST SWAP1 POP SWAP2 SWAP1 POP JUMP JUMPDEST PUSH1 0x0 DUP2 SWAP1 POP SWAP2 SWAP1 POP JUMP JUMPDEST PUSH3 0x1948 DUP4 PUSH3 0x190B JUMP JUMPDEST PUSH3 0x1960 PUSH3 0x1957 DUP3 PUSH3 0x1933 JUMP JUMPDEST DUP5 DUP5 SLOAD PUSH3 0x18B5 JUMP JUMPDEST DUP3 SSTORE POP POP POP POP JUMP JUMPDEST PUSH1 0x0 SWAP1 JUMP JUMPDEST PUSH3 0x1977 PUSH3 0x1968 JUMP JUMPDEST PUSH3 0x1984 DUP2 DUP5 DUP5 PUSH3 0x193D JUMP JUMPDEST POP POP POP JUMP JUMPDEST JUMPDEST DUP2 DUP2 LT ISZERO PUSH3 0x19AC JUMPI PUSH3 0x19A0 PUSH1 0x0 DUP3 PUSH3 0x196D JUMP JUMPDEST PUSH1 0x1 DUP2 ADD SWAP1 POP PUSH3 0x198A JUMP JUMPDEST POP POP JUMP JUMPDEST PUSH1 0x1F DUP3 GT ISZERO PUSH3 0x19FB JUMPI PUSH3 0x19C5 DUP2 PUSH3 0x1883 JUMP JUMPDEST PUSH3 0x19D0 DUP5 PUSH3 0x1898 JUMP JUMPDEST DUP2 ADD PUSH1 0x20 DUP6 LT ISZERO PUSH3 0x19E0 JUMPI DUP2 SWAP1 POP JUMPDEST PUSH3 0x19F8 PUSH3 0x19EF DUP6 PUSH3 0x1898 JUMP JUMPDEST DUP4 ADD DUP3 PUSH3 0x1989 JUMP JUMPDEST POP POP JUMPDEST POP POP POP JUMP JUMPDEST PUSH1 0x0 DUP3 DUP3 SHR SWAP1 POP SWAP3 SWAP2 POP POP JUMP JUMPDEST PUSH1 0x0 PUSH3 0x1A20 PUSH1 0x0 NOT DUP5 PUSH1 0x8 MUL PUSH3 0x1A00 JUMP JUMPDEST NOT DUP1 DUP4 AND SWAP2 POP POP SWAP3 SWAP2 POP POP JUMP JUMPDEST PUSH1 0x0 PUSH3 0x1A3B DUP4 DUP4 PUSH3 0x1A0D JUMP JUMPDEST SWAP2 POP DUP3 PUSH1 0x2 MUL DUP3 OR SWAP1 POP SWAP3 SWAP2 POP POP JUMP JUMPDEST PUSH3 0x1A56 DUP3 PUSH3 0x1165 JUMP JUMPDEST PUSH8 0xFFFFFFFFFFFFFFFF DUP2 GT ISZERO PUSH3 0x1A72 JUMPI PUSH3 0x1A71 PUSH3 0xC78 JUMP JUMPDEST JUMPDEST PUSH3 0x1A7E DUP3 SLOAD PUSH3 0x184E JUMP JUMPDEST PUSH3 0x1A8B DUP3 DUP3 DUP6 PUSH3 0x19B0 JUMP JUMPDEST PUSH1 0x0 PUSH1 0x20 SWAP1 POP PUSH1 0x1F DUP4 GT PUSH1 0x1 DUP2 EQ PUSH3 0x1AC3 JUMPI PUSH1 0x0 DUP5 ISZERO PUSH3 0x1AAE JUMPI DUP3 DUP8 ADD MLOAD SWAP1 POP JUMPDEST PUSH3 0x1ABA DUP6 DUP3 PUSH3 0x1A2D JUMP JUMPDEST DUP7 SSTORE POP PUSH3 0x1B2A JUMP JUMPDEST PUSH1 0x1F NOT DUP5 AND PUSH3 0x1AD3 DUP7 PUSH3 0x1883 JUMP JUMPDEST PUSH1 0x0 JUMPDEST DUP3 DUP2 LT ISZERO PUSH3 0x1AFD JUMPI DUP5 DUP10 ADD MLOAD DUP3 SSTORE PUSH1 0x1 DUP3 ADD SWAP2 POP PUSH1 0x20 DUP6 ADD SWAP5 POP PUSH1 0x20 DUP2 ADD SWAP1 POP PUSH3 0x1AD6 JUMP JUMPDEST DUP7 DUP4 LT ISZERO PUSH3 0x1B1D JUMPI DUP5 DUP10 ADD MLOAD PUSH3 0x1B19 PUSH1 0x1F DUP10 AND DUP3 PUSH3 0x1A0D JUMP JUMPDEST DUP4 SSTORE POP JUMPDEST PUSH1 0x1 PUSH1 0x2 DUP9 MUL ADD DUP9 SSTORE POP POP POP JUMPDEST POP POP POP POP POP POP JUMP JUMPDEST PUSH1 0x0 DUP2 SWAP1 POP SWAP3 SWAP2 POP POP JUMP JUMPDEST PUSH1 0x0 PUSH3 0x1B4A DUP3 PUSH3 0x1165 JUMP JUMPDEST PUSH3 0x1B56 DUP2 DUP6 PUSH3 0x1B32 JUMP JUMPDEST SWAP4 POP PUSH3 0x1B68 DUP2 DUP6 PUSH1 0x20 DUP7 ADD PUSH3 0x1181 JUMP JUMPDEST DUP1 DUP5 ADD SWAP2 POP POP SWAP3 SWAP2 POP POP JUMP JUMPDEST PUSH1 0x0 PUSH3 0x1B82 DUP3 DUP5 PUSH3 0x1B3D JUMP JUMPDEST SWAP2 POP DUP2 SWAP1 POP SWAP3 SWAP2 POP POP JUMP JUMPDEST PUSH1 0x0 PUSH1 0x20 DUP3 ADD SWAP1 POP PUSH3 0x1BA4 PUSH1 0x0 DUP4 ADD DUP5 PUSH3 0x1248 JUMP JUMPDEST SWAP3 SWAP2 POP POP JUMP JUMPDEST PUSH3 0x1BB5 DUP2 PUSH3 0x129D JUMP JUMPDEST DUP2 EQ PUSH3 0x1BC1 JUMPI PUSH1 0x0 DUP1 REVERT JUMPDEST POP JUMP JUMPDEST PUSH1 0x0 DUP2 MLOAD SWAP1 POP PUSH3 0x1BD5 DUP2 PUSH3 0x1BAA JUMP JUMPDEST SWAP3 SWAP2 POP POP JUMP JUMPDEST PUSH1 0x0 PUSH1 0x20 DUP3 DUP5 SUB SLT ISZERO PUSH3 0x1BF4 JUMPI PUSH3 0x1BF3 PUSH3 0xBF0 JUMP JUMPDEST JUMPDEST PUSH1 0x0 PUSH3 0x1C04 DUP5 DUP3 DUP6 ADD PUSH3 0x1BC4 JUMP JUMPDEST SWAP2 POP POP SWAP3 SWAP2 POP POP JUMP JUMPDEST PUSH32 0x4E487B7100000000000000000000000000000000000000000000000000000000 PUSH1 0x0 MSTORE PUSH1 0x32 PUSH1 0x4 MSTORE PUSH1 0x24 PUSH1 0x0 REVERT JUMPDEST PUSH32 0x4E487B7100000000000000000000000000000000000000000000000000000000 PUSH1 0x0 MSTORE PUSH1 0x11 PUSH1 0x4 MSTORE PUSH1 0x24 PUSH1 0x0 REVERT JUMPDEST PUSH1 0x0 PUSH3 0x1C78 DUP3 PUSH3 0xBAE JUMP JUMPDEST SWAP2 POP PUSH3 0x1C85 DUP4 PUSH3 0xBAE JUMP JUMPDEST SWAP3 POP DUP3 DUP3 ADD SWAP1 POP DUP1 DUP3 GT ISZERO PUSH3 0x1CA0 JUMPI PUSH3 0x1C9F PUSH3 0x1C3C JUMP JUMPDEST JUMPDEST SWAP3 SWAP2 POP POP JUMP JUMPDEST PUSH1 0x0 PUSH3 0x1CB3 DUP3 PUSH3 0xBAE JUMP JUMPDEST SWAP2 POP PUSH32 0xFFFFFFFFFFFFFFFFFFFFFFFFFFFFFFFFFFFFFFFFFFFFFFFFFFFFFFFFFFFFFFFF DUP3 SUB PUSH3 0x1CE8 JUMPI PUSH3 0x1CE7 PUSH3 0x1C3C JUMP JUMPDEST JUMPDEST PUSH1 0x1 DUP3 ADD SWAP1 POP SWAP2 SWAP1 POP JUMP INVALID PUSH1 0x80 PUSH1 0x40 MSTORE PUSH1 0x1 PUSH1 0xA PUSH1 0x0 PUSH2 0x100 EXP DUP2 SLOAD DUP2 PUSH1 0xFF MUL NOT AND SWAP1 DUP4 ISZERO ISZERO MUL OR SWAP1 SSTORE POP CALLVALUE DUP1 ISZERO PUSH3 0x2C JUMPI PUSH1 0x0 DUP1 REVERT JUMPDEST POP PUSH1 0x40 MLOAD PUSH3 0x249C CODESIZE SUB DUP1 PUSH3 0x249C DUP4 CODECOPY DUP2 DUP2 ADD PUSH1 0x40 MSTORE DUP2 ADD SWAP1 PUSH3 0x52 SWAP2 SWAP1 PUSH3 0x5AA JUMP JUMPDEST DUP6 DUP6 DUP2 PUSH1 0x3 SWAP1 DUP2 PUSH3 0x65 SWAP2 SWAP1 PUSH3 0x903 JUMP JUMPDEST POP DUP1 PUSH1 0x4 SWAP1 DUP2 PUSH3 0x77 SWAP2 SWAP1 PUSH3 0x903 JUMP JUMPDEST POP POP POP DUP4 PUSH1 0x6 DUP2 SWAP1 SSTORE POP DUP3 PUSH1 0x7 DUP2 SWAP1 SSTORE POP DUP2 PUSH1 0x8 SWAP1 DUP1 MLOAD SWAP1 PUSH1 0x20 ADD SWAP1 PUSH3 0xA0 SWAP3 SWAP2 SWAP1 PUSH3 0xC6 JUMP JUMPDEST POP DUP1 PUSH1 0x9 SWAP1 DUP1 MLOAD SWAP1 PUSH1 0x20 ADD SWAP1 PUSH3 0xB9 SWAP3 SWAP2 SWAP1 PUSH3 0x155 JUMP JUMPDEST POP POP POP POP POP POP POP PUSH3 0x9EA JUMP JUMPDEST DUP3 DUP1 SLOAD DUP3 DUP3 SSTORE SWAP1 PUSH1 0x0 MSTORE PUSH1 0x20 PUSH1 0x0 KECCAK256 SWAP1 DUP2 ADD SWAP3 DUP3 ISZERO PUSH3 0x142 JUMPI SWAP2 PUSH1 0x20 MUL DUP3 ADD JUMPDEST DUP3 DUP2 GT ISZERO PUSH3 0x141 JUMPI DUP3 MLOAD DUP3 PUSH1 0x0 PUSH2 0x100 EXP DUP2 SLOAD DUP2 PUSH20 0xFFFFFFFFFFFFFFFFFFFFFFFFFFFFFFFFFFFFFFFF MUL NOT AND SWAP1 DUP4 PUSH20 0xFFFFFFFFFFFFFFFFFFFFFFFFFFFFFFFFFFFFFFFF AND MUL OR SWAP1 SSTORE POP SWAP2 PUSH1 0x20 ADD SWAP2 SWAP1 PUSH1 0x1 ADD SWAP1 PUSH3 0xE7 JUMP JUMPDEST JUMPDEST POP SWAP1 POP PUSH3 0x151 SWAP2 SWAP1 PUSH3 0x1A7 JUMP JUMPDEST POP SWAP1 JUMP JUMPDEST DUP3 DUP1 SLOAD DUP3 DUP3 SSTORE SWAP1 PUSH1 0x0 MSTORE PUSH1 0x20 PUSH1 0x0 KECCAK256 SWAP1 DUP2 ADD SWAP3 DUP3 ISZERO PUSH3 0x194 JUMPI SWAP2 PUSH1 0x20 MUL DUP3 ADD JUMPDEST DUP3 DUP2 GT ISZERO PUSH3 0x193 JUMPI DUP3 MLOAD DUP3 SSTORE SWAP2 PUSH1 0x20 ADD SWAP2 SWAP1 PUSH1 0x1 ADD SWAP1 PUSH3 0x176 JUMP JUMPDEST JUMPDEST POP SWAP1 POP PUSH3 0x1A3 SWAP2 SWAP1 PUSH3 0x1A7 JUMP JUMPDEST POP SWAP1 JUMP JUMPDEST JUMPDEST DUP1 DUP3 GT ISZERO PUSH3 0x1C2 JUMPI PUSH1 0x0 DUP2 PUSH1 0x0 SWAP1 SSTORE POP PUSH1 0x1 ADD PUSH3 0x1A8 JUMP JUMPDEST POP SWAP1 JUMP JUMPDEST PUSH1 0x0 PUSH1 0x40 MLOAD SWAP1 POP SWAP1 JUMP JUMPDEST PUSH1 0x0 DUP1 REVERT JUMPDEST PUSH1 0x0 DUP1 REVERT JUMPDEST PUSH1 0x0 DUP1 REVERT JUMPDEST PUSH1 0x0 DUP1 REVERT JUMPDEST PUSH1 0x0 PUSH1 0x1F NOT PUSH1 0x1F DUP4 ADD AND SWAP1 POP SWAP2 SWAP1 POP JUMP JUMPDEST PUSH32 0x4E487B7100000000000000000000000000000000000000000000000000000000 PUSH1 0x0 MSTORE PUSH1 0x41 PUSH1 0x4 MSTORE PUSH1 0x24 PUSH1 0x0 REVERT JUMPDEST PUSH3 0x22F DUP3 PUSH3 0x1E4 JUMP JUMPDEST DUP2 ADD DUP2 DUP2 LT PUSH8 0xFFFFFFFFFFFFFFFF DUP3 GT OR ISZERO PUSH3 0x251 JUMPI PUSH3 0x250 PUSH3 0x1F5 JUMP JUMPDEST JUMPDEST DUP1 PUSH1 0x40 MSTORE POP POP POP JUMP JUMPDEST PUSH1 0x0 PUSH3 0x266 PUSH3 0x1C6 JUMP JUMPDEST SWAP1 POP PUSH3 0x274 DUP3 DUP3 PUSH3 0x224 JUMP JUMPDEST SWAP2 SWAP1 POP JUMP JUMPDEST PUSH1 0x0 PUSH8 0xFFFFFFFFFFFFFFFF DUP3 GT ISZERO PUSH3 0x297 JUMPI PUSH3 0x296 PUSH3 0x1F5 JUMP JUMPDEST JUMPDEST PUSH3 0x2A2 DUP3 PUSH3 0x1E4 JUMP JUMPDEST SWAP1 POP PUSH1 0x20 DUP2 ADD SWAP1 POP SWAP2 SWAP1 POP JUMP JUMPDEST PUSH1 0x0 JUMPDEST DUP4 DUP2 LT ISZERO PUSH3 0x2CF JUMPI DUP1 DUP3 ADD MLOAD DUP2 DUP5 ADD MSTORE PUSH1 0x20 DUP2 ADD SWAP1 POP PUSH3 0x2B2 JUMP JUMPDEST PUSH1 0x0 DUP5 DUP5 ADD MSTORE POP POP POP POP JUMP JUMPDEST PUSH1 0x0 PUSH3 0x2F2 PUSH3 0x2EC DUP5 PUSH3 0x279 JUMP JUMPDEST PUSH3 0x25A JUMP JUMPDEST SWAP1 POP DUP3 DUP2 MSTORE PUSH1 0x20 DUP2 ADD DUP5 DUP5 DUP5 ADD GT ISZERO PUSH3 0x311 JUMPI PUSH3 0x310 PUSH3 0x1DF JUMP JUMPDEST JUMPDEST PUSH3 0x31E DUP5 DUP3 DUP6 PUSH3 0x2AF JUMP JUMPDEST POP SWAP4 SWAP3 POP POP POP JUMP JUMPDEST PUSH1 0x0 DUP3 PUSH1 0x1F DUP4 ADD SLT PUSH3 0x33E JUMPI PUSH3 0x33D PUSH3 0x1DA JUMP JUMPDEST JUMPDEST DUP2 MLOAD PUSH3 0x350 DUP5 DUP3 PUSH1 0x20 DUP7 ADD PUSH3 0x2DB JUMP JUMPDEST SWAP2 POP POP SWAP3 SWAP2 POP POP JUMP JUMPDEST PUSH1 0x0 DUP2 SWAP1 POP SWAP2 SWAP1 POP JUMP JUMPDEST PUSH3 0x36E DUP2 PUSH3 0x359 JUMP JUMPDEST DUP2 EQ PUSH3 0x37A JUMPI PUSH1 0x0 DUP1 REVERT JUMPDEST POP JUMP JUMPDEST PUSH1 0x0 DUP2 MLOAD SWAP1 POP PUSH3 0x38E DUP2 PUSH3 0x363 JUMP JUMPDEST SWAP3 SWAP2 POP POP JUMP JUMPDEST PUSH1 0x0 PUSH8 0xFFFFFFFFFFFFFFFF DUP3 GT ISZERO PUSH3 0x3B2 JUMPI PUSH3 0x3B1 PUSH3 0x1F5 JUMP JUMPDEST JUMPDEST PUSH1 0x20 DUP3 MUL SWAP1 POP PUSH1 0x20 DUP2 ADD SWAP1 POP SWAP2 SWAP1 POP JUMP JUMPDEST PUSH1 0x0 DUP1 REVERT JUMPDEST PUSH1 0x0 PUSH20 0xFFFFFFFFFFFFFFFFFFFFFFFFFFFFFFFFFFFFFFFF DUP3 AND SWAP1 POP SWAP2 SWAP1 POP JUMP JUMPDEST PUSH1 0x0 PUSH3 0x3F5 DUP3 PUSH3 0x3C8 JUMP JUMPDEST SWAP1 POP SWAP2 SWAP1 POP JUMP JUMPDEST PUSH3 0x407 DUP2 PUSH3 0x3E8 JUMP JUMPDEST DUP2 EQ PUSH3 0x413 JUMPI PUSH1 0x0 DUP1 REVERT JUMPDEST POP JUMP JUMPDEST PUSH1 0x0 DUP2 MLOAD SWAP1 POP PUSH3 0x427 DUP2 PUSH3 0x3FC JUMP JUMPDEST SWAP3 SWAP2 POP POP JUMP JUMPDEST PUSH1 0x0 PUSH3 0x444 PUSH3 0x43E DUP5 PUSH3 0x394 JUMP JUMPDEST PUSH3 0x25A JUMP JUMPDEST SWAP1 POP DUP1 DUP4 DUP3 MSTORE PUSH1 0x20 DUP3 ADD SWAP1 POP PUSH1 0x20 DUP5 MUL DUP4 ADD DUP6 DUP2 GT ISZERO PUSH3 0x46A JUMPI PUSH3 0x469 PUSH3 0x3C3 JUMP JUMPDEST JUMPDEST DUP4 JUMPDEST DUP2 DUP2 LT ISZERO PUSH3 0x497 JUMPI DUP1 PUSH3 0x482 DUP9 DUP3 PUSH3 0x416 JUMP JUMPDEST DUP5 MSTORE PUSH1 0x20 DUP5 ADD SWAP4 POP POP PUSH1 0x20 DUP2 ADD SWAP1 POP PUSH3 0x46C JUMP JUMPDEST POP POP POP SWAP4 SWAP3 POP POP POP JUMP JUMPDEST PUSH1 0x0 DUP3 PUSH1 0x1F DUP4 ADD SLT PUSH3 0x4B9 JUMPI PUSH3 0x4B8 PUSH3 0x1DA JUMP JUMPDEST JUMPDEST DUP2 MLOAD PUSH3 0x4CB DUP5 DUP3 PUSH1 0x20 DUP7 ADD PUSH3 0x42D JUMP JUMPDEST SWAP2 POP POP SWAP3 SWAP2 POP POP JUMP JUMPDEST PUSH1 0x0 PUSH8 0xFFFFFFFFFFFFFFFF DUP3 GT ISZERO PUSH3 0x4F2 JUMPI PUSH3 0x4F1 PUSH3 0x1F5 JUMP JUMPDEST JUMPDEST PUSH1 0x20 DUP3 MUL SWAP1 POP PUSH1 0x20 DUP2 ADD SWAP1 POP SWAP2 SWAP1 POP JUMP JUMPDEST PUSH1 0x0 PUSH3 0x51A PUSH3 0x514 DUP5 PUSH3 0x4D4 JUMP JUMPDEST PUSH3 0x25A JUMP JUMPDEST SWAP1 POP DUP1 DUP4 DUP3 MSTORE PUSH1 0x20 DUP3 ADD SWAP1 POP PUSH1 0x20 DUP5 MUL DUP4 ADD DUP6 DUP2 GT ISZERO PUSH3 0x540 JUMPI PUSH3 0x53F PUSH3 0x3C3 JUMP JUMPDEST JUMPDEST DUP4 JUMPDEST DUP2 DUP2 LT ISZERO PUSH3 0x56D JUMPI DUP1 PUSH3 0x558 DUP9 DUP3 PUSH3 0x37D JUMP JUMPDEST DUP5 MSTORE PUSH1 0x20 DUP5 ADD SWAP4 POP POP PUSH1 0x20 DUP2 ADD SWAP1 POP PUSH3 0x542 JUMP JUMPDEST POP POP POP SWAP4 SWAP3 POP POP POP JUMP JUMPDEST PUSH1 0x0 DUP3 PUSH1 0x1F DUP4 ADD SLT PUSH3 0x58F JUMPI PUSH3 0x58E PUSH3 0x1DA JUMP JUMPDEST JUMPDEST DUP2 MLOAD PUSH3 0x5A1 DUP5 DUP3 PUSH1 0x20 DUP7 ADD PUSH3 0x503 JUMP JUMPDEST SWAP2 POP POP SWAP3 SWAP2 POP POP JUMP JUMPDEST PUSH1 0x0 DUP1 PUSH1 0x0 DUP1 PUSH1 0x0 DUP1 PUSH1 0xC0 DUP8 DUP10 SUB SLT ISZERO PUSH3 0x5CA JUMPI PUSH3 0x5C9 PUSH3 0x1D0 JUMP JUMPDEST JUMPDEST PUSH1 0x0 DUP8 ADD MLOAD PUSH8 0xFFFFFFFFFFFFFFFF DUP2 GT ISZERO PUSH3 0x5EB JUMPI PUSH3 0x5EA PUSH3 0x1D5 JUMP JUMPDEST JUMPDEST PUSH3 0x5F9 DUP10 DUP3 DUP11 ADD PUSH3 0x326 JUMP JUMPDEST SWAP7 POP POP PUSH1 0x20 DUP8 ADD MLOAD PUSH8 0xFFFFFFFFFFFFFFFF DUP2 GT ISZERO PUSH3 0x61D JUMPI PUSH3 0x61C PUSH3 0x1D5 JUMP JUMPDEST JUMPDEST PUSH3 0x62B DUP10 DUP3 DUP11 ADD PUSH3 0x326 JUMP JUMPDEST SWAP6 POP POP PUSH1 0x40 PUSH3 0x63E DUP10 DUP3 DUP11 ADD PUSH3 0x37D JUMP JUMPDEST SWAP5 POP POP PUSH1 0x60 PUSH3 0x651 DUP10 DUP3 DUP11 ADD PUSH3 0x37D JUMP JUMPDEST SWAP4 POP POP PUSH1 0x80 DUP8 ADD MLOAD PUSH8 0xFFFFFFFFFFFFFFFF DUP2 GT ISZERO PUSH3 0x675 JUMPI PUSH3 0x674 PUSH3 0x1D5 JUMP JUMPDEST JUMPDEST PUSH3 0x683 DUP10 DUP3 DUP11 ADD PUSH3 0x4A1 JUMP JUMPDEST SWAP3 POP POP PUSH1 0xA0 DUP8 ADD MLOAD PUSH8 0xFFFFFFFFFFFFFFFF DUP2 GT ISZERO PUSH3 0x6A7 JUMPI PUSH3 0x6A6 PUSH3 0x1D5 JUMP JUMPDEST JUMPDEST PUSH3 0x6B5 DUP10 DUP3 DUP11 ADD PUSH3 0x577 JUMP JUMPDEST SWAP2 POP POP SWAP3 SWAP6 POP SWAP3 SWAP6 POP SWAP3 SWAP6 JUMP JUMPDEST PUSH1 0x0 DUP2 MLOAD SWAP1 POP SWAP2 SWAP1 POP JUMP JUMPDEST PUSH32 0x4E487B7100000000000000000000000000000000000000000000000000000000 PUSH1 0x0 MSTORE PUSH1 0x22 PUSH1 0x4 MSTORE PUSH1 0x24 PUSH1 0x0 REVERT JUMPDEST PUSH1 0x0 PUSH1 0x2 DUP3 DIV SWAP1 POP PUSH1 0x1 DUP3 AND DUP1 PUSH3 0x715 JUMPI PUSH1 0x7F DUP3 AND SWAP2 POP JUMPDEST PUSH1 0x20 DUP3 LT DUP2 SUB PUSH3 0x72B JUMPI PUSH3 0x72A PUSH3 0x6CD JUMP JUMPDEST JUMPDEST POP SWAP2 SWAP1 POP JUMP JUMPDEST PUSH1 0x0 DUP2 SWAP1 POP DUP2 PUSH1 0x0 MSTORE PUSH1 0x20 PUSH1 0x0 KECCAK256 SWAP1 POP SWAP2 SWAP1 POP JUMP JUMPDEST PUSH1 0x0 PUSH1 0x20 PUSH1 0x1F DUP4 ADD DIV SWAP1 POP SWAP2 SWAP1 POP JUMP JUMPDEST PUSH1 0x0 DUP3 DUP3 SHL SWAP1 POP SWAP3 SWAP2 POP POP JUMP JUMPDEST PUSH1 0x0 PUSH1 0x8 DUP4 MUL PUSH3 0x795 PUSH32 0xFFFFFFFFFFFFFFFFFFFFFFFFFFFFFFFFFFFFFFFFFFFFFFFFFFFFFFFFFFFFFFFF DUP3 PUSH3 0x756 JUMP JUMPDEST PUSH3 0x7A1 DUP7 DUP4 PUSH3 0x756 JUMP JUMPDEST SWAP6 POP DUP1 NOT DUP5 AND SWAP4 POP DUP1 DUP7 AND DUP5 OR SWAP3 POP POP POP SWAP4 SWAP3 POP POP POP JUMP JUMPDEST PUSH1 0x0 DUP2 SWAP1 POP SWAP2 SWAP1 POP JUMP JUMPDEST PUSH1 0x0 PUSH3 0x7E4 PUSH3 0x7DE PUSH3 0x7D8 DUP5 PUSH3 0x359 JUMP JUMPDEST PUSH3 0x7B9 JUMP JUMPDEST PUSH3 0x359 JUMP JUMPDEST SWAP1 POP SWAP2 SWAP1 POP JUMP JUMPDEST PUSH1 0x0 DUP2 SWAP1 POP SWAP2 SWAP1 POP JUMP JUMPDEST PUSH3 0x800 DUP4 PUSH3 0x7C3 JUMP JUMPDEST PUSH3 0x818 PUSH3 0x80F DUP3 PUSH3 0x7EB JUMP JUMPDEST DUP5 DUP5 SLOAD PUSH3 0x763 JUMP JUMPDEST DUP3 SSTORE POP POP POP POP JUMP JUMPDEST PUSH1 0x0 SWAP1 JUMP JUMPDEST PUSH3 0x82F PUSH3 0x820 JUMP JUMPDEST PUSH3 0x83C DUP2 DUP5 DUP5 PUSH3 0x7F5 JUMP JUMPDEST POP POP POP JUMP JUMPDEST JUMPDEST DUP2 DUP2 LT ISZERO PUSH3 0x864 JUMPI PUSH3 0x858 PUSH1 0x0 DUP3 PUSH3 0x825 JUMP JUMPDEST PUSH1 0x1 DUP2 ADD SWAP1 POP PUSH3 0x842 JUMP JUMPDEST POP POP JUMP JUMPDEST PUSH1 0x1F DUP3 GT ISZERO PUSH3 0x8B3 JUMPI PUSH3 0x87D DUP2 PUSH3 0x731 JUMP JUMPDEST PUSH3 0x888 DUP5 PUSH3 0x746 JUMP JUMPDEST DUP2 ADD PUSH1 0x20 DUP6 LT ISZERO PUSH3 0x898 JUMPI DUP2 SWAP1 POP JUMPDEST PUSH3 0x8B0 PUSH3 0x8A7 DUP6 PUSH3 0x746 JUMP JUMPDEST DUP4 ADD DUP3 PUSH3 0x841 JUMP JUMPDEST POP POP JUMPDEST POP POP POP JUMP JUMPDEST PUSH1 0x0 DUP3 DUP3 SHR SWAP1 POP SWAP3 SWAP2 POP POP JUMP JUMPDEST PUSH1 0x0 PUSH3 0x8D8 PUSH1 0x0 NOT DUP5 PUSH1 0x8 MUL PUSH3 0x8B8 JUMP JUMPDEST NOT DUP1 DUP4 AND SWAP2 POP POP SWAP3 SWAP2 POP POP JUMP JUMPDEST PUSH1 0x0 PUSH3 0x8F3 DUP4 DUP4 PUSH3 0x8C5 JUMP JUMPDEST SWAP2 POP DUP3 PUSH1 0x2 MUL DUP3 OR SWAP1 POP SWAP3 SWAP2 POP POP JUMP JUMPDEST PUSH3 0x90E DUP3 PUSH3 0x6C2 JUMP JUMPDEST PUSH8 0xFFFFFFFFFFFFFFFF DUP2 GT ISZERO PUSH3 0x92A JUMPI PUSH3 0x929 PUSH3 0x1F5 JUMP JUMPDEST JUMPDEST PUSH3 0x936 DUP3 SLOAD PUSH3 0x6FC JUMP JUMPDEST PUSH3 0x943 DUP3 DUP3 DUP6 PUSH3 0x868 JUMP JUMPDEST PUSH1 0x0 PUSH1 0x20 SWAP1 POP PUSH1 0x1F DUP4 GT PUSH1 0x1 DUP2 EQ PUSH3 0x97B JUMPI PUSH1 0x0 DUP5 ISZERO PUSH3 0x966 JUMPI DUP3 DUP8 ADD MLOAD SWAP1 POP JUMPDEST PUSH3 0x972 DUP6 DUP3 PUSH3 0x8E5 JUMP JUMPDEST DUP7 SSTORE POP PUSH3 0x9E2 JUMP JUMPDEST PUSH1 0x1F NOT DUP5 AND PUSH3 0x98B DUP7 PUSH3 0x731 JUMP JUMPDEST PUSH1 0x0 JUMPDEST DUP3 DUP2 LT ISZERO PUSH3 0x9B5 JUMPI DUP5 DUP10 ADD MLOAD DUP3 SSTORE PUSH1 0x1 DUP3 ADD SWAP2 POP PUSH1 0x20 DUP6 ADD SWAP5 POP PUSH1 0x20 DUP2 ADD SWAP1 POP PUSH3 0x98E JUMP JUMPDEST DUP7 DUP4 LT ISZERO PUSH3 0x9D5 JUMPI DUP5 DUP10 ADD MLOAD PUSH3 0x9D1 PUSH1 0x1F DUP10 AND DUP3 PUSH3 0x8C5 JUMP JUMPDEST DUP4 SSTORE POP JUMPDEST PUSH1 0x1 PUSH1 0x2 DUP9 MUL ADD DUP9 SSTORE POP POP POP JUMPDEST POP POP POP POP POP POP JUMP JUMPDEST PUSH2 0x1AA2 DUP1 PUSH3 0x9FA PUSH1 0x0 CODECOPY PUSH1 0x0 RETURN INVALID PUSH1 0x80 PUSH1 0x40 MSTORE PUSH1 0x4 CALLDATASIZE LT PUSH2 0x12A JUMPI PUSH1 0x0 CALLDATALOAD PUSH1 0xE0 SHR DUP1 PUSH4 0x70A08231 GT PUSH2 0xAB JUMPI DUP1 PUSH4 0xCD53D08E GT PUSH2 0x6F JUMPI DUP1 PUSH4 0xCD53D08E EQ PUSH2 0x433 JUMPI DUP1 PUSH4 0xD2D8CB67 EQ PUSH2 0x470 JUMPI DUP1 PUSH4 0xDD62ED3E EQ PUSH2 0x49B JUMPI DUP1 PUSH4 0xE489D510 EQ PUSH2 0x4D8 JUMPI DUP1 PUSH4 0xE6CD7AB6 EQ PUSH2 0x503 JUMPI DUP1 PUSH4 0xE7AA3AFC EQ PUSH2 0x540 JUMPI PUSH2 0x12A JUMP JUMPDEST DUP1 PUSH4 0x70A08231 EQ PUSH2 0x328 JUMPI DUP1 PUSH4 0x95D89B41 EQ PUSH2 0x365 JUMPI DUP1 PUSH4 0xA457C2D7 EQ PUSH2 0x390 JUMPI DUP1 PUSH4 0xA9059CBB EQ PUSH2 0x3CD JUMPI DUP1 PUSH4 0xBE5A34B2 EQ PUSH2 0x40A JUMPI PUSH2 0x12A JUMP JUMPDEST DUP1 PUSH4 0x23B872DD GT PUSH2 0xF2 JUMPI DUP1 PUSH4 0x23B872DD EQ PUSH2 0x22A JUMPI DUP1 PUSH4 0x313CE567 EQ PUSH2 0x267 JUMPI DUP1 PUSH4 0x39509351 EQ PUSH2 0x292 JUMPI DUP1 PUSH4 0x57A858FC EQ PUSH2 0x2CF JUMPI DUP1 PUSH4 0x6A627842 EQ PUSH2 0x30C JUMPI PUSH2 0x12A JUMP JUMPDEST DUP1 PUSH4 0x6FDDE03 EQ PUSH2 0x12F JUMPI DUP1 PUSH4 0x95EA7B3 EQ PUSH2 0x15A JUMPI DUP1 PUSH4 0x160A4D14 EQ PUSH2 0x197 JUMPI DUP1 PUSH4 0x18160DDD EQ PUSH2 0x1D4 JUMPI DUP1 PUSH4 0x1AB33308 EQ PUSH2 0x1FF JUMPI JUMPDEST PUSH1 0x0 DUP1 REVERT JUMPDEST CALLVALUE DUP1 ISZERO PUSH2 0x13B JUMPI PUSH1 0x0 DUP1 REVERT JUMPDEST POP PUSH2 0x144 PUSH2 0x56B JUMP JUMPDEST PUSH1 0x40 MLOAD PUSH2 0x151 SWAP2 SWAP1 PUSH2 0x1183 JUMP JUMPDEST PUSH1 0x40 MLOAD DUP1 SWAP2 SUB SWAP1 RETURN JUMPDEST CALLVALUE DUP1 ISZERO PUSH2 0x166 JUMPI PUSH1 0x0 DUP1 REVERT JUMPDEST POP PUSH2 0x181 PUSH1 0x4 DUP1 CALLDATASIZE SUB DUP2 ADD SWAP1 PUSH2 0x17C SWAP2 SWAP1 PUSH2 0x123E JUMP JUMPDEST PUSH2 0x5FD JUMP JUMPDEST PUSH1 0x40 MLOAD PUSH2 0x18E SWAP2 SWAP1 PUSH2 0x1299 JUMP JUMPDEST PUSH1 0x40 MLOAD DUP1 SWAP2 SUB SWAP1 RETURN JUMPDEST CALLVALUE DUP1 ISZERO PUSH2 0x1A3 JUMPI PUSH1 0x0 DUP1 REVERT JUMPDEST POP PUSH2 0x1BE PUSH1 0x4 DUP1 CALLDATASIZE SUB DUP2 ADD SWAP1 PUSH2 0x1B9 SWAP2 SWAP1 PUSH2 0x12B4 JUMP JUMPDEST PUSH2 0x620 JUMP JUMPDEST PUSH1 0x40 MLOAD PUSH2 0x1CB SWAP2 SWAP1 PUSH2 0x12F0 JUMP JUMPDEST PUSH1 0x40 MLOAD DUP1 SWAP2 SUB SWAP1 RETURN JUMPDEST CALLVALUE DUP1 ISZERO PUSH2 0x1E0 JUMPI PUSH1 0x0 DUP1 REVERT JUMPDEST POP PUSH2 0x1E9 PUSH2 0x669 JUMP JUMPDEST PUSH1 0x40 MLOAD PUSH2 0x1F6 SWAP2 SWAP1 PUSH2 0x12F0 JUMP JUMPDEST PUSH1 0x40 MLOAD DUP1 SWAP2 SUB SWAP1 RETURN JUMPDEST CALLVALUE DUP1 ISZERO PUSH2 0x20B JUMPI PUSH1 0x0 DUP1 REVERT JUMPDEST POP PUSH2 0x214 PUSH2 0x673 JUMP JUMPDEST PUSH1 0x40 MLOAD PUSH2 0x221 SWAP2 SWAP1 PUSH2 0x1299 JUMP JUMPDEST PUSH1 0x40 MLOAD DUP1 SWAP2 SUB SWAP1 RETURN JUMPDEST CALLVALUE DUP1 ISZERO PUSH2 0x236 JUMPI PUSH1 0x0 DUP1 REVERT JUMPDEST POP PUSH2 0x251 PUSH1 0x4 DUP1 CALLDATASIZE SUB DUP2 ADD SWAP1 PUSH2 0x24C SWAP2 SWAP1 PUSH2 0x130B JUMP JUMPDEST PUSH2 0x686 JUMP JUMPDEST PUSH1 0x40 MLOAD PUSH2 0x25E SWAP2 SWAP1 PUSH2 0x1299 JUMP JUMPDEST PUSH1 0x40 MLOAD DUP1 SWAP2 SUB SWAP1 RETURN JUMPDEST CALLVALUE DUP1 ISZERO PUSH2 0x273 JUMPI PUSH1 0x0 DUP1 REVERT JUMPDEST POP PUSH2 0x27C PUSH2 0x6B5 JUMP JUMPDEST PUSH1 0x40 MLOAD PUSH2 0x289 SWAP2 SWAP1 PUSH2 0x137A JUMP JUMPDEST PUSH1 0x40 MLOAD DUP1 SWAP2 SUB SWAP1 RETURN JUMPDEST CALLVALUE DUP1 ISZERO PUSH2 0x29E JUMPI PUSH1 0x0 DUP1 REVERT JUMPDEST POP PUSH2 0x2B9 PUSH1 0x4 DUP1 CALLDATASIZE SUB DUP2 ADD SWAP1 PUSH2 0x2B4 SWAP2 SWAP1 PUSH2 0x123E JUMP JUMPDEST PUSH2 0x6BE JUMP JUMPDEST PUSH1 0x40 MLOAD PUSH2 0x2C6 SWAP2 SWAP1 PUSH2 0x1299 JUMP JUMPDEST PUSH1 0x40 MLOAD DUP1 SWAP2 SUB SWAP1 RETURN JUMPDEST CALLVALUE DUP1 ISZERO PUSH2 0x2DB JUMPI PUSH1 0x0 DUP1 REVERT JUMPDEST POP PUSH2 0x2F6 PUSH1 0x4 DUP1 CALLDATASIZE SUB DUP2 ADD SWAP1 PUSH2 0x2F1 SWAP2 SWAP1 PUSH2 0x1395 JUMP JUMPDEST PUSH2 0x6F5 JUMP JUMPDEST PUSH1 0x40 MLOAD PUSH2 0x303 SWAP2 SWAP1 PUSH2 0x12F0 JUMP JUMPDEST PUSH1 0x40 MLOAD DUP1 SWAP2 SUB SWAP1 RETURN JUMPDEST PUSH2 0x326 PUSH1 0x4 DUP1 CALLDATASIZE SUB DUP2 ADD SWAP1 PUSH2 0x321 SWAP2 SWAP1 PUSH2 0x12B4 JUMP JUMPDEST PUSH2 0x719 JUMP JUMPDEST STOP JUMPDEST CALLVALUE DUP1 ISZERO PUSH2 0x334 JUMPI PUSH1 0x0 DUP1 REVERT JUMPDEST POP PUSH2 0x34F PUSH1 0x4 DUP1 CALLDATASIZE SUB DUP2 ADD SWAP1 PUSH2 0x34A SWAP2 SWAP1 PUSH2 0x12B4 JUMP JUMPDEST PUSH2 0x83B JUMP JUMPDEST PUSH1 0x40 MLOAD PUSH2 0x35C SWAP2 SWAP1 PUSH2 0x12F0 JUMP JUMPDEST PUSH1 0x40 MLOAD DUP1 SWAP2 SUB SWAP1 RETURN JUMPDEST CALLVALUE DUP1 ISZERO PUSH2 0x371 JUMPI PUSH1 0x0 DUP1 REVERT JUMPDEST POP PUSH2 0x37A PUSH2 0x883 JUMP JUMPDEST PUSH1 0x40 MLOAD PUSH2 0x387 SWAP2 SWAP1 PUSH2 0x1183 JUMP JUMPDEST PUSH1 0x40 MLOAD DUP1 SWAP2 SUB SWAP1 RETURN JUMPDEST CALLVALUE DUP1 ISZERO PUSH2 0x39C JUMPI PUSH1 0x0 DUP1 REVERT JUMPDEST POP PUSH2 0x3B7 PUSH1 0x4 DUP1 CALLDATASIZE SUB DUP2 ADD SWAP1 PUSH2 0x3B2 SWAP2 SWAP1 PUSH2 0x123E JUMP JUMPDEST PUSH2 0x915 JUMP JUMPDEST PUSH1 0x40 MLOAD PUSH2 0x3C4 SWAP2 SWAP1 PUSH2 0x1299 JUMP JUMPDEST PUSH1 0x40 MLOAD DUP1 SWAP2 SUB SWAP1 RETURN JUMPDEST CALLVALUE DUP1 ISZERO PUSH2 0x3D9 JUMPI PUSH1 0x0 DUP1 REVERT JUMPDEST POP PUSH2 0x3F4 PUSH1 0x4 DUP1 CALLDATASIZE SUB DUP2 ADD SWAP1 PUSH2 0x3EF SWAP2 SWAP1 PUSH2 0x123E JUMP JUMPDEST PUSH2 0x98C JUMP JUMPDEST PUSH1 0x40 MLOAD PUSH2 0x401 SWAP2 SWAP1 PUSH2 0x1299 JUMP JUMPDEST PUSH1 0x40 MLOAD DUP1 SWAP2 SUB SWAP1 RETURN JUMPDEST CALLVALUE DUP1 ISZERO PUSH2 0x416 JUMPI PUSH1 0x0 DUP1 REVERT JUMPDEST POP PUSH2 0x431 PUSH1 0x4 DUP1 CALLDATASIZE SUB DUP2 ADD SWAP1 PUSH2 0x42C SWAP2 SWAP1 PUSH2 0x12B4 JUMP JUMPDEST PUSH2 0x9AF JUMP JUMPDEST STOP JUMPDEST CALLVALUE DUP1 ISZERO PUSH2 0x43F JUMPI PUSH1 0x0 DUP1 REVERT JUMPDEST POP PUSH2 0x45A PUSH1 0x4 DUP1 CALLDATASIZE SUB DUP2 ADD SWAP1 PUSH2 0x455 SWAP2 SWAP1 PUSH2 0x1395 JUMP JUMPDEST PUSH2 0xAFF JUMP JUMPDEST PUSH1 0x40 MLOAD PUSH2 0x467 SWAP2 SWAP1 PUSH2 0x13D1 JUMP JUMPDEST PUSH1 0x40 MLOAD DUP1 SWAP2 SUB SWAP1 RETURN JUMPDEST CALLVALUE DUP1 ISZERO PUSH2 0x47C JUMPI PUSH1 0x0 DUP1 REVERT JUMPDEST POP PUSH2 0x485 PUSH2 0xB3E JUMP JUMPDEST PUSH1 0x40 MLOAD PUSH2 0x492 SWAP2 SWAP1 PUSH2 0x12F0 JUMP JUMPDEST PUSH1 0x40 MLOAD DUP1 SWAP2 SUB SWAP1 RETURN JUMPDEST CALLVALUE DUP1 ISZERO PUSH2 0x4A7 JUMPI PUSH1 0x0 DUP1 REVERT JUMPDEST POP PUSH2 0x4C2 PUSH1 0x4 DUP1 CALLDATASIZE SUB DUP2 ADD SWAP1 PUSH2 0x4BD SWAP2 SWAP1 PUSH2 0x13EC JUMP JUMPDEST PUSH2 0xB44 JUMP JUMPDEST PUSH1 0x40 MLOAD PUSH2 0x4CF SWAP2 SWAP1 PUSH2 0x12F0 JUMP JUMPDEST PUSH1 0x40 MLOAD DUP1 SWAP2 SUB SWAP1 RETURN JUMPDEST CALLVALUE DUP1 ISZERO PUSH2 0x4E4 JUMPI PUSH1 0x0 DUP1 REVERT JUMPDEST POP PUSH2 0x4ED PUSH2 0xBCB JUMP JUMPDEST PUSH1 0x40 MLOAD PUSH2 0x4FA SWAP2 SWAP1 PUSH2 0x12F0 JUMP JUMPDEST PUSH1 0x40 MLOAD DUP1 SWAP2 SUB SWAP1 RETURN JUMPDEST CALLVALUE DUP1 ISZERO PUSH2 0x50F JUMPI PUSH1 0x0 DUP1 REVERT JUMPDEST POP PUSH2 0x52A PUSH1 0x4 DUP1 CALLDATASIZE SUB DUP2 ADD SWAP1 PUSH2 0x525 SWAP2 SWAP1 PUSH2 0x12B4 JUMP JUMPDEST PUSH2 0xBD1 JUMP JUMPDEST PUSH1 0x40 MLOAD PUSH2 0x537 SWAP2 SWAP1 PUSH2 0x12F0 JUMP JUMPDEST PUSH1 0x40 MLOAD DUP1 SWAP2 SUB SWAP1 RETURN JUMPDEST CALLVALUE DUP1 ISZERO PUSH2 0x54C JUMPI PUSH1 0x0 DUP1 REVERT JUMPDEST POP PUSH2 0x555 PUSH2 0xBE9 JUMP JUMPDEST PUSH1 0x40 MLOAD PUSH2 0x562 SWAP2 SWAP1 PUSH2 0x1299 JUMP JUMPDEST PUSH1 0x40 MLOAD DUP1 SWAP2 SUB SWAP1 RETURN JUMPDEST PUSH1 0x60 PUSH1 0x3 DUP1 SLOAD PUSH2 0x57A SWAP1 PUSH2 0x145B JUMP JUMPDEST DUP1 PUSH1 0x1F ADD PUSH1 0x20 DUP1 SWAP2 DIV MUL PUSH1 0x20 ADD PUSH1 0x40 MLOAD SWAP1 DUP2 ADD PUSH1 0x40 MSTORE DUP1 SWAP3 SWAP2 SWAP1 DUP2 DUP2 MSTORE PUSH1 0x20 ADD DUP3 DUP1 SLOAD PUSH2 0x5A6 SWAP1 PUSH2 0x145B JUMP JUMPDEST DUP1 ISZERO PUSH2 0x5F3 JUMPI DUP1 PUSH1 0x1F LT PUSH2 0x5C8 JUMPI PUSH2 0x100 DUP1 DUP4 SLOAD DIV MUL DUP4 MSTORE SWAP2 PUSH1 0x20 ADD SWAP2 PUSH2 0x5F3 JUMP JUMPDEST DUP3 ADD SWAP2 SWAP1 PUSH1 0x0 MSTORE PUSH1 0x20 PUSH1 0x0 KECCAK256 SWAP1 JUMPDEST DUP2 SLOAD DUP2 MSTORE SWAP1 PUSH1 0x1 ADD SWAP1 PUSH1 0x20 ADD DUP1 DUP4 GT PUSH2 0x5D6 JUMPI DUP3 SWAP1 SUB PUSH1 0x1F AND DUP3 ADD SWAP2 JUMPDEST POP POP POP POP POP SWAP1 POP SWAP1 JUMP JUMPDEST PUSH1 0x0 DUP1 PUSH2 0x608 PUSH2 0xC00 JUMP JUMPDEST SWAP1 POP PUSH2 0x615 DUP2 DUP6 DUP6 PUSH2 0xC08 JUMP JUMPDEST PUSH1 0x1 SWAP2 POP POP SWAP3 SWAP2 POP POP JUMP JUMPDEST PUSH1 0x0 PUSH1 0xB PUSH1 0x0 DUP4 PUSH20 0xFFFFFFFFFFFFFFFFFFFFFFFFFFFFFFFFFFFFFFFF AND PUSH20 0xFFFFFFFFFFFFFFFFFFFFFFFFFFFFFFFFFFFFFFFF AND DUP2 MSTORE PUSH1 0x20 ADD SWAP1 DUP2 MSTORE PUSH1 0x20 ADD PUSH1 0x0 KECCAK256 SLOAD SWAP1 POP SWAP2 SWAP1 POP JUMP JUMPDEST PUSH1 0x0 PUSH1 0x2 SLOAD SWAP1 POP SWAP1 JUMP JUMPDEST PUSH1 0xA PUSH1 0x0 SWAP1 SLOAD SWAP1 PUSH2 0x100 EXP SWAP1 DIV PUSH1 0xFF AND DUP2 JUMP JUMPDEST PUSH1 0x0 DUP1 PUSH2 0x691 PUSH2 0xC00 JUMP JUMPDEST SWAP1 POP PUSH2 0x69E DUP6 DUP3 DUP6 PUSH2 0xDD1 JUMP JUMPDEST PUSH2 0x6A9 DUP6 DUP6 DUP6 PUSH2 0xE5D JUMP JUMPDEST PUSH1 0x1 SWAP2 POP POP SWAP4 SWAP3 POP POP POP JUMP JUMPDEST PUSH1 0x0 PUSH1 0x12 SWAP1 POP SWAP1 JUMP JUMPDEST PUSH1 0x0 DUP1 PUSH2 0x6C9 PUSH2 0xC00 JUMP JUMPDEST SWAP1 POP PUSH2 0x6EA DUP2 DUP6 DUP6 PUSH2 0x6DB DUP6 DUP10 PUSH2 0xB44 JUMP JUMPDEST PUSH2 0x6E5 SWAP2 SWAP1 PUSH2 0x14BB JUMP JUMPDEST PUSH2 0xC08 JUMP JUMPDEST PUSH1 0x1 SWAP2 POP POP SWAP3 SWAP2 POP POP JUMP JUMPDEST PUSH1 0x9 DUP2 DUP2 SLOAD DUP2 LT PUSH2 0x705 JUMPI PUSH1 0x0 DUP1 REVERT JUMPDEST SWAP1 PUSH1 0x0 MSTORE PUSH1 0x20 PUSH1 0x0 KECCAK256 ADD PUSH1 0x0 SWAP2 POP SWAP1 POP SLOAD DUP2 JUMP JUMPDEST PUSH1 0x7 SLOAD CALLVALUE LT ISZERO PUSH2 0x75E JUMPI PUSH1 0x40 MLOAD PUSH32 0x8C379A000000000000000000000000000000000000000000000000000000000 DUP2 MSTORE PUSH1 0x4 ADD PUSH2 0x755 SWAP1 PUSH2 0x153B JUMP JUMPDEST PUSH1 0x40 MLOAD DUP1 SWAP2 SUB SWAP1 REVERT JUMPDEST PUSH1 0x6 SLOAD PUSH2 0x76B PUSH1 0x5 PUSH2 0xE62 JUMP JUMPDEST LT PUSH2 0x7AB JUMPI PUSH1 0x40 MLOAD PUSH32 0x8C379A000000000000000000000000000000000000000000000000000000000 DUP2 MSTORE PUSH1 0x4 ADD PUSH2 0x7A2 SWAP1 PUSH2 0x15A7 JUMP JUMPDEST PUSH1 0x40 MLOAD DUP1 SWAP2 SUB SWAP1 REVERT JUMPDEST PUSH1 0x0 PUSH2 0x7B6 DUP3 PUSH2 0x83B JUMP JUMPDEST EQ PUSH2 0x7F6 JUMPI PUSH1 0x40 MLOAD PUSH32 0x8C379A000000000000000000000000000000000000000000000000000000000 DUP2 MSTORE PUSH1 0x4 ADD PUSH2 0x7ED SWAP1 PUSH2 0x1639 JUMP JUMPDEST PUSH1 0x40 MLOAD DUP1 SWAP2 SUB SWAP1 REVERT JUMPDEST PUSH2 0x808 DUP2 PUSH8 0xDE0B6B3A7640000 PUSH2 0xE70 JUMP JUMPDEST PUSH2 0x811 CALLVALUE PUSH2 0xFC6 JUMP JUMPDEST PUSH2 0x81B PUSH1 0x5 PUSH2 0x10B6 JUMP JUMPDEST PUSH1 0x6 SLOAD PUSH2 0x828 PUSH1 0x5 PUSH2 0xE62 JUMP JUMPDEST SUB PUSH2 0x838 JUMPI PUSH2 0x837 PUSH1 0x0 PUSH2 0x10CC JUMP JUMPDEST JUMPDEST POP JUMP JUMPDEST PUSH1 0x0 DUP1 PUSH1 0x0 DUP4 PUSH20 0xFFFFFFFFFFFFFFFFFFFFFFFFFFFFFFFFFFFFFFFF AND PUSH20 0xFFFFFFFFFFFFFFFFFFFFFFFFFFFFFFFFFFFFFFFF AND DUP2 MSTORE PUSH1 0x20 ADD SWAP1 DUP2 MSTORE PUSH1 0x20 ADD PUSH1 0x0 KECCAK256 SLOAD SWAP1 POP SWAP2 SWAP1 POP JUMP JUMPDEST PUSH1 0x60 PUSH1 0x4 DUP1 SLOAD PUSH2 0x892 SWAP1 PUSH2 0x145B JUMP JUMPDEST DUP1 PUSH1 0x1F ADD PUSH1 0x20 DUP1 SWAP2 DIV MUL PUSH1 0x20 ADD PUSH1 0x40 MLOAD SWAP1 DUP2 ADD PUSH1 0x40 MSTORE DUP1 SWAP3 SWAP2 SWAP1 DUP2 DUP2 MSTORE PUSH1 0x20 ADD DUP3 DUP1 SLOAD PUSH2 0x8BE SWAP1 PUSH2 0x145B JUMP JUMPDEST DUP1 ISZERO PUSH2 0x90B JUMPI DUP1 PUSH1 0x1F LT PUSH2 0x8E0 JUMPI PUSH2 0x100 DUP1 DUP4 SLOAD DIV MUL DUP4 MSTORE SWAP2 PUSH1 0x20 ADD SWAP2 PUSH2 0x90B JUMP JUMPDEST DUP3 ADD SWAP2 SWAP1 PUSH1 0x0 MSTORE PUSH1 0x20 PUSH1 0x0 KECCAK256 SWAP1 JUMPDEST DUP2 SLOAD DUP2 MSTORE SWAP1 PUSH1 0x1 ADD SWAP1 PUSH1 0x20 ADD DUP1 DUP4 GT PUSH2 0x8EE JUMPI DUP3 SWAP1 SUB PUSH1 0x1F AND DUP3 ADD SWAP2 JUMPDEST POP POP POP POP POP SWAP1 POP SWAP1 JUMP JUMPDEST PUSH1 0x0 DUP1 PUSH2 0x920 PUSH2 0xC00 JUMP JUMPDEST SWAP1 POP PUSH1 0x0 PUSH2 0x92E DUP3 DUP7 PUSH2 0xB44 JUMP JUMPDEST SWAP1 POP DUP4 DUP2 LT ISZERO PUSH2 0x973 JUMPI PUSH1 0x40 MLOAD PUSH32 0x8C379A000000000000000000000000000000000000000000000000000000000 DUP2 MSTORE PUSH1 0x4 ADD PUSH2 0x96A SWAP1 PUSH2 0x16CB JUMP JUMPDEST PUSH1 0x40 MLOAD DUP1 SWAP2 SUB SWAP1 REVERT JUMPDEST PUSH2 0x980 DUP3 DUP7 DUP7 DUP5 SUB PUSH2 0xC08 JUMP JUMPDEST PUSH1 0x1 SWAP3 POP POP POP SWAP3 SWAP2 POP POP JUMP JUMPDEST PUSH1 0x0 DUP1 PUSH2 0x997 PUSH2 0xC00 JUMP JUMPDEST SWAP1 POP PUSH2 0x9A4 DUP2 DUP6 DUP6 PUSH2 0xE5D JUMP JUMPDEST PUSH1 0x1 SWAP2 POP POP SWAP3 SWAP2 POP POP JUMP JUMPDEST PUSH1 0x0 PUSH1 0xB PUSH1 0x0 DUP4 PUSH20 0xFFFFFFFFFFFFFFFFFFFFFFFFFFFFFFFFFFFFFFFF AND PUSH20 0xFFFFFFFFFFFFFFFFFFFFFFFFFFFFFFFFFFFFFFFF AND DUP2 MSTORE PUSH1 0x20 ADD SWAP1 DUP2 MSTORE PUSH1 0x20 ADD PUSH1 0x0 KECCAK256 SLOAD GT PUSH2 0xA31 JUMPI PUSH1 0x40 MLOAD PUSH32 0x8C379A000000000000000000000000000000000000000000000000000000000 DUP2 MSTORE PUSH1 0x4 ADD PUSH2 0xA28 SWAP1 PUSH2 0x1737 JUMP JUMPDEST PUSH1 0x40 MLOAD DUP1 SWAP2 SUB SWAP1 REVERT JUMPDEST DUP1 PUSH20 0xFFFFFFFFFFFFFFFFFFFFFFFFFFFFFFFFFFFFFFFF AND PUSH2 0x8FC PUSH1 0xB PUSH1 0x0 DUP5 PUSH20 0xFFFFFFFFFFFFFFFFFFFFFFFFFFFFFFFFFFFFFFFF AND PUSH20 0xFFFFFFFFFFFFFFFFFFFFFFFFFFFFFFFFFFFFFFFF AND DUP2 MSTORE PUSH1 0x20 ADD SWAP1 DUP2 MSTORE PUSH1 0x20 ADD PUSH1 0x0 KECCAK256 SLOAD SWAP1 DUP2 ISZERO MUL SWAP1 PUSH1 0x40 MLOAD PUSH1 0x0 PUSH1 0x40 MLOAD DUP1 DUP4 SUB DUP2 DUP6 DUP9 DUP9 CALL SWAP4 POP POP POP POP ISZERO DUP1 ISZERO PUSH2 0xAB6 JUMPI RETURNDATASIZE PUSH1 0x0 DUP1 RETURNDATACOPY RETURNDATASIZE PUSH1 0x0 REVERT JUMPDEST POP PUSH1 0x0 PUSH1 0xB PUSH1 0x0 DUP4 PUSH20 0xFFFFFFFFFFFFFFFFFFFFFFFFFFFFFFFFFFFFFFFF AND PUSH20 0xFFFFFFFFFFFFFFFFFFFFFFFFFFFFFFFFFFFFFFFF AND DUP2 MSTORE PUSH1 0x20 ADD SWAP1 DUP2 MSTORE PUSH1 0x20 ADD PUSH1 0x0 KECCAK256 DUP2 SWAP1 SSTORE POP POP JUMP JUMPDEST PUSH1 0x8 DUP2 DUP2 SLOAD DUP2 LT PUSH2 0xB0F JUMPI PUSH1 0x0 DUP1 REVERT JUMPDEST SWAP1 PUSH1 0x0 MSTORE PUSH1 0x20 PUSH1 0x0 KECCAK256 ADD PUSH1 0x0 SWAP2 POP SLOAD SWAP1 PUSH2 0x100 EXP SWAP1 DIV PUSH20 0xFFFFFFFFFFFFFFFFFFFFFFFFFFFFFFFFFFFFFFFF AND DUP2 JUMP JUMPDEST PUSH1 0x7 SLOAD DUP2 JUMP JUMPDEST PUSH1 0x0 PUSH1 0x1 PUSH1 0x0 DUP5 PUSH20 0xFFFFFFFFFFFFFFFFFFFFFFFFFFFFFFFFFFFFFFFF AND PUSH20 0xFFFFFFFFFFFFFFFFFFFFFFFFFFFFFFFFFFFFFFFF AND DUP2 MSTORE PUSH1 0x20 ADD SWAP1 DUP2 MSTORE PUSH1 0x20 ADD PUSH1 0x0 KECCAK256 PUSH1 0x0 DUP4 PUSH20 0xFFFFFFFFFFFFFFFFFFFFFFFFFFFFFFFFFFFFFFFF AND PUSH20 0xFFFFFFFFFFFFFFFFFFFFFFFFFFFFFFFFFFFFFFFF AND DUP2 MSTORE PUSH1 0x20 ADD SWAP1 DUP2 MSTORE PUSH1 0x20 ADD PUSH1 0x0 KECCAK256 SLOAD SWAP1 POP SWAP3 SWAP2 POP POP JUMP JUMPDEST PUSH1 0x6 SLOAD DUP2 JUMP JUMPDEST PUSH1 0xB PUSH1 0x20 MSTORE DUP1 PUSH1 0x0 MSTORE PUSH1 0x40 PUSH1 0x0 KECCAK256 PUSH1 0x0 SWAP2 POP SWAP1 POP SLOAD DUP2 JUMP JUMPDEST PUSH1 0x0 PUSH1 0xA PUSH1 0x0 SWAP1 SLOAD SWAP1 PUSH2 0x100 EXP SWAP1 DIV PUSH1 0xFF AND SWAP1 POP SWAP1 JUMP JUMPDEST PUSH1 0x0 CALLER SWAP1 POP SWAP1 JUMP JUMPDEST PUSH1 0x0 PUSH20 0xFFFFFFFFFFFFFFFFFFFFFFFFFFFFFFFFFFFFFFFF AND DUP4 PUSH20 0xFFFFFFFFFFFFFFFFFFFFFFFFFFFFFFFFFFFFFFFF AND SUB PUSH2 0xC77 JUMPI PUSH1 0x40 MLOAD PUSH32 0x8C379A000000000000000000000000000000000000000000000000000000000 DUP2 MSTORE PUSH1 0x4 ADD PUSH2 0xC6E SWAP1 PUSH2 0x17C9 JUMP JUMPDEST PUSH1 0x40 MLOAD DUP1 SWAP2 SUB SWAP1 REVERT JUMPDEST PUSH1 0x0 PUSH20 0xFFFFFFFFFFFFFFFFFFFFFFFFFFFFFFFFFFFFFFFF AND DUP3 PUSH20 0xFFFFFFFFFFFFFFFFFFFFFFFFFFFFFFFFFFFFFFFF AND SUB PUSH2 0xCE6 JUMPI PUSH1 0x40 MLOAD PUSH32 0x8C379A000000000000000000000000000000000000000000000000000000000 DUP2 MSTORE PUSH1 0x4 ADD PUSH2 0xCDD SWAP1 PUSH2 0x185B JUMP JUMPDEST PUSH1 0x40 MLOAD DUP1 SWAP2 SUB SWAP1 REVERT JUMPDEST DUP1 PUSH1 0x1 PUSH1 0x0 DUP6 PUSH20 0xFFFFFFFFFFFFFFFFFFFFFFFFFFFFFFFFFFFFFFFF AND PUSH20 0xFFFFFFFFFFFFFFFFFFFFFFFFFFFFFFFFFFFFFFFF AND DUP2 MSTORE PUSH1 0x20 ADD SWAP1 DUP2 MSTORE PUSH1 0x20 ADD PUSH1 0x0 KECCAK256 PUSH1 0x0 DUP5 PUSH20 0xFFFFFFFFFFFFFFFFFFFFFFFFFFFFFFFFFFFFFFFF AND PUSH20 0xFFFFFFFFFFFFFFFFFFFFFFFFFFFFFFFFFFFFFFFF AND DUP2 MSTORE PUSH1 0x20 ADD SWAP1 DUP2 MSTORE PUSH1 0x20 ADD PUSH1 0x0 KECCAK256 DUP2 SWAP1 SSTORE POP DUP2 PUSH20 0xFFFFFFFFFFFFFFFFFFFFFFFFFFFFFFFFFFFFFFFF AND DUP4 PUSH20 0xFFFFFFFFFFFFFFFFFFFFFFFFFFFFFFFFFFFFFFFF AND PUSH32 0x8C5BE1E5EBEC7D5BD14F71427D1E84F3DD0314C0F7B2291E5B200AC8C7C3B925 DUP4 PUSH1 0x40 MLOAD PUSH2 0xDC4 SWAP2 SWAP1 PUSH2 0x12F0 JUMP JUMPDEST PUSH1 0x40 MLOAD DUP1 SWAP2 SUB SWAP1 LOG3 POP POP POP JUMP JUMPDEST PUSH1 0x0 PUSH2 0xDDD DUP5 DUP5 PUSH2 0xB44 JUMP JUMPDEST SWAP1 POP PUSH32 0xFFFFFFFFFFFFFFFFFFFFFFFFFFFFFFFFFFFFFFFFFFFFFFFFFFFFFFFFFFFFFFFF DUP2 EQ PUSH2 0xE57 JUMPI DUP2 DUP2 LT ISZERO PUSH2 0xE49 JUMPI PUSH1 0x40 MLOAD PUSH32 0x8C379A000000000000000000000000000000000000000000000000000000000 DUP2 MSTORE PUSH1 0x4 ADD PUSH2 0xE40 SWAP1 PUSH2 0x18C7 JUMP JUMPDEST PUSH1 0x40 MLOAD DUP1 SWAP2 SUB SWAP1 REVERT JUMPDEST PUSH2 0xE56 DUP5 DUP5 DUP5 DUP5 SUB PUSH2 0xC08 JUMP JUMPDEST JUMPDEST POP POP POP POP JUMP JUMPDEST PUSH1 0x0 DUP1 REVERT JUMPDEST PUSH1 0x0 DUP2 PUSH1 0x0 ADD SLOAD SWAP1 POP SWAP2 SWAP1 POP JUMP JUMPDEST PUSH1 0x0 PUSH20 0xFFFFFFFFFFFFFFFFFFFFFFFFFFFFFFFFFFFFFFFF AND DUP3 PUSH20 0xFFFFFFFFFFFFFFFFFFFFFFFFFFFFFFFFFFFFFFFF AND SUB PUSH2 0xEDF JUMPI PUSH1 0x40 MLOAD PUSH32 0x8C379A000000000000000000000000000000000000000000000000000000000 DUP2 MSTORE PUSH1 0x4 ADD PUSH2 0xED6 SWAP1 PUSH2 0x1933 JUMP JUMPDEST PUSH1 0x40 MLOAD DUP1 SWAP2 SUB SWAP1 REVERT JUMPDEST PUSH2 0xEEB PUSH1 0x0 DUP4 DUP4 PUSH2 0x10E9 JUMP JUMPDEST DUP1 PUSH1 0x2 PUSH1 0x0 DUP3 DUP3 SLOAD PUSH2 0xEFD SWAP2 SWAP1 PUSH2 0x14BB JUMP JUMPDEST SWAP3 POP POP DUP2 SWAP1 SSTORE POP DUP1 PUSH1 0x0 DUP1 DUP5 PUSH20 0xFFFFFFFFFFFFFFFFFFFFFFFFFFFFFFFFFFFFFFFF AND PUSH20 0xFFFFFFFFFFFFFFFFFFFFFFFFFFFFFFFFFFFFFFFF AND DUP2 MSTORE PUSH1 0x20 ADD SWAP1 DUP2 MSTORE PUSH1 0x20 ADD PUSH1 0x0 KECCAK256 PUSH1 0x0 DUP3 DUP3 SLOAD ADD SWAP3 POP POP DUP2 SWAP1 SSTORE POP DUP2 PUSH20 0xFFFFFFFFFFFFFFFFFFFFFFFFFFFFFFFFFFFFFFFF AND PUSH1 0x0 PUSH20 0xFFFFFFFFFFFFFFFFFFFFFFFFFFFFFFFFFFFFFFFF AND PUSH32 0xDDF252AD1BE2C89B69C2B068FC378DAA952BA7F163C4A11628F55A4DF523B3EF DUP4 PUSH1 0x40 MLOAD PUSH2 0xFAE SWAP2 SWAP1 PUSH2 0x12F0 JUMP JUMPDEST PUSH1 0x40 MLOAD DUP1 SWAP2 SUB SWAP1 LOG3 PUSH2 0xFC2 PUSH1 0x0 DUP4 DUP4 PUSH2 0x10EE JUMP JUMPDEST POP POP JUMP JUMPDEST PUSH1 0x0 JUMPDEST PUSH1 0x8 DUP1 SLOAD SWAP1 POP DUP2 LT ISZERO PUSH2 0x10B2 JUMPI PUSH1 0x64 DUP3 PUSH1 0x9 DUP4 DUP2 SLOAD DUP2 LT PUSH2 0xFED JUMPI PUSH2 0xFEC PUSH2 0x1953 JUMP JUMPDEST JUMPDEST SWAP1 PUSH1 0x0 MSTORE PUSH1 0x20 PUSH1 0x0 KECCAK256 ADD SLOAD PUSH2 0x1002 SWAP2 SWAP1 PUSH2 0x1982 JUMP JUMPDEST PUSH2 0x100C SWAP2 SWAP1 PUSH2 0x19F3 JUMP JUMPDEST PUSH1 0xB PUSH1 0x0 PUSH1 0x8 DUP5 DUP2 SLOAD DUP2 LT PUSH2 0x1024 JUMPI PUSH2 0x1023 PUSH2 0x1953 JUMP JUMPDEST JUMPDEST SWAP1 PUSH1 0x0 MSTORE PUSH1 0x20 PUSH1 0x0 KECCAK256 ADD PUSH1 0x0 SWAP1 SLOAD SWAP1 PUSH2 0x100 EXP SWAP1 DIV PUSH20 0xFFFFFFFFFFFFFFFFFFFFFFFFFFFFFFFFFFFFFFFF AND PUSH20 0xFFFFFFFFFFFFFFFFFFFFFFFFFFFFFFFFFFFFFFFF AND PUSH20 0xFFFFFFFFFFFFFFFFFFFFFFFFFFFFFFFFFFFFFFFF AND DUP2 MSTORE PUSH1 0x20 ADD SWAP1 DUP2 MSTORE PUSH1 0x20 ADD PUSH1 0x0 KECCAK256 PUSH1 0x0 DUP3 DUP3 SLOAD PUSH2 0x1098 SWAP2 SWAP1 PUSH2 0x14BB JUMP JUMPDEST SWAP3 POP POP DUP2 SWAP1 SSTORE POP DUP1 DUP1 PUSH2 0x10AA SWAP1 PUSH2 0x1A24 JUMP JUMPDEST SWAP2 POP POP PUSH2 0xFC9 JUMP JUMPDEST POP POP JUMP JUMPDEST PUSH1 0x1 DUP2 PUSH1 0x0 ADD PUSH1 0x0 DUP3 DUP3 SLOAD ADD SWAP3 POP POP DUP2 SWAP1 SSTORE POP POP JUMP JUMPDEST DUP1 PUSH1 0xA PUSH1 0x0 PUSH2 0x100 EXP DUP2 SLOAD DUP2 PUSH1 0xFF MUL NOT AND SWAP1 DUP4 ISZERO ISZERO MUL OR SWAP1 SSTORE POP POP JUMP JUMPDEST POP POP POP JUMP JUMPDEST POP POP POP JUMP JUMPDEST PUSH1 0x0 DUP2 MLOAD SWAP1 POP SWAP2 SWAP1 POP JUMP JUMPDEST PUSH1 0x0 DUP3 DUP3 MSTORE PUSH1 0x20 DUP3 ADD SWAP1 POP SWAP3 SWAP2 POP POP JUMP JUMPDEST PUSH1 0x0 JUMPDEST DUP4 DUP2 LT ISZERO PUSH2 0x112D JUMPI DUP1 DUP3 ADD MLOAD DUP2 DUP5 ADD MSTORE PUSH1 0x20 DUP2 ADD SWAP1 POP PUSH2 0x1112 JUMP JUMPDEST PUSH1 0x0 DUP5 DUP5 ADD MSTORE POP POP POP POP JUMP JUMPDEST PUSH1 0x0 PUSH1 0x1F NOT PUSH1 0x1F DUP4 ADD AND SWAP1 POP SWAP2 SWAP1 POP JUMP JUMPDEST PUSH1 0x0 PUSH2 0x1155 DUP3 PUSH2 0x10F3 JUMP JUMPDEST PUSH2 0x115F DUP2 DUP6 PUSH2 0x10FE JUMP JUMPDEST SWAP4 POP PUSH2 0x116F DUP2 DUP6 PUSH1 0x20 DUP7 ADD PUSH2 0x110F JUMP JUMPDEST PUSH2 0x1178 DUP2 PUSH2 0x1139 JUMP JUMPDEST DUP5 ADD SWAP2 POP POP SWAP3 SWAP2 POP POP JUMP JUMPDEST PUSH1 0x0 PUSH1 0x20 DUP3 ADD SWAP1 POP DUP2 DUP2 SUB PUSH1 0x0 DUP4 ADD MSTORE PUSH2 0x119D DUP2 DUP5 PUSH2 0x114A JUMP JUMPDEST SWAP1 POP SWAP3 SWAP2 POP POP JUMP JUMPDEST PUSH1 0x0 DUP1 REVERT JUMPDEST PUSH1 0x0 PUSH20 0xFFFFFFFFFFFFFFFFFFFFFFFFFFFFFFFFFFFFFFFF DUP3 AND SWAP1 POP SWAP2 SWAP1 POP JUMP JUMPDEST PUSH1 0x0 PUSH2 0x11D5 DUP3 PUSH2 0x11AA JUMP JUMPDEST SWAP1 POP SWAP2 SWAP1 POP JUMP JUMPDEST PUSH2 0x11E5 DUP2 PUSH2 0x11CA JUMP JUMPDEST DUP2 EQ PUSH2 0x11F0 JUMPI PUSH1 0x0 DUP1 REVERT JUMPDEST POP JUMP JUMPDEST PUSH1 0x0 DUP2 CALLDATALOAD SWAP1 POP PUSH2 0x1202 DUP2 PUSH2 0x11DC JUMP JUMPDEST SWAP3 SWAP2 POP POP JUMP JUMPDEST PUSH1 0x0 DUP2 SWAP1 POP SWAP2 SWAP1 POP JUMP JUMPDEST PUSH2 0x121B DUP2 PUSH2 0x1208 JUMP JUMPDEST DUP2 EQ PUSH2 0x1226 JUMPI PUSH1 0x0 DUP1 REVERT JUMPDEST POP JUMP JUMPDEST PUSH1 0x0 DUP2 CALLDATALOAD SWAP1 POP PUSH2 0x1238 DUP2 PUSH2 0x1212 JUMP JUMPDEST SWAP3 SWAP2 POP POP JUMP JUMPDEST PUSH1 0x0 DUP1 PUSH1 0x40 DUP4 DUP6 SUB SLT ISZERO PUSH2 0x1255 JUMPI PUSH2 0x1254 PUSH2 0x11A5 JUMP JUMPDEST JUMPDEST PUSH1 0x0 PUSH2 0x1263 DUP6 DUP3 DUP7 ADD PUSH2 0x11F3 JUMP JUMPDEST SWAP3 POP POP PUSH1 0x20 PUSH2 0x1274 DUP6 DUP3 DUP7 ADD PUSH2 0x1229 JUMP JUMPDEST SWAP2 POP POP SWAP3 POP SWAP3 SWAP1 POP JUMP JUMPDEST PUSH1 0x0 DUP2 ISZERO ISZERO SWAP1 POP SWAP2 SWAP1 POP JUMP JUMPDEST PUSH2 0x1293 DUP2 PUSH2 0x127E JUMP JUMPDEST DUP3 MSTORE POP POP JUMP JUMPDEST PUSH1 0x0 PUSH1 0x20 DUP3 ADD SWAP1 POP PUSH2 0x12AE PUSH1 0x0 DUP4 ADD DUP5 PUSH2 0x128A JUMP JUMPDEST SWAP3 SWAP2 POP POP JUMP JUMPDEST PUSH1 0x0 PUSH1 0x20 DUP3 DUP5 SUB SLT ISZERO PUSH2 0x12CA JUMPI PUSH2 0x12C9 PUSH2 0x11A5 JUMP JUMPDEST JUMPDEST PUSH1 0x0 PUSH2 0x12D8 DUP5 DUP3 DUP6 ADD PUSH2 0x11F3 JUMP JUMPDEST SWAP2 POP POP SWAP3 SWAP2 POP POP JUMP JUMPDEST PUSH2 0x12EA DUP2 PUSH2 0x1208 JUMP JUMPDEST DUP3 MSTORE POP POP JUMP JUMPDEST PUSH1 0x0 PUSH1 0x20 DUP3 ADD SWAP1 POP PUSH2 0x1305 PUSH1 0x0 DUP4 ADD DUP5 PUSH2 0x12E1 JUMP JUMPDEST SWAP3 SWAP2 POP POP JUMP JUMPDEST PUSH1 0x0 DUP1 PUSH1 0x0 PUSH1 0x60 DUP5 DUP7 SUB SLT ISZERO PUSH2 0x1324 JUMPI PUSH2 0x1323 PUSH2 0x11A5 JUMP JUMPDEST JUMPDEST PUSH1 0x0 PUSH2 0x1332 DUP7 DUP3 DUP8 ADD PUSH2 0x11F3 JUMP JUMPDEST SWAP4 POP POP PUSH1 0x20 PUSH2 0x1343 DUP7 DUP3 DUP8 ADD PUSH2 0x11F3 JUMP JUMPDEST SWAP3 POP POP PUSH1 0x40 PUSH2 0x1354 DUP7 DUP3 DUP8 ADD PUSH2 0x1229 JUMP JUMPDEST SWAP2 POP POP SWAP3 POP SWAP3 POP SWAP3 JUMP JUMPDEST PUSH1 0x0 PUSH1 0xFF DUP3 AND SWAP1 POP SWAP2 SWAP1 POP JUMP JUMPDEST PUSH2 0x1374 DUP2 PUSH2 0x135E JUMP JUMPDEST DUP3 MSTORE POP POP JUMP JUMPDEST PUSH1 0x0 PUSH1 0x20 DUP3 ADD SWAP1 POP PUSH2 0x138F PUSH1 0x0 DUP4 ADD DUP5 PUSH2 0x136B JUMP JUMPDEST SWAP3 SWAP2 POP POP JUMP JUMPDEST PUSH1 0x0 PUSH1 0x20 DUP3 DUP5 SUB SLT ISZERO PUSH2 0x13AB JUMPI PUSH2 0x13AA PUSH2 0x11A5 JUMP JUMPDEST JUMPDEST PUSH1 0x0 PUSH2 0x13B9 DUP5 DUP3 DUP6 ADD PUSH2 0x1229 JUMP JUMPDEST SWAP2 POP POP SWAP3 SWAP2 POP POP JUMP JUMPDEST PUSH2 0x13CB DUP2 PUSH2 0x11CA JUMP JUMPDEST DUP3 MSTORE POP POP JUMP JUMPDEST PUSH1 0x0 PUSH1 0x20 DUP3 ADD SWAP1 POP PUSH2 0x13E6 PUSH1 0x0 DUP4 ADD DUP5 PUSH2 0x13C2 JUMP JUMPDEST SWAP3 SWAP2 POP POP JUMP JUMPDEST PUSH1 0x0 DUP1 PUSH1 0x40 DUP4 DUP6 SUB SLT ISZERO PUSH2 0x1403 JUMPI PUSH2 0x1402 PUSH2 0x11A5 JUMP JUMPDEST JUMPDEST PUSH1 0x0 PUSH2 0x1411 DUP6 DUP3 DUP7 ADD PUSH2 0x11F3 JUMP JUMPDEST SWAP3 POP POP PUSH1 0x20 PUSH2 0x1422 DUP6 DUP3 DUP7 ADD PUSH2 0x11F3 JUMP JUMPDEST SWAP2 POP POP SWAP3 POP SWAP3 SWAP1 POP JUMP JUMPDEST PUSH32 0x4E487B7100000000000000000000000000000000000000000000000000000000 PUSH1 0x0 MSTORE PUSH1 0x22 PUSH1 0x4 MSTORE PUSH1 0x24 PUSH1 0x0 REVERT JUMPDEST PUSH1 0x0 PUSH1 0x2 DUP3 DIV SWAP1 POP PUSH1 0x1 DUP3 AND DUP1 PUSH2 0x1473 JUMPI PUSH1 0x7F DUP3 AND SWAP2 POP JUMPDEST PUSH1 0x20 DUP3 LT DUP2 SUB PUSH2 0x1486 JUMPI PUSH2 0x1485 PUSH2 0x142C JUMP JUMPDEST JUMPDEST POP SWAP2 SWAP1 POP JUMP JUMPDEST PUSH32 0x4E487B7100000000000000000000000000000000000000000000000000000000 PUSH1 0x0 MSTORE PUSH1 0x11 PUSH1 0x4 MSTORE PUSH1 0x24 PUSH1 0x0 REVERT JUMPDEST PUSH1 0x0 PUSH2 0x14C6 DUP3 PUSH2 0x1208 JUMP JUMPDEST SWAP2 POP PUSH2 0x14D1 DUP4 PUSH2 0x1208 JUMP JUMPDEST SWAP3 POP DUP3 DUP3 ADD SWAP1 POP DUP1 DUP3 GT ISZERO PUSH2 0x14E9 JUMPI PUSH2 0x14E8 PUSH2 0x148C JUMP JUMPDEST JUMPDEST SWAP3 SWAP2 POP POP JUMP JUMPDEST PUSH32 0x496E73756666696369656E7420416D6F756E7400000000000000000000000000 PUSH1 0x0 DUP3 ADD MSTORE POP JUMP JUMPDEST PUSH1 0x0 PUSH2 0x1525 PUSH1 0x13 DUP4 PUSH2 0x10FE JUMP JUMPDEST SWAP2 POP PUSH2 0x1530 DUP3 PUSH2 0x14EF JUMP JUMPDEST PUSH1 0x20 DUP3 ADD SWAP1 POP SWAP2 SWAP1 POP JUMP JUMPDEST PUSH1 0x0 PUSH1 0x20 DUP3 ADD SWAP1 POP DUP2 DUP2 SUB PUSH1 0x0 DUP4 ADD MSTORE PUSH2 0x1554 DUP2 PUSH2 0x1518 JUMP JUMPDEST SWAP1 POP SWAP2 SWAP1 POP JUMP JUMPDEST PUSH32 0x546F6B656E732061726520736F6C64206F757400000000000000000000000000 PUSH1 0x0 DUP3 ADD MSTORE POP JUMP JUMPDEST PUSH1 0x0 PUSH2 0x1591 PUSH1 0x13 DUP4 PUSH2 0x10FE JUMP JUMPDEST SWAP2 POP PUSH2 0x159C DUP3 PUSH2 0x155B JUMP JUMPDEST PUSH1 0x20 DUP3 ADD SWAP1 POP SWAP2 SWAP1 POP JUMP JUMPDEST PUSH1 0x0 PUSH1 0x20 DUP3 ADD SWAP1 POP DUP2 DUP2 SUB PUSH1 0x0 DUP4 ADD MSTORE PUSH2 0x15C0 DUP2 PUSH2 0x1584 JUMP JUMPDEST SWAP1 POP SWAP2 SWAP1 POP JUMP JUMPDEST PUSH32 0x596F75206861766520616C726561647920626F75676874207468697320746F6B PUSH1 0x0 DUP3 ADD MSTORE PUSH32 0x656E000000000000000000000000000000000000000000000000000000000000 PUSH1 0x20 DUP3 ADD MSTORE POP JUMP JUMPDEST PUSH1 0x0 PUSH2 0x1623 PUSH1 0x22 DUP4 PUSH2 0x10FE JUMP JUMPDEST SWAP2 POP PUSH2 0x162E DUP3 PUSH2 0x15C7 JUMP JUMPDEST PUSH1 0x40 DUP3 ADD SWAP1 POP SWAP2 SWAP1 POP JUMP JUMPDEST PUSH1 0x0 PUSH1 0x20 DUP3 ADD SWAP1 POP DUP2 DUP2 SUB PUSH1 0x0 DUP4 ADD MSTORE PUSH2 0x1652 DUP2 PUSH2 0x1616 JUMP JUMPDEST SWAP1 POP SWAP2 SWAP1 POP JUMP JUMPDEST PUSH32 0x45524332303A2064656372656173656420616C6C6F77616E63652062656C6F77 PUSH1 0x0 DUP3 ADD MSTORE PUSH32 0x207A65726F000000000000000000000000000000000000000000000000000000 PUSH1 0x20 DUP3 ADD MSTORE POP JUMP JUMPDEST PUSH1 0x0 PUSH2 0x16B5 PUSH1 0x25 DUP4 PUSH2 0x10FE JUMP JUMPDEST SWAP2 POP PUSH2 0x16C0 DUP3 PUSH2 0x1659 JUMP JUMPDEST PUSH1 0x40 DUP3 ADD SWAP1 POP SWAP2 SWAP1 POP JUMP JUMPDEST PUSH1 0x0 PUSH1 0x20 DUP3 ADD SWAP1 POP DUP2 DUP2 SUB PUSH1 0x0 DUP4 ADD MSTORE PUSH2 0x16E4 DUP2 PUSH2 0x16A8 JUMP JUMPDEST SWAP1 POP SWAP2 SWAP1 POP JUMP JUMPDEST PUSH32 0x596F75722062616C616E6365206973207A65726F000000000000000000000000 PUSH1 0x0 DUP3 ADD MSTORE POP JUMP JUMPDEST PUSH1 0x0 PUSH2 0x1721 PUSH1 0x14 DUP4 PUSH2 0x10FE JUMP JUMPDEST SWAP2 POP PUSH2 0x172C DUP3 PUSH2 0x16EB JUMP JUMPDEST PUSH1 0x20 DUP3 ADD SWAP1 POP SWAP2 SWAP1 POP JUMP JUMPDEST PUSH1 0x0 PUSH1 0x20 DUP3 ADD SWAP1 POP DUP2 DUP2 SUB PUSH1 0x0 DUP4 ADD MSTORE PUSH2 0x1750 DUP2 PUSH2 0x1714 JUMP JUMPDEST SWAP1 POP SWAP2 SWAP1 POP JUMP JUMPDEST PUSH32 0x45524332303A20617070726F76652066726F6D20746865207A65726F20616464 PUSH1 0x0 DUP3 ADD MSTORE PUSH32 0x7265737300000000000000000000000000000000000000000000000000000000 PUSH1 0x20 DUP3 ADD MSTORE POP JUMP JUMPDEST PUSH1 0x0 PUSH2 0x17B3 PUSH1 0x24 DUP4 PUSH2 0x10FE JUMP JUMPDEST SWAP2 POP PUSH2 0x17BE DUP3 PUSH2 0x1757 JUMP JUMPDEST PUSH1 0x40 DUP3 ADD SWAP1 POP SWAP2 SWAP1 POP JUMP JUMPDEST PUSH1 0x0 PUSH1 0x20 DUP3 ADD SWAP1 POP DUP2 DUP2 SUB PUSH1 0x0 DUP4 ADD MSTORE PUSH2 0x17E2 DUP2 PUSH2 0x17A6 JUMP JUMPDEST SWAP1 POP SWAP2 SWAP1 POP JUMP JUMPDEST PUSH32 0x45524332303A20617070726F766520746F20746865207A65726F206164647265 PUSH1 0x0 DUP3 ADD MSTORE PUSH32 0x7373000000000000000000000000000000000000000000000000000000000000 PUSH1 0x20 DUP3 ADD MSTORE POP JUMP JUMPDEST PUSH1 0x0 PUSH2 0x1845 PUSH1 0x22 DUP4 PUSH2 0x10FE JUMP JUMPDEST SWAP2 POP PUSH2 0x1850 DUP3 PUSH2 0x17E9 JUMP JUMPDEST PUSH1 0x40 DUP3 ADD SWAP1 POP SWAP2 SWAP1 POP JUMP JUMPDEST PUSH1 0x0 PUSH1 0x20 DUP3 ADD SWAP1 POP DUP2 DUP2 SUB PUSH1 0x0 DUP4 ADD MSTORE PUSH2 0x1874 DUP2 PUSH2 0x1838 JUMP JUMPDEST SWAP1 POP SWAP2 SWAP1 POP JUMP JUMPDEST PUSH32 0x45524332303A20696E73756666696369656E7420616C6C6F77616E6365000000 PUSH1 0x0 DUP3 ADD MSTORE POP JUMP JUMPDEST PUSH1 0x0 PUSH2 0x18B1 PUSH1 0x1D DUP4 PUSH2 0x10FE JUMP JUMPDEST SWAP2 POP PUSH2 0x18BC DUP3 PUSH2 0x187B JUMP JUMPDEST PUSH1 0x20 DUP3 ADD SWAP1 POP SWAP2 SWAP1 POP JUMP JUMPDEST PUSH1 0x0 PUSH1 0x20 DUP3 ADD SWAP1 POP DUP2 DUP2 SUB PUSH1 0x0 DUP4 ADD MSTORE PUSH2 0x18E0 DUP2 PUSH2 0x18A4 JUMP JUMPDEST SWAP1 POP SWAP2 SWAP1 POP JUMP JUMPDEST PUSH32 0x45524332303A206D696E7420746F20746865207A65726F206164647265737300 PUSH1 0x0 DUP3 ADD MSTORE POP JUMP JUMPDEST PUSH1 0x0 PUSH2 0x191D PUSH1 0x1F DUP4 PUSH2 0x10FE JUMP JUMPDEST SWAP2 POP PUSH2 0x1928 DUP3 PUSH2 0x18E7 JUMP JUMPDEST PUSH1 0x20 DUP3 ADD SWAP1 POP SWAP2 SWAP1 POP JUMP JUMPDEST PUSH1 0x0 PUSH1 0x20 DUP3 ADD SWAP1 POP DUP2 DUP2 SUB PUSH1 0x0 DUP4 ADD MSTORE PUSH2 0x194C DUP2 PUSH2 0x1910 JUMP JUMPDEST SWAP1 POP SWAP2 SWAP1 POP JUMP JUMPDEST PUSH32 0x4E487B7100000000000000000000000000000000000000000000000000000000 PUSH1 0x0 MSTORE PUSH1 0x32 PUSH1 0x4 MSTORE PUSH1 0x24 PUSH1 0x0 REVERT JUMPDEST PUSH1 0x0 PUSH2 0x198D DUP3 PUSH2 0x1208 JUMP JUMPDEST SWAP2 POP PUSH2 0x1998 DUP4 PUSH2 0x1208 JUMP JUMPDEST SWAP3 POP DUP3 DUP3 MUL PUSH2 0x19A6 DUP2 PUSH2 0x1208 JUMP JUMPDEST SWAP2 POP DUP3 DUP3 DIV DUP5 EQ DUP4 ISZERO OR PUSH2 0x19BD JUMPI PUSH2 0x19BC PUSH2 0x148C JUMP JUMPDEST JUMPDEST POP SWAP3 SWAP2 POP POP JUMP JUMPDEST PUSH32 0x4E487B7100000000000000000000000000000000000000000000000000000000 PUSH1 0x0 MSTORE PUSH1 0x12 PUSH1 0x4 MSTORE PUSH1 0x24 PUSH1 0x0 REVERT JUMPDEST PUSH1 0x0 PUSH2 0x19FE DUP3 PUSH2 0x1208 JUMP JUMPDEST SWAP2 POP PUSH2 0x1A09 DUP4 PUSH2 0x1208 JUMP JUMPDEST SWAP3 POP DUP3 PUSH2 0x1A19 JUMPI PUSH2 0x1A18 PUSH2 0x19C4 JUMP JUMPDEST JUMPDEST DUP3 DUP3 DIV SWAP1 POP SWAP3 SWAP2 POP POP JUMP JUMPDEST PUSH1 0x0 PUSH2 0x1A2F DUP3 PUSH2 0x1208 JUMP JUMPDEST SWAP2 POP PUSH32 0xFFFFFFFFFFFFFFFFFFFFFFFFFFFFFFFFFFFFFFFFFFFFFFFFFFFFFFFFFFFFFFFF DUP3 SUB PUSH2 0x1A61 JUMPI PUSH2 0x1A60 PUSH2 0x148C JUMP JUMPDEST JUMPDEST PUSH1 0x1 DUP3 ADD SWAP1 POP SWAP2 SWAP1 POP JUMP INVALID LOG2 PUSH5 0x6970667358 0x22 SLT KECCAK256 PUSH1 0x8E 0x5D DUP12 0xE DUP12 0xAB SWAP13 SLOAD 0x2C CALLER COINBASE 0x5C EXP LOG2 0xAA 0xEF SWAP4 LOG4 0x2A PUSH17 0xF7F8DEC2DB9D01A14B75FF64736F6C6343 STOP ADDMOD SLT STOP CALLER LOG2 PUSH5 0x6970667358 0x22 SLT KECCAK256 PUSH19 0xC4425499350A422B4764AA5B479DE9C3CCAEE7 STATICCALL DUP14 PUSH11 0xDCEEA5AD97012B9F476473 PUSH16 0x6C634300081200330000000000000000 "
  },
  "linkReferences": {},
  "deployedLinkReferences": {}
}