{
  "_format": "hh-sol-artifact-1",
  "contractName": "AccessToken",
  "sourceName": "web3/contracts/AccessToken.sol",
  "abi": [
    {
      "inputs": [
        {
          "internalType": "string",
          "name": "_name",
          "type": "string"
        },
        {
          "internalType": "string",
          "name": "_symbol",
          "type": "string"
        },
        {
          "internalType": "uint256",
          "name": "_maxSupply",
          "type": "uint256"
        },
        {
          "internalType": "uint256",
          "name": "_tokenPrice",
          "type": "uint256"
        },
        {
          "internalType": "address[]",
          "name": "_creators",
          "type": "address[]"
        },
        {
          "internalType": "uint256[]",
          "name": "_shares",
          "type": "uint256[]"
        }
      ],
      "stateMutability": "nonpayable",
      "type": "constructor"
    },
    {
      "anonymous": false,
      "inputs": [
        {
          "indexed": true,
          "internalType": "address",
          "name": "owner",
          "type": "address"
        },
        {
          "indexed": true,
          "internalType": "address",
          "name": "spender",
          "type": "address"
        },
        {
          "indexed": false,
          "internalType": "uint256",
          "name": "value",
          "type": "uint256"
        }
      ],
      "name": "Approval",
      "type": "event"
    },
    {
      "anonymous": false,
      "inputs": [
        {
          "indexed": true,
          "internalType": "address",
          "name": "from",
          "type": "address"
        },
        {
          "indexed": true,
          "internalType": "address",
          "name": "to",
          "type": "address"
        },
        {
          "indexed": false,
          "internalType": "uint256",
          "name": "value",
          "type": "uint256"
        }
      ],
      "name": "Transfer",
      "type": "event"
    },
    {
      "inputs": [],
      "name": "TOKEN_PRICE",
      "outputs": [
        {
          "internalType": "uint256",
          "name": "",
          "type": "uint256"
        }
      ],
      "stateMutability": "view",
      "type": "function"
    },
    {
      "inputs": [
        {
          "internalType": "address",
          "name": "owner",
          "type": "address"
        },
        {
          "internalType": "address",
          "name": "spender",
          "type": "address"
        }
      ],
      "name": "allowance",
      "outputs": [
        {
          "internalType": "uint256",
          "name": "",
          "type": "uint256"
        }
      ],
      "stateMutability": "view",
      "type": "function"
    },
    {
      "inputs": [
        {
          "internalType": "address",
          "name": "spender",
          "type": "address"
        },
        {
          "internalType": "uint256",
          "name": "amount",
          "type": "uint256"
        }
      ],
      "name": "approve",
      "outputs": [
        {
          "internalType": "bool",
          "name": "",
          "type": "bool"
        }
      ],
      "stateMutability": "nonpayable",
      "type": "function"
    },
    {
      "inputs": [
        {
          "internalType": "address",
          "name": "account",
          "type": "address"
        }
      ],
      "name": "balanceOf",
      "outputs": [
        {
          "internalType": "uint256",
          "name": "",
          "type": "uint256"
        }
      ],
      "stateMutability": "view",
      "type": "function"
    },
    {
      "inputs": [],
      "name": "collectFunds",
      "outputs": [],
      "stateMutability": "nonpayable",
      "type": "function"
    },
    {
      "inputs": [
        {
          "internalType": "address",
          "name": "",
          "type": "address"
        }
      ],
      "name": "creatorBalance",
      "outputs": [
        {
          "internalType": "uint256",
          "name": "",
          "type": "uint256"
        }
      ],
      "stateMutability": "view",
      "type": "function"
    },
    {
      "inputs": [],
      "name": "decimals",
      "outputs": [
        {
          "internalType": "uint8",
          "name": "",
          "type": "uint8"
        }
      ],
      "stateMutability": "view",
      "type": "function"
    },
    {
      "inputs": [
        {
          "internalType": "address",
          "name": "spender",
          "type": "address"
        },
        {
          "internalType": "uint256",
          "name": "subtractedValue",
          "type": "uint256"
        }
      ],
      "name": "decreaseAllowance",
      "outputs": [
        {
          "internalType": "bool",
          "name": "",
          "type": "bool"
        }
      ],
      "stateMutability": "nonpayable",
      "type": "function"
    },
    {
      "inputs": [],
      "name": "getProjectStatus",
      "outputs": [
        {
          "internalType": "bool",
          "name": "",
          "type": "bool"
        }
      ],
      "stateMutability": "view",
      "type": "function"
    },
    {
      "inputs": [
        {
          "internalType": "address",
          "name": "spender",
          "type": "address"
        },
        {
          "internalType": "uint256",
          "name": "addedValue",
          "type": "uint256"
        }
      ],
      "name": "increaseAllowance",
      "outputs": [
        {
          "internalType": "bool",
          "name": "",
          "type": "bool"
        }
      ],
      "stateMutability": "nonpayable",
      "type": "function"
    },
    {
      "inputs": [],
      "name": "mint",
      "outputs": [],
      "stateMutability": "payable",
      "type": "function"
    },
    {
      "inputs": [],
      "name": "name",
      "outputs": [
        {
          "internalType": "string",
          "name": "",
          "type": "string"
        }
      ],
      "stateMutability": "view",
      "type": "function"
    },
    {
      "inputs": [],
      "name": "symbol",
      "outputs": [
        {
          "internalType": "string",
          "name": "",
          "type": "string"
        }
      ],
      "stateMutability": "view",
      "type": "function"
    },
    {
      "inputs": [],
      "name": "tokenCounter",
      "outputs": [
        {
          "internalType": "uint256",
          "name": "",
          "type": "uint256"
        }
      ],
      "stateMutability": "view",
      "type": "function"
    },
    {
      "inputs": [],
      "name": "totalSupply",
      "outputs": [
        {
          "internalType": "uint256",
          "name": "",
          "type": "uint256"
        }
      ],
      "stateMutability": "view",
      "type": "function"
    },
    {
      "inputs": [
        {
          "internalType": "address",
          "name": "to",
          "type": "address"
        },
        {
          "internalType": "uint256",
          "name": "amount",
          "type": "uint256"
        }
      ],
      "name": "transfer",
      "outputs": [
        {
          "internalType": "bool",
          "name": "",
          "type": "bool"
        }
      ],
      "stateMutability": "nonpayable",
      "type": "function"
    },
    {
      "inputs": [
        {
          "internalType": "address",
          "name": "from",
          "type": "address"
        },
        {
          "internalType": "address",
          "name": "to",
          "type": "address"
        },
        {
          "internalType": "uint256",
          "name": "amount",
          "type": "uint256"
        }
      ],
      "name": "transferFrom",
      "outputs": [
        {
          "internalType": "bool",
          "name": "",
          "type": "bool"
        }
      ],
      "stateMutability": "nonpayable",
      "type": "function"
    }
  ],
  "bytecode": "0x60806040526001600a60006101000a81548160ff0219169083151502179055503480156200002c57600080fd5b506040516200214e3803806200214e8339818101604052810190620000529190620006a2565b858581600390805190602001906200006c92919062000123565b5080600490805190602001906200008592919062000123565b50505060098054905060088054905014620000d7576040517f08c379a0000000000000000000000000000000000000000000000000000000008152600401620000ce9062000841565b60405180910390fd5b83600581905550826007819055508160089080519060200190620000fd929190620001b4565b5080600990805190602001906200011692919062000243565b50505050505050620008c8565b828054620001319062000892565b90600052602060002090601f016020900481019282620001555760008555620001a1565b82601f106200017057805160ff1916838001178555620001a1565b82800160010185558215620001a1579182015b82811115620001a057825182559160200191906001019062000183565b5b509050620001b0919062000295565b5090565b82805482825590600052602060002090810192821562000230579160200282015b828111156200022f5782518260006101000a81548173ffffffffffffffffffffffffffffffffffffffff021916908373ffffffffffffffffffffffffffffffffffffffff16021790555091602001919060010190620001d5565b5b5090506200023f919062000295565b5090565b82805482825590600052602060002090810192821562000282579160200282015b828111156200028157825182559160200191906001019062000264565b5b50905062000291919062000295565b5090565b5b80821115620002b057600081600090555060010162000296565b5090565b6000604051905090565b600080fd5b600080fd5b600080fd5b600080fd5b6000601f19601f8301169050919050565b7f4e487b7100000000000000000000000000000000000000000000000000000000600052604160045260246000fd5b6200031d82620002d2565b810181811067ffffffffffffffff821117156200033f576200033e620002e3565b5b80604052505050565b600062000354620002b4565b905062000362828262000312565b919050565b600067ffffffffffffffff821115620003855762000384620002e3565b5b6200039082620002d2565b9050602081019050919050565b60005b83811015620003bd578082015181840152602081019050620003a0565b83811115620003cd576000848401525b50505050565b6000620003ea620003e48462000367565b62000348565b905082815260208101848484011115620004095762000408620002cd565b5b620004168482856200039d565b509392505050565b600082601f830112620004365762000435620002c8565b5b815162000448848260208601620003d3565b91505092915050565b6000819050919050565b620004668162000451565b81146200047257600080fd5b50565b60008151905062000486816200045b565b92915050565b600067ffffffffffffffff821115620004aa57620004a9620002e3565b5b602082029050602081019050919050565b600080fd5b600073ffffffffffffffffffffffffffffffffffffffff82169050919050565b6000620004ed82620004c0565b9050919050565b620004ff81620004e0565b81146200050b57600080fd5b50565b6000815190506200051f81620004f4565b92915050565b60006200053c62000536846200048c565b62000348565b90508083825260208201905060208402830185811115620005625762000561620004bb565b5b835b818110156200058f57806200057a88826200050e565b84526020840193505060208101905062000564565b5050509392505050565b600082601f830112620005b157620005b0620002c8565b5b8151620005c384826020860162000525565b91505092915050565b600067ffffffffffffffff821115620005ea57620005e9620002e3565b5b602082029050602081019050919050565b6000620006126200060c84620005cc565b62000348565b90508083825260208201905060208402830185811115620006385762000637620004bb565b5b835b8181101562000665578062000650888262000475565b8452602084019350506020810190506200063a565b5050509392505050565b600082601f830112620006875762000686620002c8565b5b815162000699848260208601620005fb565b91505092915050565b60008060008060008060c08789031215620006c257620006c1620002be565b5b600087015167ffffffffffffffff811115620006e357620006e2620002c3565b5b620006f189828a016200041e565b965050602087015167ffffffffffffffff811115620007155762000714620002c3565b5b6200072389828a016200041e565b95505060406200073689828a0162000475565b94505060606200074989828a0162000475565b935050608087015167ffffffffffffffff8111156200076d576200076c620002c3565b5b6200077b89828a0162000599565b92505060a087015167ffffffffffffffff8111156200079f576200079e620002c3565b5b620007ad89828a016200066f565b9150509295509295509295565b600082825260208201905092915050565b7f4c656e677468206f662063726561746f727320616e6420726f79616c7469657360008201527f206172726179206d75737420626520657175616c000000000000000000000000602082015250565b600062000829603483620007ba565b91506200083682620007cb565b604082019050919050565b600060208201905081810360008301526200085c816200081a565b9050919050565b7f4e487b7100000000000000000000000000000000000000000000000000000000600052602260045260246000fd5b60006002820490506001821680620008ab57607f821691505b60208210811415620008c257620008c162000863565b5b50919050565b61187680620008d86000396000f3fe6080604052600436106100fe5760003560e01c806370a0823111610095578063d082e38111610064578063d082e3811461033e578063d2d8cb6714610369578063dd62ed3e14610394578063e6cd7ab6146103d1578063e7aa3afc1461040e576100fe565b806370a082311461025c57806395d89b4114610299578063a457c2d7146102c4578063a9059cbb14610301576100fe565b806323b872dd116100d157806323b872dd146101a0578063313ce567146101dd57806339509351146102085780635b98062814610245576100fe565b806306fdde0314610103578063095ea7b31461012e5780631249c58b1461016b57806318160ddd14610175575b600080fd5b34801561010f57600080fd5b50610118610439565b6040516101259190610f72565b60405180910390f35b34801561013a57600080fd5b506101556004803603810190610150919061102d565b6104cb565b6040516101629190611088565b60405180910390f35b6101736104ee565b005b34801561018157600080fd5b5061018a610609565b60405161019791906110b2565b60405180910390f35b3480156101ac57600080fd5b506101c760048036038101906101c291906110cd565b610613565b6040516101d49190611088565b60405180910390f35b3480156101e957600080fd5b506101f2610642565b6040516101ff919061113c565b60405180910390f35b34801561021457600080fd5b5061022f600480360381019061022a919061102d565b61064b565b60405161023c9190611088565b60405180910390f35b34801561025157600080fd5b5061025a610682565b005b34801561026857600080fd5b50610283600480360381019061027e9190611157565b6107d1565b60405161029091906110b2565b60405180910390f35b3480156102a557600080fd5b506102ae610819565b6040516102bb9190610f72565b60405180910390f35b3480156102d057600080fd5b506102eb60048036038101906102e6919061102d565b6108ab565b6040516102f89190611088565b60405180910390f35b34801561030d57600080fd5b506103286004803603810190610323919061102d565b610922565b6040516103359190611088565b60405180910390f35b34801561034a57600080fd5b50610353610945565b60405161036091906110b2565b60405180910390f35b34801561037557600080fd5b5061037e61094b565b60405161038b91906110b2565b60405180910390f35b3480156103a057600080fd5b506103bb60048036038101906103b69190611184565b610951565b6040516103c891906110b2565b60405180910390f35b3480156103dd57600080fd5b506103f860048036038101906103f39190611157565b6109d8565b60405161040591906110b2565b60405180910390f35b34801561041a57600080fd5b506104236109f0565b6040516104309190611088565b60405180910390f35b606060038054610448906111f3565b80601f0160208091040260200160405190810160405280929190818152602001828054610474906111f3565b80156104c15780601f10610496576101008083540402835291602001916104c1565b820191906000526020600020905b8154815290600101906020018083116104a457829003601f168201915b5050505050905090565b6000806104d6610a07565b90506104e3818585610a0f565b600191505092915050565b600754341015610533576040517f08c379a000000000000000000000000000000000000000000000000000000000815260040161052a90611271565b60405180910390fd5b60055460065410610579576040517f08c379a0000000000000000000000000000000000000000000000000000000008152600401610570906112dd565b60405180910390fd5b6000610584336107d1565b146105c4576040517f08c379a00000000000000000000000000000000000000000000000000000000081526004016105bb9061136f565b60405180910390fd5b6105cf336001610bda565b6105d834610d31565b600660008154809291906105eb906113be565b91905055506005546006541415610607576106066000610e21565b5b565b6000600254905090565b60008061061e610a07565b905061062b858285610e3e565b610636858585610eca565b60019150509392505050565b60006012905090565b600080610656610a07565b90506106778185856106688589610951565b6106729190611407565b610a0f565b600191505092915050565b6000600b60003373ffffffffffffffffffffffffffffffffffffffff1673ffffffffffffffffffffffffffffffffffffffff1681526020019081526020016000205411610704576040517f08c379a00000000000000000000000000000000000000000000000000000000081526004016106fb906114a9565b60405180910390fd5b3373ffffffffffffffffffffffffffffffffffffffff166108fc600b60003373ffffffffffffffffffffffffffffffffffffffff1673ffffffffffffffffffffffffffffffffffffffff168152602001908152602001600020549081150290604051600060405180830381858888f19350505050158015610789573d6000803e3d6000fd5b506000600b60003373ffffffffffffffffffffffffffffffffffffffff1673ffffffffffffffffffffffffffffffffffffffff16815260200190815260200160002081905550565b60008060008373ffffffffffffffffffffffffffffffffffffffff1673ffffffffffffffffffffffffffffffffffffffff168152602001908152602001600020549050919050565b606060048054610828906111f3565b80601f0160208091040260200160405190810160405280929190818152602001828054610854906111f3565b80156108a15780601f10610876576101008083540402835291602001916108a1565b820191906000526020600020905b81548152906001019060200180831161088457829003601f168201915b5050505050905090565b6000806108b6610a07565b905060006108c48286610951565b905083811015610909576040517f08c379a00000000000000000000000000000000000000000000000000000000081526004016109009061153b565b60405180910390fd5b6109168286868403610a0f565b60019250505092915050565b60008061092d610a07565b905061093a818585610eca565b600191505092915050565b60065481565b60075481565b6000600160008473ffffffffffffffffffffffffffffffffffffffff1673ffffffffffffffffffffffffffffffffffffffff16815260200190815260200160002060008373ffffffffffffffffffffffffffffffffffffffff1673ffffffffffffffffffffffffffffffffffffffff16815260200190815260200160002054905092915050565b600b6020528060005260406000206000915090505481565b6000600a60009054906101000a900460ff16905090565b600033905090565b600073ffffffffffffffffffffffffffffffffffffffff168373ffffffffffffffffffffffffffffffffffffffff161415610a7f576040517f08c379a0000000000000000000000000000000000000000000000000000000008152600401610a76906115cd565b60405180910390fd5b600073ffffffffffffffffffffffffffffffffffffffff168273ffffffffffffffffffffffffffffffffffffffff161415610aef576040517f08c379a0000000000000000000000000000000000000000000000000000000008152600401610ae69061165f565b60405180910390fd5b80600160008573ffffffffffffffffffffffffffffffffffffffff1673ffffffffffffffffffffffffffffffffffffffff16815260200190815260200160002060008473ffffffffffffffffffffffffffffffffffffffff1673ffffffffffffffffffffffffffffffffffffffff168152602001908152602001600020819055508173ffffffffffffffffffffffffffffffffffffffff168373ffffffffffffffffffffffffffffffffffffffff167f8c5be1e5ebec7d5bd14f71427d1e84f3dd0314c0f7b2291e5b200ac8c7c3b92583604051610bcd91906110b2565b60405180910390a3505050565b600073ffffffffffffffffffffffffffffffffffffffff168273ffffffffffffffffffffffffffffffffffffffff161415610c4a576040517f08c379a0000000000000000000000000000000000000000000000000000000008152600401610c41906116cb565b60405180910390fd5b610c5660008383610ecf565b8060026000828254610c689190611407565b92505081905550806000808473ffffffffffffffffffffffffffffffffffffffff1673ffffffffffffffffffffffffffffffffffffffff168152602001908152602001600020600082825401925050819055508173ffffffffffffffffffffffffffffffffffffffff16600073ffffffffffffffffffffffffffffffffffffffff167fddf252ad1be2c89b69c2b068fc378daa952ba7f163c4a11628f55a4df523b3ef83604051610d1991906110b2565b60405180910390a3610d2d60008383610ed4565b5050565b60005b600880549050811015610e1d5760648260098381548110610d5857610d576116eb565b5b9060005260206000200154610d6d919061171a565b610d7791906117a3565b600b600060088481548110610d8f57610d8e6116eb565b5b9060005260206000200160009054906101000a900473ffffffffffffffffffffffffffffffffffffffff1673ffffffffffffffffffffffffffffffffffffffff1673ffffffffffffffffffffffffffffffffffffffff1681526020019081526020016000206000828254610e039190611407565b925050819055508080610e15906113be565b915050610d34565b5050565b80600a60006101000a81548160ff02191690831515021790555050565b6000610e4a8484610951565b90507fffffffffffffffffffffffffffffffffffffffffffffffffffffffffffffffff8114610ec45781811015610eb6576040517f08c379a0000000000000000000000000000000000000000000000000000000008152600401610ead90611820565b60405180910390fd5b610ec38484848403610a0f565b5b50505050565b600080fd5b505050565b505050565b600081519050919050565b600082825260208201905092915050565b60005b83811015610f13578082015181840152602081019050610ef8565b83811115610f22576000848401525b50505050565b6000601f19601f8301169050919050565b6000610f4482610ed9565b610f4e8185610ee4565b9350610f5e818560208601610ef5565b610f6781610f28565b840191505092915050565b60006020820190508181036000830152610f8c8184610f39565b905092915050565b600080fd5b600073ffffffffffffffffffffffffffffffffffffffff82169050919050565b6000610fc482610f99565b9050919050565b610fd481610fb9565b8114610fdf57600080fd5b50565b600081359050610ff181610fcb565b92915050565b6000819050919050565b61100a81610ff7565b811461101557600080fd5b50565b60008135905061102781611001565b92915050565b6000806040838503121561104457611043610f94565b5b600061105285828601610fe2565b925050602061106385828601611018565b9150509250929050565b60008115159050919050565b6110828161106d565b82525050565b600060208201905061109d6000830184611079565b92915050565b6110ac81610ff7565b82525050565b60006020820190506110c760008301846110a3565b92915050565b6000806000606084860312156110e6576110e5610f94565b5b60006110f486828701610fe2565b935050602061110586828701610fe2565b925050604061111686828701611018565b9150509250925092565b600060ff82169050919050565b61113681611120565b82525050565b6000602082019050611151600083018461112d565b92915050565b60006020828403121561116d5761116c610f94565b5b600061117b84828501610fe2565b91505092915050565b6000806040838503121561119b5761119a610f94565b5b60006111a985828601610fe2565b92505060206111ba85828601610fe2565b9150509250929050565b7f4e487b7100000000000000000000000000000000000000000000000000000000600052602260045260246000fd5b6000600282049050600182168061120b57607f821691505b6020821081141561121f5761121e6111c4565b5b50919050565b7f496e73756666696369656e7420416d6f756e7400000000000000000000000000600082015250565b600061125b601383610ee4565b915061126682611225565b602082019050919050565b6000602082019050818103600083015261128a8161124e565b9050919050565b7f546f6b656e732061726520736f6c64206f757400000000000000000000000000600082015250565b60006112c7601383610ee4565b91506112d282611291565b602082019050919050565b600060208201905081810360008301526112f6816112ba565b9050919050565b7f596f75206861766520616c726561647920626f75676874207468697320746f6b60008201527f656e000000000000000000000000000000000000000000000000000000000000602082015250565b6000611359602283610ee4565b9150611364826112fd565b604082019050919050565b600060208201905081810360008301526113888161134c565b9050919050565b7f4e487b7100000000000000000000000000000000000000000000000000000000600052601160045260246000fd5b60006113c982610ff7565b91507fffffffffffffffffffffffffffffffffffffffffffffffffffffffffffffffff8214156113fc576113fb61138f565b5b600182019050919050565b600061141282610ff7565b915061141d83610ff7565b9250827fffffffffffffffffffffffffffffffffffffffffffffffffffffffffffffffff038211156114525761145161138f565b5b828201905092915050565b7f596f75722062616c616e6365206973207a65726f000000000000000000000000600082015250565b6000611493601483610ee4565b915061149e8261145d565b602082019050919050565b600060208201905081810360008301526114c281611486565b9050919050565b7f45524332303a2064656372656173656420616c6c6f77616e63652062656c6f7760008201527f207a65726f000000000000000000000000000000000000000000000000000000602082015250565b6000611525602583610ee4565b9150611530826114c9565b604082019050919050565b6000602082019050818103600083015261155481611518565b9050919050565b7f45524332303a20617070726f76652066726f6d20746865207a65726f2061646460008201527f7265737300000000000000000000000000000000000000000000000000000000602082015250565b60006115b7602483610ee4565b91506115c28261155b565b604082019050919050565b600060208201905081810360008301526115e6816115aa565b9050919050565b7f45524332303a20617070726f766520746f20746865207a65726f20616464726560008201527f7373000000000000000000000000000000000000000000000000000000000000602082015250565b6000611649602283610ee4565b9150611654826115ed565b604082019050919050565b600060208201905081810360008301526116788161163c565b9050919050565b7f45524332303a206d696e7420746f20746865207a65726f206164647265737300600082015250565b60006116b5601f83610ee4565b91506116c08261167f565b602082019050919050565b600060208201905081810360008301526116e4816116a8565b9050919050565b7f4e487b7100000000000000000000000000000000000000000000000000000000600052603260045260246000fd5b600061172582610ff7565b915061173083610ff7565b9250817fffffffffffffffffffffffffffffffffffffffffffffffffffffffffffffffff04831182151516156117695761176861138f565b5b828202905092915050565b7f4e487b7100000000000000000000000000000000000000000000000000000000600052601260045260246000fd5b60006117ae82610ff7565b91506117b983610ff7565b9250826117c9576117c8611774565b5b828204905092915050565b7f45524332303a20696e73756666696369656e7420616c6c6f77616e6365000000600082015250565b600061180a601d83610ee4565b9150611815826117d4565b602082019050919050565b60006020820190508181036000830152611839816117fd565b905091905056fea26469706673582212201aef4c505066502527965af519c02e35ad031e74699b762eefaf333ea1225d3364736f6c63430008090033",
  "linkReferences": {},
  "deployedLinkReferences": {}
}